:020000040800F2
:10000000180E0020D500000875250008ED23000813
:1000100000000000000000000000000000000000E0
:10002000000000000000000000000000552800084B
:100030000000000000000000D92500085728000833
:10004000E7000008E7000008E7000008E7000008F4
:10005000E7000008E7000008CD080008D7080008FE
:10006000E7000008E7000008E7000008E7000008D4
:10007000E1050008E7000008E7000008E7000008C5
:10008000E7000008E7000008E7000008E7000008B4
:10009000E7000008E7000008E7000008E7000008A4
:1000A000E7000008E7000008E7000008E700000894
:1000B000E7000008E7000008E7000008212D00081D
:1000C0000348854600F02EFA0048004791310008A9
:1000D000180E00200448804704480047FEE7FEE76A
:1000E000FEE7FEE7FEE7FEE761280008C100000822
:1000F00030B50B46014600202022012409E00D46C0
:10010000D5409D4205D31D469540491B2546954047
:1001100040191546521E002DF1DC30BD70B500248B
:100120002546002801DA01244042002901DA012590
:100130004942FFF7DDFFAC4200D04042002C00D026
:10014000494270BD03460B439B0703D009E008C931
:10015000121F08C0042AFAD203E00B780370401C77
:10016000491C521EF9D27047D2B201E00270401C05
:10017000491EFBD270470022F6E710B513460A4627
:1001800004461946FFF7F0FF204610BD03460A78E3
:100190000270401C491C002AF9D118467047F8B576
:1001A00002464A40D40F42004B0052085B089A4274
:1001B00002D20246084611464A0023D0C30D4A0027
:1001C000DDB2120EAD1A202D35DA49020126490A98
:1001D000F6058A19002C00D0524220214F1B1146EF
:1001E000B9402A411018C20D9A4221D0002C17D0D4
:1001F000012D08DCDA05801AD20F8019D207DBB294
:1002000000F0F7F8F8BDDA05801A012340001B065C
:10021000C01880185A428018CA0F1043490007E0DE
:100220004908C2071143DA05801A8019400880186E
:1002300000F0D7F8F8BD61000122511A001BF7E762
:100240000122D2075140AAE70122D2075040A6E777
:10025000F0B51FB488B00B9909980024484009995B
:10026000C00F490049080991C0070B990090490047
:1002700049080B9109990898A64608431CD00B9988
:100280000A98084318D0099801244000420D4800FC
:10029000410D099824050003000B204309900B9899
:1002A0000003000B20430B9050181C4940180022FB
:1002B00001901446104605E0002001460DB0F0BD47
:1002C000032801DA034600E003239C46C11A0AAE64
:1002D0000AE05F0008ADED5B4F00F75B7D43002750
:1002E000AA187C41491C5B1E6145F2DD410004AB4C
:1002F0005A522104120C0A43240C401C0828DFDB4C
:10030000019802900099704601910090059B049A13
:100310000799069800F0B3F8D0E700000DFCFFFF46
:1003200070B54B005B0803430BD04B005C0D0026FF
:1003300033466542B341D417AD1AA34102DB002016
:10034000014670BD12053018514170BD10B5002234
:100350009623114600F04DF810BD00000EB505497A
:100360000291002100910A460B46019100F087F8A6
:1003700003B000BD33040000C20F4100400201235E
:10038000400ADB05D207090EC0187F2901DA0020D8
:100390007047962903DC9623591AC84001E0963924
:1003A0008840002AF4D040427047CB0FDB07490059
:1003B00010B5490802460A4307D00A0D072409036D
:1003C000E401090B121B002A01DC002010BDC9004A
:1003D000440F0C43C100E018D205801800F001F86A
:1003E00010BD002904DA401C490001D1400840003A
:1003F000704770B40024050C05D11024000402D10C
:10040000002921D01124050E01D100020834050F66
:1004100001D10001241D850F01D18000A41C0028FA
:1004200001DB4000641C002908D020252E1B0D464E
:10043000F540A14000D001212943084301061B1BC0
:10044000000ADB1D02D5002070BC7047DB051818C0
:1004500080180029F8DA401C4900F5D170BC40082A
:100460004000704710B5002B08DA0024401C6141A1
:1004700092185B411A4301D14008400010BDF0B50D
:100480001FB482B005460C0003D0084602F0CDFD33
:1004900002E002F0CAFD20300246009021462846C4
:1004A00000F052F8049B059A04460F461843114386
:1004B000084314D0184610431BD0009840210A1A54
:1004C0001846059900F050F805460E46009A059921
:1004D000049800F039F8084305D0012004E02046D4
:1004E000394607B0F0BD0020C11705430E432C4329
:1004F000374300990E986305401A7905E40A0022F3
:100500000C43FD0A0A3002D500200146E9E7010547
:10051000101969410C9C0D9D00196941FFF7A2FF5C
:10052000DFE70000064C0125064E05E0E36807CC36
:100530002B430C3C98471034B442F7D3FFF7C4FD6B
:10054000B0580008D058000810B5202A04DB014636
:10055000203A9140002010BD914020239C1A034670
:10056000E3401943904010BD10B5202A04DB084633
:10057000203AD040002110BD0B46D340D04020246B
:10058000A21A91400843194610BD70B58C18057821
:10059000401C6B075B0F01D10378401C2A1106D168
:1005A0000278401C03E006780E70401C491C5B1E5C
:1005B000F9D12B0705D40023521E0DD40B70491C12
:1005C000FAE70378401CCB1A921C03E01D780D70EB
:1005D000491C5B1C521EF9D5A142D8D3002070BD26
:1005E00010B5024800F0A2FB10BD0000C8040020B6
:1005F00070B5044600688168C943C9071BD181688A
:1006000049084900816000F071FF05460EE000F0E6
:100610006DFF401B022809D9E06A10210843E062FF
:10062000206B012108432063084670BD2068806864
:10063000C043C007EBD0002070BD0000F8B5002615
:100640000446009600688168C943C9072FD08168B5
:1006500001273943816010202168C0430860216868
:1006600040100860144813490068FFF741FD142149
:10067000484300E0401E00900028FBD100F036FF08
:1006800005460FE000F032FF401B02280AD9E06A5D
:1006900010210843E062206B384320632034267227
:1006A0000120F8BD20688068C043C007EAD100205F
:1006B000F8BD000040420F0000000020704700001D
:1006C00030B50D4604460B46024687B00BA100200C
:1006D00001F0EAFF0020059014216846FFF74BFD6A
:1006E00002206A4631C205A9684600F041FC002894
:1006F00001D0FFF7E3FF07B030BD00004150505F6D
:10070000466C6173684572617365202578202025E9
:10071000640D0A0030B591B030216846FFF72BFD1B
:10072000002502240F95E0010094059010480C95D7
:100730000D950E950695008CA103C004C00C4018C1
:10074000079009940B950A94684601F007FA00286F
:1007500009D107200CA931C101210CA80F9501F086
:10076000DFF8002801D001F029FF11B030BD0000F2
:100770000032FF1F00B50B48016AC90405D40A49BD
:100780004A68FF2381331A434A60006A000506D491
:10079000074806490160072141600649816000F071
:1007A0000BF800BD00200240002C00405555000011
:1007B00000300040FF0F0000044801687F22114311
:1007C000016004490248086070470000002C0040A6
:1007D000AAAA00000030004030B587B0040007D15D
:1007E0001648436B022213434363406B104005904D
:1007F000134A6000105A0090012200200392A200C8
:10080000104B0290002913D001290FD10E480190FE
:100810009858694600F0CCFD094D00222D1F28573D
:100820000F2100F0E7F9285700F0B6FE07B030BD01
:1008300001909858694600F0BBFDF7E700100240B0
:1008400078550008080000200000211070B505460A
:1008500000F04CFE040000D10124204604F030F9E1
:10086000A842FADB70BD062148430146401E00291C
:10087000FBDC704770B5054601F02FFE124C207866
:1008800001F014FE01F0B3FD002803D001F039FEA1
:10089000012070BD28462021084301F007FE01F029
:1008A000A6FD01F01AFE20780121084301F0FEFDAB
:1008B00001F09DFD01F0D3FD0446012001F0E9FDAA
:1008C00001F01FFE204670BD4000002010B508203A
:1008D00000F062FD10BD10B50120400200F05CFD8B
:1008E0000120000300F058FD0120400300F054FDFA
:1008F0000120C00300F050FD10BD000010B501F054
:10090000ECFD134C207801F0D1FD01F070FD01F0F9
:100910006EFD002803D001F0F4FD012010BD802001
:1009200001F0C4FD01F063FD01F0D7FD2078012145
:10093000084301F0BBFD01F05AFD01F090FD0446B3
:10094000012001F0A6FD01F0DCFD204610BD0000F5
:100950004000002005490020486005484169042204
:10096000114341610348C1060860704778020020C6
:100970000020024021433412054A002151600549FC
:100980004A6902231A434A61FF210160704700004F
:10099000780200200020024070B50D4C00226369EF
:1009A00001252B436361EFF3108372B60125ED043B
:1009B00040C9521C40C0D2B23F2A04D0402AF7D3CB
:1009C00083F3108870BD66692E436661F0E700000E
:1009D0000020024003494A69CB141A434A61FF21AF
:1009E000016070470020024070B5044600F07EFDB3
:1009F0000519084C05E000F079FDA84201D3032059
:100A000070BD2069C043C003F5D5034820610020B4
:100A100070BD00000020024011800000FEB50026DD
:100A20000546044620350196287A012808D0012081
:100A300028722046FFF7DCFD0090002802D04DE030
:100A40000220FEBDE06A11210902884302273843D3
:100A5000E062780300F0C8FD014622480068FFF715
:100A600047FB400000E0401E01900028FBD12068B9
:100A70008168C90721D1816808221143816000F093
:100A800035FD019005E000F031FD0199401A0A287A
:100A900013D8206880680007F5D420688168042294
:100AA0001143816000F022FD01900EE000F01EFD78
:100AB00001460198081A0A2807D9E06A1021B843AC
:100AC0000843E0622E720120FEBD20688068400766
:100AD000ECD4E06A80088000401CE0622E7200982E
:100AE000FEBD0000000000207047000010B5064C5D
:100AF0006168002903D000F00AF8608010BD00F0A2
:100B000006F8208010BD00002C000020704700680F
:100B1000006D70477047704770B505460446203534
:100B2000287A01280BD0012028722046FFF786FD85
:100B300001460020002904D02872084670BD02201A
:100B400070BDE26A184B1A40FF2301331A43E26278
:100B500023685A68520506D5E26A01267603B24335
:100B600076103243E262E26AD20404D5226B042694
:100B7000B243226300E0206328722220C043186041
:100B800020684268094B1A43426020688268120359
:100B9000520F072A826803D05B121A438260CCE7A7
:100BA00005231B05F9E70000FEFDFFFF20000020E4
:100BB000054901204A69C3071A434A614969002966
:100BC00000DA0020704700000020024006490020A3
:100BD0004A69002A07DA054A8A60054A8A60496933
:100BE000002900DA012070470020024023016745F8
:100BF000AB89EFCD10B501F0BFFC10BDA0270423D9
:100C0000F8B50025044620340095227A012A13D035
:100C1000012222724A681F23072A0FD20768BE6B7F
:100C2000BC46521E9700D21993409E430B686746FC
:100C300093401E43BE631CE00220F8BD07680D2AE6
:100C4000BC460BD27E6BD21F9700D21993409E43B5
:100C50000B68674693401E437E630AE03E6B0D3A85
:100C60009700D21993409E430B68674693401E43FA
:100C70003E630A680723142A0DD30768FE68BC4642
:100C8000143A5700D21993409E438B6867469340AD
:100C90001E43FE6019E007680A2ABC460BD33E6972
:100CA0000A3A5700D21993409E438B686746934097
:100CB0001E433E6109E07E695700D21993409E436E
:100CC0008B68674693401E437E610A68102A01D0F4
:100CD000112A20D1124B02689A4217D19068000263
:100CE00019D490680123DB05184390600868102828
:100CF00011D10D480B490068FFF7FAF90A21484362
:100D000000E0401E00900028FBD104E0C16A2022D0
:100D10001143C1620125002020722846F8BD000061
:100D20000024014040420F000000002070B504463E
:100D30000068416801258906002926DA01688907CB
:100D400023D5E16AC90603D4E16A6A021143E1626C
:100D500081680903490F072910D1217C00290DD191
:100D60004168202291434160E06AD1008843E062FB
:100D7000E06AC00402D4E06A2843E0622046FFF73C
:100D8000B5FE12202168C04308602068416809064A
:100D90002FD5016849072CD5E16AC90604D4E16A58
:100DA000012252031143E16281684904490F072976
:100DB0000AD04168490515D481680903490F0729FC
:100DC00010D1217C00290DD14168802291434160DE
:100DD000E06A51018843E062E06AC00502D4E06A3B
:100DE0002843E0622046FFF77FFE0C202168C043C5
:100DF00008602068416849060ED50068C0070BD01E
:100E0000E06A012109040843E0622046FFF782FE00
:100E100001202168C043086020680168890610D558
:100E2000416889000DD58168064DC90507D5216B3C
:100E300002221143216305602046FFF767FE206808
:100E4000056070BDDFFFFFFFF8B5002504460028F0
:100E500003D0E06A002802D008E00120F8BD00209D
:100E60002063282108552046FFF755FE2046FFF74E
:100E7000BFFB0146E06AC00601D4002904D0E06A45
:100E800010210843E06267E0E06A112212029043F9
:100E900002221043E062A268206A267C02437000AE
:100EA0000243FF23E0680133984208D0012806D0AE
:100EB000002067683843277E012F02D00BE01846D8
:100EC000F7E7002E1ED0E66A20273E43E662266B37
:100ED00001273E43266327687E68BC46204F3E407C
:100EE000064367467E602668B0681E4F3840104350
:100EF000B060E06898420CD001280AD0207E01281A
:100F000007D00AE0E66903277603FF02F61B3043A9
:100F1000E1E7A08A144B0005C5182068036B0F2673
:100F20003605B3432B430363206880680F4B18409A
:100F3000904207D100202063E06A80088000401CB6
:100F4000E0620AE0E06A0221884310210843E0627F
:100F5000206B01210843206301210846F8BD0000F1
:100F6000FF16FFFCFDF7E1FF0000F0FFFE0E1FFF84
:100F7000F8B5044663480E4601780125012964D07E
:100F800001210170604840680004410F5F48036818
:100F90008A005F498A581168CFB2BC46634529D19F
:100FA0004368CF01FF0DBB4224D103690904090E38
:100FB0008B421FD183689168CFB2BB421AD1C368FC
:100FC0004901490D8B4215D141691369DB03DB0BE4
:100FD00099420FD181699369DB03DB0B994209D1F7
:100FE000C369116A8FB2BB4204D1036A8900890CBC
:100FF0008B421ED0614601601168C901C90D416074
:1010000011880904090E0161117A81609168490112
:10101000490DC1601169C903C90B41619169C903D7
:10102000C90B8161118C89B2C161116A8900890C77
:1010300001627D202168C000012908D00027FF43FC
:10104000022915D0032934D056E00220F8BD044609
:10105000FFF7CAFC00284FD1FFF77CFC2046FFF7C2
:10106000C3FC05462B48416904229143416143E09A
:101070007D20C000FFF7B8FC00283DD137606768CD
:1010800010E03846FFF778FC7D20C000FFF7ACFC8D
:1010900005462048426902218A434261002D20D141
:1010A000FF370137A068616800024018B842E8D8ED
:1010B00022E07D20C000FFF797FC00281CD137609C
:1010C000E76813E03846FFF785FC7D20C000FFF796
:1010D0008BFC05460F484269C1148A434261002DCA
:1010E00001D0376008E0012040033F182069E16823
:1010F00040034018B842E5D8024800210170284654
:10110000F8BD0000780200200010024000210240DB
:10111000C455000800200240F7B53D4C0F4620782A
:1011200001285BD0012020703A4840683A49000409
:101130000D68400F8200394880580268D3B29D4242
:1011400029D14D68D601F60DB54224D10D6912049E
:10115000120E95421FD18D688268D6B2B5421AD15F
:10116000CD685201520D954215D14A690569ED03CA
:10117000ED0BAA420FD18A698569ED03ED0BAA42F6
:1011800009D1CD69026A96B2B54204D10D6A9200C6
:10119000920C95421DD00B600268D201D20D4A60BC
:1011A00002881204120E0A61027A8A608268520171
:1011B000520DCA600269D203D20B4A618269D2031E
:1011C000D20B8A61028C92B2CA61006A8000800CE4
:1011D00008623806000E03D00120FEBD0220FEBDCD
:1011E0007D25ED002846FFF7FFFB00280DD138468E
:1011F0000299FFF7D1FB2846FFF7F6FB08494A6939
:10120000520852004A610028E9D100212170FEBD38
:10121000780200200010024000210240C45500085E
:101220000020024038B501210903274C88420CD127
:1012300002F058FB00F05AF96061206903F040FCAD
:10124000009022A16369226930E0012149038842AC
:1012500005D100F04BF90346082228A114E0082824
:101260000BD001256D02A84212D103F043FB00F020
:101270003DF903462A4627A106E003F0A7FA00F04D
:1012800035F9034608222AA1002001F00DFA38BDE5
:101290000121C90388420DD100F028F9A062606ADB
:1012A00003F00EFC0090A36A626A28A1002001F0FE
:1012B000FBF938BD012189038842FAD130A1002011
:1012C00001F0F2F938BD00005400002073772020AF
:1012D0002048616E646C65722020636867203D2041
:1012E0002564207377203D202025642020676F6EC1
:1012F00065203D2025640D0A0000000050494E5F26
:101300005846554C4C202020202564202025640D73
:101310000A00000050494E5F464C4153485F494E19
:10132000202073202564202025640D0A0000000081
:1013300050494E5F464C4153485F42542020202084
:101340002564202025640D0A000000002D2D2D2D80
:1013500050494E5F494742545F4720706C75732077
:101360003D202564202069676274203D202025648B
:101370002020676F6E65203D2025640D0A00000067
:101380002D2D2D2D50494E5F465F454E2020206467
:10139000726F7020200D0A0010B50449CA6802421D
:1013A00002D0C860FFF73EFF10BD000000180240E9
:1013B000F0B5002381E001249C402A46A446224047
:1013C0007AD04C68022C01D0122C0CD1DC08A4007D
:1013D00027183C6A5D07ED0E0F26AE40B4430E6938
:1013E000AE4026433E6205685E000324B4400F7998
:1013F000A543BF07BF0FB7402F4307604D68012DBE
:1014000005D0022D03D0112D01D0122D0ED18568EB
:10141000CF68A543B7402F43876047686546AF4311
:101420000D79ED06ED0F9D403D434560C568A54330
:101430008C68B4402C43C4604C68E4003CD59D08E3
:10144000214CAD002F193C6E9D07EE0E0F25B540C7
:10145000AC4305252D07A84201D100250AE01B4D0C
:10146000A84201D1012505E0194DA84201D102256C
:1014700000E00325B5402543134C3D66124E8036EF
:1014800035684F689543FF0300D51543356075688F
:101490004F689543BF0300D51543756025684E68B6
:1014A0009543F60200D51543256065684E6895435F
:1014B000B60200D5154365605B1C0A681546DA4024
:1014C00000D078E7F0BD0000001802400004005092
:1014D000000800500069084000D001207047002A31
:1014E00001D08161704781627047000001488068C7
:1014F000704700000C00002002488168426889188B
:10150000816070470C00002010B50024204600F0D8
:1015100009F8002801D0012401E000F027F8204656
:1015200010BD000070B50F4E0024716805460029FB
:1015300015D07D20C000FEF7DBFD01460A4800689B
:10154000FEF7D6FD00F028FD002808D1042D06D2B4
:1015500000222946401EFFF74DFB356000E00124C4
:10156000204670BD0C0000200000002008B509488E
:101570000168012211430160006810400090054895
:101580004038C26B01040A43C263C06B084000903C
:1015900008BD000040100240C106C90E012088406D
:1015A000014908607047000000E100E00C4A131494
:1015B0000028106801D0184300E0984310600948E3
:1015C0000369042213430361012906D040BF20BFF1
:1015D00020BF016991430161704730BFF9E7000006
:1015E0000070004000ED00E0F0B585B00546002435
:1015F00014226F496846FEF7A5FD012676046D4A60
:10160000B1108B116B48403AB54215D1C56903261C
:101610003602076A3540BF0701D59D424ED0C069EA
:10162000800702D5E81FF93848D01068800302D53A
:10163000B54200D1604CB8E0302D60D006DC012D01
:101640001ED0022D3CD0202D19D149E0FF3DFF3D99
:10165000AD1E58D01F214902691A75D00B239B0378
:1016600099420CD14069402108401168890301D595
:10167000402859D01168890101D5002856D094E03E
:10168000426980231A4016D0036A9B0707D5C369B5
:101690009B0104D4C369DB0101D5802A0ED0C36944
:1016A0009B0707D5C3699B017FD5C069C0017CD565
:1016B000802A03D079E000F0DFF96FE00C4674E097
:1016C0004269FF2301330CE0C569AD076DD5C569DB
:1016D000AD016AD5C069C00123E09A42EED064E052
:1016E00042691A40E7D0056AAD07EDD5C569AD017D
:1016F000EAD4C569ED01E7D59A42E5D1DEE7426952
:1017000001239B02EDE7426903239B041A40D2D0D8
:10171000056AAD0703D50125AD04AA42CED0C06944
:1017200080070028D9DB40E0244C3EE0D0688107E8
:10173000D068890F0007800F801C022909D0032977
:1017400003D00498440030E00EE01C4904464C43AA
:101750002BE051680904490F042900D900218900B0
:101760006A465458444320E0106803214905084064
:1017700007D001214905884207D100F07DF984088E
:1017800013E000F079F944080FE00121890588424F
:1017900006D100F071F90621FEF7AAFC044604E028
:1017A000012802D100F068F9C408204605B0F0BD58
:1017B000B0550008401002406CDC020000366E019B
:1017C000F8B5044600680027514E524D800354D5A9
:1017D000F06BC00007D4F16BA8050143F163F16B16
:1017E0000140012700914C480168C90511D40168E6
:1017F000821511430160FFF779FE009005E0FFF7C5
:1018000075FE0099401A022824D843480068C00594
:10181000F5D5E86903210902084020D0A2690A40F1
:1018200082421CD0E869EA698843012109040A431D
:10183000EA61EA698A43EA61E861C0070FD0FFF70D
:1018400055FE009008E0FFF751FE0099411A334819
:10185000814201D90320F8BDE8698007F3D5E86922
:10186000032109028843A1690843E861002F04D0DD
:10187000F16B012000078143F1632078C00705D098
:10188000686980218843616808436861207880071F
:1018900006D56869FF2101318843A1680843686162
:1018A0002078800606D56869012149028843E168ED
:1018B0000843686120788006800F032806D1686994
:1018C00001218902884321690843686120888005D5
:1018D00006D5686903218904884361690843686102
:1018E00020688003800F032805D168694021884360
:1018F000E169084368612088400406D53068032107
:1019000049058843216A084330600020F8BD000083
:101910000010024040100240007000408813000098
:10192000F8B50F46060043D04D4D28688007800F5C
:10193000B84213D228688008800038432860FFF737
:10194000D5FD044605E0FFF7D1FD011B4548814266
:1019500061D828688007800FB842F4D13068424CC3
:1019600081070DD5400704D5A06807210903084366
:10197000A060A0680F2109028843B1680843A060F5
:101980003078C00732D0706801280AD000280BD008
:1019900002280FD03449403104280ED0096A890743
:1019A00004E02168890301E021684905002906DB7C
:1019B0000120F8BD21688901F8E7C969EFE7A1684E
:1019C000C908C9000143A160FFF790FD009006E03F
:1019D000FFF78CFD0099411A224881421BD8A0686C
:1019E000382108407168C9008842F1D12868800711
:1019F000800FB84217D91A4801688908890039430D
:101A00000160FFF773FD054607E0FFF76FFD411B1F
:101A10001448814201D90320F8BD114800688007AD
:101A2000800FB842F1D13078400706D5A068072171
:101A300009038843F1680843A06000F031F8A16809
:101A40003C2289091140094A515CC906C90EC840A7
:101A50000749086007480068FFF764FDF8BD00000B
:101A6000002002408813000000100240F4540008D7
:101A7000000000200C000020064807490068896823
:101A80001C22890A1140054A515CC906C90EC8408A
:101A9000704700000000002000100240345500088C
:101AA00010B58AB014222A4904A8FEF74BFB284B34
:101AB0006C4614330FCB0FC4264A906804AB8006E3
:101AC000400F18D090688006400F012823D09068FE
:101AD0008006400F022820D090688006410F012028
:101AE000C003042905D091688906490F032900D055
:101AF00000200AB010BD106801218004400F814011
:101B000050680004400F042800D9002080001858B5
:101B1000FEF7EEFAEDE71048EBE7D0688107D068F2
:101B2000890F0C2420406C462058022906D0032936
:101B300001D008990AE008494843DAE751680904E6
:101B4000490F042900D90021890059584843D0E79A
:101B50008C5500080010024000366E01F0B50400FC
:101B6000F94887B006C80292019103C80491039016
:101B700079D020783827C007F44D002851D0A868C4
:101B8000E96838408907890F102802D0082817D043
:101B900001E0032914D00122920461689010002909
:101BA0001DD0A1680029E3D02B699B089B000B4343
:101BB0002B61616881420AD129680143296014E0E0
:101BC000286880032DD560680028D1D029E005233E
:101BD0001B04994203D1296811432960ECE7296865
:101BE00081432960286890432860606800280CD0F1
:101BF000FFF77CFC064604E0FFF778FC801BC82852
:101C000076D828688003F7D50BE0FFF76FFC06460F
:101C100004E0FFF76BFC801BC828F1D8286880031C
:101C2000F7D42078800775D5AE68E8683E40800715
:101C3000800F102E02D0002E16D001E0022813D003
:101C40006069002855D028680721C9028843A16926
:101C5000084328602868FF21013108432860FFF706
:101C600045FC06463AE0A9E02868400502D56069CF
:101C7000002898D06868E169000C00040843686097
:101C8000FFF734FC074604E0FFF730FCC01B0228D6
:101C9000B6D828684005F7D5002E13D1286807214B
:101CA000C9028843A16908432860FFF7F9FEA968C3
:101CB0003C2289091140A64A515CC906C90EC84098
:101CC000A4490860A4480068FFF72CFC002875D1DF
:101CD00020E0FFF70BFC801B022891D82868400504
:101CE000F7D56868E169000C00040843686011E0FA
:101CF000B0E02968FF20013081432960FFF7F6FB3F
:101D0000064604E0FFF7F2FB801B022885D828680E
:101D10004005F7D42078914E00072ED5A86880069C
:101D2000400F03280AD0206A0028306A16D001210B
:101D300008433062FFF7DAFB07460BE0306A8007A2
:101D40001BD5206A002894D017E0FFF7CFFBC01BFB
:101D500002289DD8306A8007F7D50EE04008400081
:101D60003062FFF7C3FB074604E0FFF7BFFBC01B71
:101D700002286FD8306A8007F7D4207840077FD5D3
:101D8000A86800278006400F042818D0E86BC00020
:101D900008D4E96B012000070143E963E96B0140C6
:101DA000012700916E480168C90519D401688215A0
:101DB00011430160FFF79AFB05900DE077E0F069B1
:101DC00080075DD5E068002871D059E0FFF78EFBF1
:101DD0000599401A02283DD861480068C005F5D52C
:101DE000E068042300280DD022699003810F5D482C
:101DF000296915D0814311432961E068012815D074
:101E0000052818D0F06940084000F061F169994355
:101E1000F161E06800281ED0FFF768FB059015E02F
:101E200081430120400408182861E6E7F069012198
:101E30000843F061EDE7F0691843F061F6E7FFF75A
:101E400055FB0599411A484881427AD8F0698007C4
:101E5000F5D50EE075E0FFF749FB059006E0FFF7CA
:101E600045FB0599411A404881426AD8F0698007CC
:101E7000F5D4002F04D0E96B012000078143E9630A
:101E8000606A002857D0A9688906490F022976D0D0
:101E900001263606022828680AD0B0432860E86880
:101EA00080088000E860FFF721FB044663E06EE0F5
:101EB000B0432860FFF71AFB074604E0FFF716FB64
:101EC000C01B02283DD828688001F7D4E06AA16AC7
:101ED000820801AB032902D0022908D011E090004A
:101EE0001B58224A934252D803AB185807E068683F
:101EF0001F4F0004400F8000920038589A589042BB
:101F000045D3E868800880000843E860E8680C2151
:101F10008843E16A0843E860286830432860FFF797
:101F2000E5FA044604E0FFF7E1FA001B022808D8AE
:101F300028688001F7D52CE0FFF7D8FA001B0228AB
:101F400019D9032007B0F0BD7C55000800100240ED
:101F5000F4540008000000200C0000204010024053
:101F600000700040000003008813000000366E017E
:101F70005455000803E028688001DDD409E00128F9
:101F8000E0D0E868A16A8007800F884201D0012074
:101F9000D8E70020D6E70000094910B5401E884266
:101FA00001D9012010BD074C60610321081F00F01A
:101FB000E3FA0020A06107202061002010BD00008E
:101FC000FFFFFF0000E000E010B5044600680422B7
:101FD00000F0A9FC2068416C0122D2031143416446
:101FE000206881684907490F062903D0016801224A
:101FF00011430160002010BD0221024620325177BA
:102000000168086A074B184207D1086A9B101842FA
:1020100003D1086840084000086001205077002084
:10202000704700001111000010B504460068002937
:1020300011D0042904D00122002100F067FC20689F
:102040000122042100F062FC206801680122114392
:102050000160002010BD01220021F3E7F0B51F460A
:1020600087B00D460446BA4261D026462036307FFE
:10207000012814D001203077022070772868009062
:1020800068680190A8680290E86803902869059044
:1020900068690690002A05D0042A0CD107E00220C6
:1020A00007B0F0BD6946206800F04AFC03E06946CD
:1020B000206800F087FC38467027002802D00428EA
:1020C00030D111E018350ECD206800F033FD2068C6
:1020D00081690C229143816120688168B9438160E4
:1020E00020688168502211E018350ECD206800F07C
:1020F00043FD206881690322920291438161206837
:102100008168B943816020688168602211438160E1
:1021100020688168C908C90081602068816806223A
:10212000114381600120707700203077B8E70120EB
:10213000B6E770B50E46040005D025462035687F09
:10214000002802D006E0012070BD0020287720463C
:1021500000F014F802206877211D206800F098FB39
:1021600020680168082291430160206801683143BA
:10217000016001206877002070BD000000B587B0C5
:1021800014216846FDF7F7FF12480268C1140A439C
:1021900002600068084005900E484038416B0122FB
:1021A00011434163416B11400591426B02210A4387
:1021B0004263406B019108400590C8010090029174
:1021C00003910491052069460007FFF7F1F807B075
:1021D00000BD00004010024010B504460068012216
:1021E000002100F093FB01220421206800F08EFB07
:1021F00009492068884208D00849884205D0084922
:10220000884202D00749884204D1416C0122D2039E
:1022100011434164002010BD002C014000400140EA
:102220000044014000480140F8B506460446203607
:10223000307F0D4601280DD00120307702207077C5
:102240000427002A08D0042A16D0082A2AD00C2AEB
:102250004DD137E00220F8BD206800F071FB206806
:10226000816908221143816120688169B9438161D4
:10227000206881692A6912E0206800F0A3FB2068C9
:1022800082690121C9020A438261206881690122B1
:10229000920291438161206881692A691202114387
:1022A000816124E0206800F0CDFB2068C26908212C
:1022B0000A43C2612068C169B943C1612068C1692C
:1022C0002A6912E0206800F0FFFB2068C169012242
:1022D000D2021143C1612068C269012189028A4387
:1022E000C2612068C1692A6912021143C1610120DB
:1022F000707700203077F8BD70B5040005D0254612
:102300002035687F002802D006E0012070BD002043
:102310002877204600F00AF802206877211D2068FF
:1023200000F0B6FA01206877002070BD10B586B0C5
:1023300014216846FDF71FFF1348C26B02210A43B0
:10234000C263C26B0A400592426B0124224342637E
:10235000426B22400592426B0A434263406B0191FB
:1023600008400590802003910491009002946946F2
:102370000648FFF71DF80B200490694600940448B6
:10238000FFF716F806B010BD001002400004005020
:102390000014005010B504460068012200F0B6FA9F
:1023A0000E482168814208D00D48814205D00D4871
:1023B000814202D00C48814204D1486C0122D203F0
:1023C00010434864206881684907490F062903D0F3
:1023D0000168012211430160002010BD002C014062
:1023E000004001400044014000480140FEE710B5B4
:1023F0000024012000F09AF807E0641CA4B2052C28
:1024000003D900F07EF8012010BD00F021F800286B
:10241000F3D100F08BF8002010BD000010B5074C80
:10242000012311221021204601F0A0FC01231122DA
:102430002021204601F09AFC10BD0000000400504D
:1024400010B520210148FFF745F810BD00040050E9
:1024500010B5012000F07CF8FFF7F2FF10BD70B559
:102460000025012000F074F800248026012000F0EF
:102470005DF8FFF7E5FF012802D13046E040054353
:10248000002000F053F8641CE4B2082CEED3284678
:1024900070BD10B500F05CF8012000F047F828206E
:1024A000FEF7E1F9002000F041F810BD70B50646D6
:1024B000002000F03BF8002480252846E040304012
:1024C00000F046F8012000F031F8002000F02EF86E
:1024D000641CE4B2082CF0D370BD10B5012000F0EC
:1024E00037F8012000F022F80420FEF7BCF90020A4
:1024F00000F02EF8002000F019F80420FEF7B3F9E0
:1025000010BD10B5002000F023F8002000F00EF8F8
:102510000420FEF7A8F9012000F008F8012000F0DF
:1025200017F80420FEF79FF910BD000010B5074B07
:10253000002808D0012210211846FEF7D0FF0A20FB
:10254000FEF791F910BD0022F5E7000000040050ED
:1025500010B5074B002808D0012220211846FEF7AD
:10256000BEFF0A20FEF77FF910BD0022F5E700004C
:1025700000040050704700008307FF22DB0E9A40E2
:102580008907090E994000280BDA0007000F083868
:10259000830808489B001818C36993430B43C36121
:1025A0007047830804489B001B1818689043084331
:1025B0001860704700ED00E000E400E0BFF34F8FCB
:1025C00004490348C860BFF34F8F00BFFDE7000018
:1025D0000400FA0500ED00E07047000010B500218E
:1025E000192002F04FFF09491B2002F04BFF084958
:1025F0001C2002F047FF07491D2002F043FF012184
:10260000C9031E2002F03EFF10BD000003040000BD
:102610002F0F000002030000F8B507460A481546D0
:1026200000780E46002801D100F07EFBEFF3108405
:10263000012080F310882A463146384600F006F81B
:10264000E1B281F31088F8BD2004002070B50E4679
:1026500018214843134914464518E86A18350028DC
:1026600004D001280FD0022805D113E0284600F03D
:1026700093FBA04201D2002411E0224631462846B5
:1026800000F0B5FC0BE0284600F086FBA042F4D237
:102690000446F2E73146284600F079FC044620461D
:1026A00070BD0000200400200FB408B504A90091FB
:1026B0006A46039900F004F801B008BC04B018475A
:1026C000F7B598B007A80290402000250495039024
:1026D00018980C46059506902178641C002977D03F
:1026E000252907D002A800F033FC05980028F3DA6A
:1026F0001BB0F0BD012200210227134608262078D6
:1027000023281BD02B2816D02D2802D0302806D104
:1027100001E0194300E03943641C002AEFD1002294
:1027200020780346303B0A2B0AD20A235A43121858
:10273000303A641CF4E704200143EDE73143EBE752
:102740000023C7B22E2F0AD1641C20780746303FE1
:102750000A2F04D20A277B431B18303BF4E76C286E
:102760000DD068280BD0702852D00BDC25285AD009
:1027700058282ED063280CD0642858D110E06078F7
:10278000641CECE7732832D0752817D078284ED116
:102790001FE01A981A9A0068011D1160017843E041
:1027A0001A981A9F0068061D3E6000680191009209
:1027B00001460A2202A800F0FAFA38E01A981A9F95
:1027C0000068061D3E600068009201910A2209E03F
:1027D0002FE01A981A9F0068061D3E60006800925C
:1027E00001911022014602A800F046FB1FE01A9852
:1027F0001A9A0068011D116006683178761C00295C
:1028000015D002A800F0A4FB05980028F5DA0EE028
:102810001A981A9A00680823011D11600168102295
:1028200000960195DFE7252102A800F091FB641CCA
:102830005BE70598002800DC5AE70498002804D0DC
:10284000024607A91898FFF7E7FE04990598401873
:1028500005904DE7704710B5FEF74EFE10BD000025
:1028600007484168074A490E128949061204114374
:10287000054A9268114341600449C003886070476B
:10288000001002404033FF1F0032FF1F00ED00E048
:1028900030B50268184B194C984201D0A04203D1C0
:1028A0007025AA434D682A4398420AD0A04208D016
:1028B000134DA84205D0134DA84202D0124DA84294
:1028C00004D103252D02AA43CD682A438025AA43BB
:1028D0004D692A4302608A68C2620A68826298422D
:1028E00005D001229207904201D0A04201D109698E
:1028F00001630121416130BD002C01400004004012
:1029000000200040004401400048014010B5CB06C3
:10291000DB0E0121046A99408C430462016A9A40EB
:102920001143016210BD10B5CB06DB0E0421046A11
:1029300099408C430462016A9A401143016210BDC0
:10294000F0B5026A520852000262056A4368826961
:102950007024A24392080C6892001443022295430B
:102960008A68154E2A43134DA84204D0B04202D0C3
:10297000124FB84206D10827BA43CF681743042242
:1029800097433A46A84207D00D4DA84204D0B04222
:1029900002D00A4DA84206D103252D02AB434D6952
:1029A0001D438B692B434360846149684163026224
:1029B000F0BD0000002C01400044014000480140EF
:1029C0000040014070B5026A10239A430262056A12
:1029D0004268836973242402A3430C6824021C43C5
:1029E00020239D438B681B012B43124DA84208D125
:1029F0001D46CB688026B5431B012B434025AB43C6
:102A000008E00D4DA84205D00C4DA84202D00C4D57
:102A1000A84208D10325AD02AA434D69AD00154374
:102A20008A6992002A434260846149688163036233
:102A300070BD0000002C01400040014000440140F6
:102A40000048014070B5026AFF2301339A430262D5
:102A5000056A4368C2697024A24392080C68920018
:102A600014430122520295438A6812022A43124DEE
:102A7000A84208D11546CA68C614B54312022A43B3
:102A80000515AA4308E00D4DA84205D00C4DA842FB
:102A900002D00C4DA84208D103252D03AB434D694C
:102AA0002D011D438B691B012B434360C4614968A1
:102AB000C163026270BD0000002C01400040014073
:102AC000004401400048014030B5026A01231B0365
:102AD0009A430262046A4268C36973252D02AB43BC
:102AE0000D682D021D4301235B039C438B681B0370
:102AF00023430C4CA04208D00B4CA04205D00B4CF9
:102B0000A04202D00A4CA04205D10124A403A24352
:102B10004C69A40122434260C561496801640362B3
:102B200030BD0000002C0140004001400044014045
:102B30000048014070B5046A640864000462846956
:102B4000056A0B4EB04202D00A4EB04202D1A40830
:102B5000A40000E001221443F02294431A07120E4D
:102B60000A2322439D43194029438261016270BDBB
:102B7000002C01400004004070B5046A1025AC43ED
:102B800004628569046A03263602B54312022A43A9
:102B90000F252D031B071B0CAA431343A022090179
:102BA0009443114021438361016270BDF0B5594CDB
:102BB00089B02079A57961790291A17B400701262E
:102BC0000891002811DAFF2181315348FDF7D3FA2B
:102BD00051494020486002F003FAA672002060725A
:102BE0004E490870012001F0E7FDA77A2F40F80751
:102BF00005D00020A07300F04BFA7F087F0001256C
:102C00002CE03046A8403842079025D0A573607D5F
:102C1000400703D5607DFB210840607514202946DC
:102C200041433D480818028D436B016B93421CD908
:102C300089188C460163816B891881639B1A4363F1
:102C40001AD0934200D21A4692B26146284600F04A
:102C500025FB6675079887436D1CEDB2002FD0D118
:102C6000677A0298074001254EE0C9180163816B1D
:102C7000C918816300214163816B2846802210437B
:102C800002F048F9E6E73046A8403842019039D0D2
:102C9000A573607EC00733D0A08B03902946142013
:102CA00041431D48039A0818059080300690016D35
:102CB000284600F0E3FA607E4008400060760698FF
:102CC000016D03980918069801650698816D0398AF
:102CD0000918069881650698426D0398121A06989D
:102CE00042650598C03003890398834201D8002AC1
:102CF00006D1607A019A90436072284602F03CF94E
:102D0000019887436D1CEDB2002FBCD10898A073C9
:102D100009B0F0BD005C0040A002002028000020A7
:102D200010B5FFF743FF10BD10B5124C0320206112
:102D3000606111A0A0611348E0610120800220625F
:102D40000020A0620CA222660121E16260620E4AAC
:102D5000626610222067A266E06661670BA1E01D33
:102D6000FDF714FA0AA12046FDF710FA2020A07101
:102D700010BD0000200400205465726D696E616C06
:102D80000000000008060020080A002052545400E9
:102D900053454747455200000269C1688A4203D83B
:102DA0008068401A801800E0501A401E7047FFB536
:102DB00083B00E4670420D9F0C9C0090002900DBF2
:102DC0000846012502E0FDF7A9F96D1C0599884226
:102DD000F9DA0698A84200D90546002C04D0002E46
:102DE00001DB780700D5641EB80702D506980028D5
:102DF00010D0F8070ED1002C0CD0A5420AD2202109
:102E0000641E039800F0A4F80398C0680028F2DA62
:102E100007B0F0BD0398C0680028F9DB002E02DA85
:102E20002D21009E02E0780707D52B21039800F0A2
:102E30008FF80398C0680028EADBB807800F0228E3
:102E400010D1069800280DD1002C0BD0A54209D234
:102E50003021641E039800F07BF80398C0680028B6
:102E6000F2DAD5E7019700943146069B059A03985C
:102E700000F002F8CCE70000FFB581B001261F4644
:102E800034460A9D029802E0FDF732F9641C03996A
:102E90008842F9D2A74200D93C460B98C00718D106
:102EA000002D16D00B98800701D5002F02D02020CE
:102EB00000900CE03020FBE76D1E0099019800F0B7
:102EC00047F80198C06800283DDB002D01D0AC42D6
:102ED000F2D30198C068002835DB012F01D97F1E8D
:102EE00006E031460298FDF703F90399884202D3C0
:102EF00003984643F1E7154F31460298FDF7F8F87D
:102F00000146029A7143511A0291395C019800F00E
:102F10001FF80198C068002805DB30460399FDF7CB
:102F2000E7F80600E8D10B98C0070CD0002D0AD0B6
:102F3000AC4208D220216D1E019800F009F80198DA
:102F4000C0680028F2DA05B0F0BD0000E4550008C2
:102F500010B5044680686368421C934205D3236819
:102F60001954A260E068401CE060A2686068824278
:102F700009D121682069FFF74FFBA168884203D07F
:102F80000020C043E06010BD0020A06010BDF7B578
:102F9000064682B000200090F46817463069A042CF
:102FA00001D9051B02E0B168201A0D1AB0686D1E28
:102FB000001BA84200D80546BD4200D33D467068BC
:102FC0002A4600190399FDF7BDF800987F1B4019A8
:102FD00000900398641940190390B068A04200D192
:102FE0000024F460002FD9D1009805B0F0BDF7B5EA
:102FF0000446C7688068E168C51B606816464018CB
:10300000B54205D90199FDF79DF8B819E060FEBDFC
:103010002A460199FDF796F80198761B4119324628
:103020006068FDF78FF8E660FEBD2021020C01D03C
:1030300010211046020A01D010460839020901D0B9
:103040001046091F820801D01046891E420801D08F
:10305000881E7047081A704730B47446641E25787D
:10306000641CAB4200D21D46635D5B00E31830BCBC
:10307000184702E008C8121F08C1002AFAD1704799
:103080007047002001E001C1121F002AFBD17047E8
:10309000F8B5384C207C00214207374E002A05DA6B
:1030A000207CFB22104020743170F8BDC20601D58F
:1030B00080222274314D2A78002A02D02A78227088
:1030C000297032781300FFF7C7FF07061E0531513C
:1030D00005510500E9E7C007E7D0607C0828E4D186
:1030E0002649082220310E46002000F0C7F8E88C5F
:1030F000002802D04022227401E04820207430468B
:1031000001F09CFEF8BD1D482B8D6A6B806B9A42C6
:1031100004D9C018A863D01A686302E080186963F4
:10312000A863A96B802001F0F5FEF8BDC007FCD0B4
:10313000677C124D3A4680350020296D00F09EF8DC
:10314000286DC0192865A86DC11928464030A965A9
:103150000089B84207D9002001F00EFF48202074F2
:1031600004203070F8BD40202074F8BD317000217B
:10317000D8E70000005C004028000020A0020020EA
:103180000248407F002800D00120704758020020EC
:103190000CA10020FFF788FA00F094F9FDF7EAFA95
:1031A000FEF7B2F900210846FDF716FBFDF7B2FA6B
:1031B00010A10020FFF778FA00F098FE01F078F8EF
:1031C000FCE700000D0A6D61696E20207374617266
:1031D0007432202D2D2D2D2D2D2D2D2D2D2D2D2DE0
:1031E0002D2D2D2D2D2D2D2D2D2D2D2D2D2D2D0D2F
:1031F0000A0000000D0A31312D31392064200941C7
:103200005050204D4F4445200D0A2000F8B51D4672
:1032100016460746002903D00A4609A1FFF744FADB
:10322000002405E0325D0AA13846FFF73DFA641C30
:10323000AC42F7D308A13846FFF736FAF8BD0000D4
:103240000D0A257320204C454E3D25640A000000E0
:1032500020257820000000000D0A00000346012010
:10326000C200934201D80A807047401CC0B20828AF
:10327000F6D900200880012070470000064B80002E
:10328000C018002A06D003780B70491C521E120485
:10329000120CF8D170470000205C0040064B800003
:1032A000C018002A06D00B78491C521E1204037065
:1032B000120CF8D170470000205C004010B502F0FD
:1032C000C7F8FFF70AF90F4C012120780843FFF7F0
:1032D000EDF8FFF78CF8002809D0FFF712F90AA1E2
:1032E0000020FFF7E1F90020C043606010BDFFF748
:1032F000B6F860600120FFF7CCF8FFF702F9002074
:1033000010BD0000380000207265616449703533DB
:10331000303652656769737465723A6572726F729E
:10332000200D0A00F8B5014640310124CDB200213C
:10333000C207920F1219491C4008C9B2D4B204291D
:10334000F6D3FFF7CAF81A4E3078FFF7AFF8FFF759
:103350004EF800280FD12846FFF7A8F8FFF747F8E6
:10336000FFF7BBF8307801210843FFF79FF8FFF71C
:103370003EF8002803D0FFF7C4F80120F8BD00256F
:103380000C4F661E0EE0B54204D1FFF768F8785581
:10339000012003E0FFF763F878550020FFF779F884
:1033A0006D1CEDB2A542EED3FFF7ABF83878F8BD4F
:1033B0004000002098050020F8B5502269460A70A8
:1033C00080004870FFF789F8184D2878FFF76EF8ED
:1033D000FFF70DF800246E46305DFFF767F8FFF742
:1033E00006F8641CE4B2022CF6D3FFF776F82878CE
:1033F00001210843FFF75AF8FEF7F9FFFFF72FF80E
:103400000A4C083420700020FFF743F8FFF727F834
:1034100060700020FFF73DF8FFF721F8A070012051
:10342000FFF737F8FFF76DF80020F8BD40000020E7
:1034300070B50E460B46024614A10020FFF734F982
:10344000FFF74BF81B4D2878FFF730F8FEF7CFFF5A
:103450000024E44300280CD1FFF728F8FEF7C7FF4B
:10346000002806D13046FFF721F8FEF7C0FF0028FC
:1034700008D0FFF746F810A100206C60FFF714F9A0
:10348000204670BDFFF73DF8002070BD736574499C
:1034900070353330365265676973746572206164C4
:1034A000643D2578202076616C7565203D20257867
:1034B000200D0A003800002072657475726E202D90
:1034C000310D0A000548C1690902090AC1610448B1
:1034D00001690222114301617047000004ED00E020
:1034E00000E000E0F0B593B00024009401942421A2
:1034F00008A80294FCF73FFE2B48026841150A43D6
:103500000260006808401190142103A8FCF733FE04
:1035100025484038416B022631434163406B052703
:1035200030401190032001253F07049003A9039523
:1035300005943846FDF73CFF03A938460396FDF78E
:1035400037FF002211460C20FDF754FB0C20FEF73C
:1035500023F8A8030890C001109008A8FEF730F9DE
:103560001249134812C0046044600472C5600474B8
:1035700007214904456181610838FDF765FC009425
:103580000424019569460A480294FDF739FB69460F
:103590000748019600950294FDF732FB0448FDF7B9
:1035A0003DFA13B0F0BD000040100240002401407D
:1035B000C80400200EB50021009101910291012163
:1035C000002800D000910420019102906946024831
:1035D000FDF716FB0EBD0000C804002070B50546BF
:1035E0001849174808607D200024C0000C61C8609D
:1035F0008C6004228C614A6048610846FEF77CFEBC
:10360000002801D0FDF75AF80E49602080318C6007
:103610000C61CC608C614C6121C1002208390948E1
:10362000FEF702FE002801D0FDF748F8002105480A
:10363000FEF7CAFC002801D0FDF740F870BD00007D
:1036400000480140FC040020F8B5FDF74FFF7D263F
:10365000F60007463146FCF761FD204D0C46286D0B
:1036600001F02EFA05282CDD0A213846FCF756FD1C
:10367000002926D1FDF73AFF2865E86A0300FFF725
:10368000EBFC060C040404211D20012001F018FAB3
:103690001349884201DD002011E012493846FCF749
:1036A0003DFDE86AFF22F532401C50438142F2DAC8
:1036B00011463846FCF732FDFA29ECDB304601F0C2
:1036C00063F8F8BD7D2109013846FCF727FDB142BA
:1036D00000DB341B20460A30F1E7000054000020D4
:1036E0001027000088130000F8B5364F2021384617
:1036F000FDF7F0FE0100344C34480DD00022214685
:10370000FDF7EDFE002240213846FDF7E8FE30A12E
:103710000020FEF7C9FFF8BD012149020546FDF76B
:10372000D9FE0126B60200282ED031462846FDF7E4
:10373000D1FE002828D0F1002C48FDF7CBFE002850
:1037400008D0012240213846FDF7C9FE002221465B
:10375000284607E0012221462846FDF7C0FE002248
:1037600040213846FDF7BBFE214C206901F0A8F945
:10377000204988420FDDFDF7B9FE2061FDF7B6FE56
:1037800003461DA1226916E0012221462846FDF7C5
:10379000A6FE0122E4E731462846FDF79BFE0028FD
:1037A000B9D1206901F08CF90528B4DDFDF79EFE42
:1037B0002269034617A10020FEF776FF00F014FEF1
:1037C000F8BD000000140050008000000000005010
:1037D00049535F484947485F5357495443485F44FA
:1037E000454320203D3D2031200D0A0000040050BB
:1037F00054000020881300007367644D616B6543BB
:1038000048475269736520202564202025640D0AED
:10381000000000007367644D616B6543484752695F
:103820007365206C6F772D2D2D2D2D2D2D2D2D2099
:103830002564202025640D0A0000000008B52848F2
:10384000416B012211434163416B11400091426B76
:1038500002210A434263426B0A400092436B0422F6
:1038600013434363436B13400093436B2022134382
:103870004363436B13400093836B8215134383634D
:10388000836B13400093C26B0A43C263C06B084052
:103890000090134840300268C1140A430260026875
:1038A0000A400092026809010A43026002680A4065
:1038B00000920268C9000A43026002680A4000924E
:1038C000026881140A43026002680A40009202689A
:1038D00041150A43026000680840009008BD0000DE
:1038E000001002400B4B10B50C330A48196E094901
:1038F00080310C6894430C604C6894434C600168C0
:1039000091430160416891434160186E00090001D4
:10391000186610BD0018024000B585B01421684635
:10392000FCF729FC02200390054801900120029039
:103930000003009069460348FDF73AFD05B000BD5D
:10394000000011100004005010B51CA10020FEF76B
:10395000ABFE1F48416A012211434162426A0221C3
:103960000A434262426A04231A434262426A2023A3
:103970001A434262826B83159A438263C26A0A4386
:10398000C262016BC21411430163016B1201114346
:103990000163016BD20011430163016B8214114377
:1039A0000163016B42151143016300210846FDF7D5
:1039B000FDFD40BF20BF20BF10BD00000D73676438
:1039C000456E74657253746F702020200D0A0000DC
:1039D00000100240F8B5254C08212046FDF77AFD7D
:1039E000002841D1FF25013529462046FDF772FD0B
:1039F000002839D1FDF77AFD02461DA10020FEF70F
:103A000053FE660105273F070DE0FDF76FFDC82156
:103A1000FCF76EFB642901DD012200E00022314643
:103A20003846FDF75CFD08212046FDF753FD0028D0
:103A300005D129462046FDF74DFD0028E5D0FDF7CC
:103A400055FD134988420FD900F07AFE0022314615
:103A50003846FDF744FDFDF749FD02460DA1002063
:103A6000FEF722FE01F00CF8F8BD00000004005043
:103A7000736764466163746F7279496E697420205C
:103A8000207469636B20203D2025640D0A0000002E
:103A9000B80B000073676452657365745A65726F82
:103AA000416E676C652020207469636B20203D2087
:103AB00025640D0A0000000002480349408848437D
:103AC000000B70472C0000205C12000002480349E4
:103AD00000884843000B70472C0000205C12000057
:103AE00010B502480069FCF747FC10BD40000020FB
:103AF0000248034900884843000B70472C0000200F
:103B0000FC120000F0B5544C8BB0206B00F0D8FFD5
:103B100032287DDDFDF7EAFC0126504D7603206357
:103B200031462846FDF7D6FC002801D100F08CFD77
:103B3000FFF7CCFFFFF7CAFFE1210901884202DD50
:103B4000FDF7D4FCA06100F095FD00F0BBFD444FF3
:103B500020213846FDF7BEFC00280FD00020606011
:103B600000F0D2F8607031463E48FDF7B3FC002803
:103B700000D001202062002802D003E00120EEE7FF
:103B80000020E061012149022846FDF7A3FC00283E
:103B900059D0FF2101312846FDF79CFC002854D064
:103BA000032020706178606C884207D1E16C206A44
:103BB000884203D12078A16C88424BD0202138461E
:103BC000FDF788FC049031462846FDF783FC064645
:103BD000012149022846FDF77DFCFF2102900131B9
:103BE0002846FDF777FC0546E06800F069FF009085
:103BF000FFF762FF0746FFF769FFE3690299024694
:103C0000049805910696089307900099E06A00E0F1
:103C100020E00092019702AA23C201236278124990
:103C20000020FEF741FDFDF761FCE0606078606414
:103C3000216AE1642178A164072808D2064980003E
:103C40006431085804E00120ABE70220A9E70748E7
:103C500000F0C2FC0BB0F0BD540000200004005086
:103C6000001400500008005054560008B80B000023
:103C700070B500252846FFF721FB00F067F8194CC6
:103C8000002806D06168C8061CD5EF20014061609D
:103C900015E020793726800700280ADB12A10020D2
:103CA000FEF702FD60683043C1B260600020FFF79C
:103CB000BFFB6068C10605D43043C1B2606000201C
:103CC000FFF7B6FB7020FFF7F9FA2079000700D55F
:103CD00001257120FFF7F2FA2079000700D5AD1C0D
:103CE000284670BD38000020697035333036526583
:103CF000616452657320262030783032203D3D20AB
:103D000030200D0A0000000070B50D4DE868FCF78A
:103D10001DFB04460B492869FCF741FA2146FCF7D4
:103D20008FFA0949FCF73BFAFCF726FBFF216931C2
:103D3000FCF7F4F908461721FCF7F0F970BD000014
:103D4000400000200000B443000030410148C06939
:103D500070470000540000200148C0687047000010
:103D60004000002010B5FEF759FB10BD00B585B02E
:103D7000009102210391029301926946FDF718FB1D
:103D800005B000BDF8B50123052424071A46D90360
:103D90002046FFF7EBFF394D01231A464021284604
:103DA000FFF7E4FF364E0223002240213046FFF7A2
:103DB000DDFF0123002219033046FFF7D7FF01235F
:103DC000002208213046FFF7D1FF012300225902CB
:103DD0002846FFF7CBFF01231A4699033046FFF729
:103DE000C5FF01235F03002239462648FFF7BEFFC7
:103DF0000123002220212846FFF7B8FF01230022DB
:103E000019023046FFF7B2FF012300225902304663
:103E1000FFF7ACFF0123002239463046FFF7A6FF2B
:103E200019A10020FEF740FC01239E021A463146EC
:103E30002046FFF79BFF01231A4659022046FFF751
:103E400095FF012251022046FDF749FB01231A4646
:103E500019462846FFF78AFF012240212846FDF730
:103E60003EFB002231462046FDF739FB01231A466E
:103E700010212846FFF77AFFF8BD0000001400501B
:103E8000000400500008005020200D0A000000002F
:103E900010B5124C606B00F013FE64280EDDFDF7C8
:103EA00025FB6063FFF708FE0D49884207DDFFF739
:103EB00003FE0C49884202DA00F082FD10BD00F0DA
:103EC000C1F90028FAD0FFF7F7FD024606490020A5
:103ED000FEF7EAFB00F078F910BD00005400002066
:103EE00014050000A4060000F056000810B53AA121
:103EF0000020FEF7D9FBFFF7A1FC0A20FCF7A6FC87
:103F00003AA10020FEF7D0FBFFF7DCFA0A20FCF70D
:103F10009DFC3CA10020FEF7C7FB19204001FFF7E4
:103F20005DFB40A10020FEF7BFFBFFF72BFF42A186
:103F30000020FEF7B9FBFFF7D5FA45A10020FEF7F8
:103F4000B3FB00F041F947A10020FEF7ADFB00F004
:103F500073FB4BA10020FEF7A7FB00F03DFD4FA136
:103F60000020FEF7A1FBFFF7FDFE50A10020FEF7A9
:103F70009BFB00F029F900F06DF96420FCF766FC6A
:103F80004EA10020FEF790FB534800F025FB53A103
:103F90000020FEF789FBFFF71DFD57A10020FEF76B
:103FA00083FB00F039FA0A20FCF750FC00F01CFA01
:103FB00000F0C4F857A10020FEF776FB01231A4653
:103FC00099035848FFF7D2FE57496420C86057A1AB
:103FD0000020FEF769FB10BD736764496E697420A9
:103FE000202073746172740D0A00000073676431DD
:103FF0006D73436F6E6669672020207374617274FD
:104000000D0A0000736764426174746572794C65CF
:1040100064436F6E666967652020207374617274F3
:104020000D0A0000736764494F496E6974202020AF
:1040300073746172740D0A00736764414443496E7E
:10404000697420202073746172740D0A00000000EE
:10405000353330364B657920202073746172740DCE
:104060000A0000007367644F70656E3556506F77B5
:10407000657220202073746172740D0A00000000C4
:10408000736764576169743556526561647920209D
:104090002073746172740D0A0000000049324320DD
:1040A000202073746172740D0A00000069666465F3
:1040B000662046554755200D0A0000007367644F7F
:1040C0006E6550756C7365436F6E6669672020205E
:1040D00073746172740D0A00B80B00007367644654
:1040E0006163746F7279496E697420202073746102
:1040F00072740D0A000000007367644E6F416E67B2
:104100006C65496E666F20202073746172740D0AAD
:1041100000000000736764496E697420656E642056
:104120000D0A000000040050540000207367644929
:104130006E6974202020656E640D0A0030B587B06A
:1041400014216846FCF717F81A48416B02242143F2
:104150004163406B194D20400590174801900120A4
:10416000029008200090039469462846FDF720F944
:104170002002009069461248FDF71AF91148019093
:10418000A0030090029469462846FDF711F9072024
:10419000FDF702FA002211460720FCF72BFD06204E
:1041A000FDF7FAF9002211460620FCF723FD07B0BF
:1041B00030BD00000010024000002110000400503B
:1041C000001400500000111010B51A4901200860B9
:1041D0001A48194901601A49C16000240461490163
:1041E000846041607D21C90084614161FEF784F8EB
:1041F000002801D0FCF762FA10486021403084604A
:104200000461C460846144610160C8214160014669
:1042100000224038FEF708F8002801D0FCF74EFADB
:1042200000210648FEF7B6F8002801D0FCF746FA50
:1042300010BD000034000020002000403C0500209C
:10424000DC05000002480068012800D0002070470B
:104250003400002010B500F013FCFEF7DFF80A2050
:10426000FCF7F4FAFCF74AFB0A20FCF7EFFA0D2002
:10427000FFF7A2F80A48417880780902081882B24C
:10428000074808A10838C2800020FEF70DFAFEF7A3
:10429000A5F90620FCF7EEFA0A20FCF7D7FA10BDC4
:1042A000480000200A20444944202578090A0000DB
:1042B000F8B5012205249702240739462046FDF768
:1042C0000EF9FFF71FFC20213148FDF703F9FD002F
:1042D000304E002823D00022A9002046FDF7FFF829
:1042E000002240212A48FDF7FAF8002239462046EC
:1042F000FDF7F5F829463046FDF7ECF8002807D021
:10430000012251022046FDF7EAF8FFF79DF9F8BDBA
:104310000121002249022046FDF7E1F8F8BD012203
:1043200091031D48FDF7DBF8012251022046FDF7FD
:10433000D6F8FFF7ADFDFFF7D7F9FFF785F9294666
:104340003046FDF7C7F87D25144CED0000280ED14E
:10435000E06800F0B5FB1249884208DD11A1002099
:10436000FEF7A2F92846FCF771FAFFF7EDFAA0690B
:1043700000F0A6FB13498842D0DD13A10020FEF710
:1043800093F92846FCF762FAFFF7DEFAF8BD000061
:104390000014005000080050000400505400002099
:1043A000A0BB0D00757365724F70657261746554C2
:1043B00069636B2020736764456E74657253746F14
:1043C000700D0A00204E00005F626174746572799E
:1043D0004C6F775469636B2020736764456E746516
:1043E0007253746F700D0A0070B5FFF795FAFDF700
:1043F0007DF80849012448610525A4022D07002203
:1044000021462846FDF76BF8012221462846FDF794
:1044100066F870BD54000020F0B589B00020012678
:10442000079000F02DFBFFF797FC401C7ED15F4FFB
:104430005F4CFDF75BF8C821FBF75AFE0D462021C3
:104440003846FDF747F8002806D001210520002254
:1044500049020007FDF743F8642D01DD012200E069
:10446000002240213846FDF73AF8304600F028FB9C
:104470006428DEDDFDF73AF8064600F0FBF8FFF7AA
:104480002FFB0146FF3967392DD000282BD0FFF7CD
:1044900027FBFF216931FBF741FE0D46FDF726F8AA
:1044A000226EA16D0696531AFF336933049303926B
:1044B0000590636DE06D0291C21A019200902A4648
:1044C0003C490020FEF7F0F8E06D854200DDE5652F
:1044D000606D854200DA6565DC2D0CDDA06D8542DE
:1044E0000FDAA5650DE0FDF701F8024632A10020C4
:1044F000FEF7DAF89DE7DC2D03DA206E854200DD59
:104500002566E16D606D091A8B390B2920D20146B1
:10451000FF396A391CD001200790FCF7E7FF226EB3
:10452000A16D0696531AFF33693300E037E0049318
:1045300003920590636DE06D0291C21A01920090A2
:104540002A4623490020FEF7AFF8606D00F0FEF820
:10455000226EA16D501AFF306930962821DA002AA8
:104560001FD08A281DDD0846FF386A3819D0FCF7AD
:10457000BDFFA26D216E06968B1AFF33693304933B
:1045800003910590636DE06D6F46C11A07C72A4617
:1045900010490020FEF788F8A06D00F0D7F809B0A8
:1045A000F0BD07980028A5D0F9E7000000140050DE
:1045B0005400002050580008636F6E74696E756572
:1045C000207469636B203D2025640D0A0000000003
:1045D00090570008F057000810B51649144A0A60B1
:1045E000C86000240C618C604C612F208C61486095
:1045F00008211048FDF79DFD002801D0FCF75EF86A
:104600000C48702140308460016001214160846168
:104610000462C46004614461C16101460423002254
:104620004038FDF71BFD002801D0FCF747F810BD0E
:10463000002C0140A405002010B5012205205102E4
:104640000007FCF74CFF10BD10B508484168002971
:1046500008D0002141600846FEF7ACFF0448FCF793
:104660005BFA10BD012141600846F5E72C000020EF
:10467000C804002070B5104C002060800620FEF7B2
:1046800051FE0E4E757865802846FBF767FE0022C6
:104690000B4BFBF7DDFD0722D243FBF741FEFBF797
:1046A00084FE2061F078317900024018A080FF2D4F
:1046B00001D1FFF7CFFD70BD40000020980500201C
:1046C0000080764010B51B4C206C00F0F9F90A28E8
:1046D0002EDDFCF70BFF2064E06B00F0F1F9FF2109
:1046E000F531884224DDFCF701FFE063FFF7C0FAF3
:1046F000032808D0012808D0FFF7FAF90E498842AC
:1047000005DD032013E0052011E004200FE0FFF792
:10471000EFF97D214901884201DD022007E0FFF722
:10472000E7F90649884201DD012000E00020E0624F
:1047300010BD00005400002004100000D80E00003E
:1047400010B50020C04300F001F810BD10B50C49B1
:10475000C860FCF73BFA0B4C01212046FBF7B0FF89
:10476000074A21460C320120FCF7D6FC0446FCF730
:104770001FFA002C01D0002010BD012010BD000048
:104780004000002000F0000810B50A4900224860EF
:1047900008468038FDF748FD002801D0FBF78EFF62
:1047A000044800218038FDF70FFC002801D0FBF7FA
:1047B00085FF10BD7C05002010B5034CE061FCF7BF
:1047C00095FEE06010BD000054000020F8B5FCF735
:1047D0008DFE2A4CE060FFF76FF9024628A1002009
:1047E000FDF762FFFFF768F92B49884205DDFFF707
:1047F00063F919218901884207DBFFF75DF9024659
:104800001FA10020FDF750FFF8BD244D20212846B0
:10481000FCF760FE01277F03214E002805D13946B1
:104820003046FCF757FE002817D03946344630464C
:10483000FCF750FE0646012189032046FCF74AFE9C
:10484000044620212846FCF745FE0246234615492A
:1048500000200096FDF728FFF8BDFCF747FE6062D8
:1048600000F022F8FCF742FE206101210520002221
:1048700089020007FCF733FEF8BD00005400002059
:10488000766F6C20746F6F206C6F772076203D20E0
:104890002025640D0A0000001405000000140050DB
:1048A000000400504857000810B500210848FDF7E3
:1048B00093FC002801D0FBF701FF054805A1C26861
:1048C0000020FDF7F1FE00210148FDF7ADFB10BD12
:1048D000A405002073676453746172744F6E655051
:1048E0006C75736520506572696F64203D25640D99
:1048F0000A20000038B5FCF7F9FD124C0090227830
:1049000011A10020A368FDF7CFFE2078012802D076
:10491000022803D012E0FFF759FF0FE0A06800F073
:10492000CFF87D210901884208DAFCF7DFFD034654
:1049300013A10020A268FDF7B7FEECE7FCF7D6FD57
:10494000A06038BD540000207367645374617274B2
:1049500053466C6173682D2D2D2D2D2D2D2D2D2D54
:104960002D2D2D2D2D2D2D2D20734D6F6465202087
:104970003D202520202564202025640D0A0000000C
:10498000736764537461727453466C617368202A50
:104990002A2A2A2A2A2A2A2A2A2A2A2A2A2A2A2A77
:1049A0002A2A2A2A2A2A2A2020666C6173685469D6
:1049B000636B203D202564202025640D0A00000043
:1049C00010B50349002008600248FDF715FB10BD33
:1049D000340000203C050020F8B5184F184D194E42
:1049E0001CE0FFF731FEFCF781FD0446FFF764F899
:1049F0000246234614A10020FDF756FE1420FBF7C3
:104A000025FF20213846FCF765FD002806D001214E
:104A10000520002249020007FCF761FDFFF74CF872
:104A2000A842DEDDFFF748F8B042DADAFCF75EFDB7
:104A300002460DA10020FDF737FEF8BD001400501E
:104A400014050000A4060000776169742035762003
:104A500076626174203D202564202069636B3D20CF
:104A600025640D0A000000003576207265616479C6
:104A7000207469636B203D2025640D0A000000004E
:104A800010B504480268044804A1C2600020FDF784
:104A90000BFE10BD00F00008400000200A736764A0
:104AA0005A65726F416E676C65496E6974207A65EC
:104AB000726F416E676C65202564090A0000000072
:104AC00010B50446FCF712FD002C04D0A04204D21D
:104AD000001B401E10BD002010BD001B10BD0000BB
:104AE00070B5064606480D46046806E02269002AAD
:104AF00002D02946304690472468002CF6D170BD7C
:104B000018000020F0B403789C07174BA40F1B6813
:104B1000012C10D0022C20D021E05C68002C09D0A0
:104B20004479067924021D7F3443E4B2A54201D1C1
:104B30005B680FE01B68002BEFD110E09C68002C35
:104B40000AD04479067924021D7F3443240AA54201
:104B500002D19B68F0BC18471B68002BEED1F0BC5B
:104B60000020C043704700001800002010B540220C
:104B70000249022000F0BEF810BD0000D80000205D
:104B800010B5124942068B7B520E8A730406FB2035
:104B9000002C0ADB002A15D0487E9F221040487660
:104BA000487E80221043487609E0002A0AD0487DDA
:104BB000CF2210404875487D4022104348758B73C2
:104BC000002010BD0A7C02400A74F8E7005C004037
:104BD00000207047FEB5002469460C80017801234F
:104BE0004906490E2E4E2246002903D007290CD92A
:104BF000981EFEBD2A484021C03001818472037393
:104C00003185A0388472037348E0264CA57B01955A
:104C1000A17305782D061AD414277943891945887C
:104C2000C0310D8145788D720B734178012900D117
:104C300040222276617EC90701D0902100E08021C8
:104C4000617640886946FEF709FBA0761FE01425CF
:104C50004D434788AD192F8547782035AF722B73A8
:104C6000A57A8B401D43A5724178012900D14022CD
:104C700020210A432275617D890701D5482100E082
:104C80004021617540886946FEF7E8FAA0757068B2
:104C900069460988401870600198A0730020FEBD25
:104CA000A0020020005C004070B5104942068B7BDA
:104CB000520E8A73060607240D4D6020002E06DB77
:104CC000002A0DD0487E20221043487605E0002AB5
:104CD00006D0087D1022104308758B73002070BD2C
:104CE0002C700A7C02430A74F7E70000005C004065
:104CF0002800002070B54006400E002903D1002A8C
:104D000001D0481E70BD1423144C43431D19CC23FD
:104D10005B5D002B14D0124B9C7B987380356A65C9
:104D200029650021A9650F4D002A10D0002812D056
:104D3000597A01228240114359729C73002070BD40
:104D400009A10020FDF7B0FC0120C04370BD002880
:104D5000F3D12970F1E703202870EEE7A0020020CC
:104D6000005C00402800002021675F707975736245
:104D70005F7564632E6F75745F65705B65705F69E6
:104D800064785D2E65705F656E61626C650D0A000A
:104D9000F8B54606760E002903D1002A01D0481E38
:104DA000F8BD1420224B7043C0182C24245C002C26
:104DB00009D0204CA57BA673677DFF0706D0A5739D
:104DC0000220C043F8BD0120C043F8BD002787631F
:104DD00042630163002A0BD0008D904200D8024646
:104DE000174692B23046FEF759FA002E15D001E070
:104DF000002E02D0012060750CE0D88C002806D06F
:104E000006210D480170007801280DD00EE0042124
:104E1000F7E72074A5730020F8BD07480121017051
:104E20000348008DB84201D90A20F2E70220F0E7DA
:104E3000A0020020005C004028000020FEB52D4CA0
:104E4000014608222046FBF77DF96088E288A188A8
:104E50006B4607C36378227827490020FDF724FCBE
:104E6000E288FF270137BA4202D9207800063DD5F3
:104E7000204E204D1C36EA600020AE602A61287565
:104E8000002A07D02078000604D431460020FFF71E
:104E900031FFFEBD174A204610321146083900F096
:104EA00073F9002822D0E2882869904200D2024695
:104EB000EA60A968880705D0BA42EAD83046FBF70D
:104EC00041F9AE600DA10020EB68AA68FEF79EF9DB
:104ED0008020EA68A968FFF75BFFE18828698142C2
:104EE000D7D98006D5D101202875FEBD8020FFF7D7
:104EF000DBFEFEBD18010020F455000875736264E6
:104F00005F65705F73746172745F77726974653A1C
:104F10000D0A000010B5174B802809D04206D20DAB
:104F2000D218FF320132D269002A00D0904710BD5A
:104F30009A68104854189C60DA68521ADA6001D0F6
:104F4000214612E0197D01290BD0C1880029EED03D
:104F50000078C009EBD0002211461046FFF7CAFEC8
:104F600010BD00201875024601468020FFF710FF93
:104F700010BD00001801002010B5184B002809D002
:104F80004206D20DD218FF320132D26B002A00D075
:104F9000904710BD11480029FBD09A6854189C60B6
:104FA000DA68521ADA6004D021460020FFF7A2FE28
:104FB00010BD0A491C310A4699600C3A143900F0B8
:104FC000E3F8002805D0002211468020FFF7E0FE1C
:104FD00010BD8020FFF768FE10BD00001801002002
:104FE00038B5002000F05EF80A48002404774477C2
:104FF000402168464180447080210170FFF7EAFD3E
:1050000068460470FFF7E6FD00210120FFF768FD08
:1050100038BD000058020020F0B504460020230AE5
:10502000E6B21E4C8446032B08D00F2B12D0042B63
:1050300002D0052B00D003D90020F0BDEE2E02D007
:10504000174CA46921E060680028F6D003680B6063
:10505000007905E0E0680028EFD003680B60406845
:1050600010600120F0BD65789D420DD16546B445C4
:1050700008D101200C60022B0BD0072B09D021781E
:105080001160F0BD6D1CAC463C192778002FEAD1A9
:10509000F0BDE178A37809021943F1E71800002078
:1050A00018010020002802D1034A00211170034991
:1050B0000870002070470000005C0040A002002043
:1050C00008B5827869460A7041790279090211436C
:1050D0004A05520D69464A80C0788007800F4870A3
:1050E0006846FFF777FD002801D0002008BD0120A9
:1050F00008BD0000F3B5234883B084690020FF2772
:105100003E460546019033E06078042802D0052829
:105110002CD109E0A6780398E778864226D1049836
:10512000874223D1019421E0039886421ED104993D
:1051300020468F4217D081786A46117042790379F0
:1051400012021A4353055B0D6A465380E0788007CC
:10515000800F50700846FFF73BFD002801D0002566
:1051600004E0012502E0FFF7ABFF054620780419B3
:1051700020780028C8D108200199FFF7B1FC284603
:1051800005B0F0BD1801002010B5037860241C4064
:1051900004D0202C15D0402C1AD115E09B079B0F72
:1051A00004D0012B05D0022B12D105E000F014F839
:1051B00004E000F0B7F801E000F07AF8002807D02A
:1051C00008E0FFF79FFC01E000F0FEF8002801DA9C
:1051D000002010BD012010BDF0B516460246C07873
:1051E000937800025278184389B001251300FDF727
:1051F00033FF0A06561756170E12171B1F170A6899
:1052000000201070096848700220306009E0C0B2C8
:10521000FFF748FF43E03246FFF7FEFE054600E099
:105220000025284609B0F0BD1F4808600120ECE7C2
:10523000C7B2002003901D488469FF2001900090B0
:1052400000201CE06178022904D0042908D0052937
:1052500013D108E061790091B9420ED101200CE030
:10526000E178019109E00099B94206D1039A0199C8
:10527000914202D12046FFF723FF21780C192178B3
:105280000029DFD100280CD0074801211D384777BD
:10529000017700210720FFF723FCFFF767FC0020C0
:1052A000B3E70025FBE7000075020020180100208D
:1052B000F7B50546407929790002084382B0C0B2AB
:1052C000174601240090FDF75BFF002809D068789D
:1052D0000026002807D001280ED0032817D000246C
:1052E000204605B0F0BD039800680670039800687A
:1052F000467002203860F3E7E878A9780002084396
:1053000003D10098FFF73CFCEAE7002407E0E878C7
:10531000A97800020843F8D10098FFF7C5FC3E6069
:10532000DEE70000FEB504460E46C078A178000214
:105330000843000A01906079217900020843C0B255
:10534000174601250090FDF71BFF00281FD060784D
:105350000300FDF781FE0C0720202020200E2020D6
:10536000202328203168002008703168487002200E
:1053700026E0019822280ED1124809E0027F009908
:105380008A4205D141693160806938600120FEBDE3
:1053900000680028F2D100252846FEBD31680020B3
:1053A000087001200CE0E078A17800020843C1B247
:1053B0006079227900021043C0B2FFF79BFE002003
:1053C0003860E9E718000020F8B50F461F49054688
:1053D00048681646002814D069784279914223D152
:1053E00069792A7909021143042902D005292AD1B1
:1053F00003E081683960808913E001693960808A3F
:105400000FE0886800280FD06978827991420BD12B
:1054100069792A7909021143072914D10168396091
:10542000808830600020F8BD0848046809E0E3681F
:10543000002B05D032463946284698470028F2D03E
:105440002468002CF3D10020C043F8BD18000020D0
:1054500010B50446FDF741F809480078FDF726F835
:10546000FCF7C5FF002803D0FDF74BF8012010BD65
:105470002046FDF71BF8FCF7BAFF002010BD000026
:1054800038000020F8B560236A4613700B0A537089
:1054900091708000D070FDF720F8154D2878FDF749
:1054A00005F8FCF7A4FF002803D0FDF72AF8012037
:1054B000F8BD00246E46305DFCF7F8FFFCF797FF5F
:1054C000641CE4B2042CF6D3FDF707F82878012118
:1054D0000843FCF7EBFFFCF78AFFFCF7C0FF04462C
:1054E0000120FCF7D6FFFDF70CF82046F8BD0000C0
:1054F000400000200000000000000000000000004C
:10550000000000000000000000000000000000009B
:105510000000000001000000020000000300000085
:105520000400000006000000070000000800000062
:105530000900000000000000000000000000000062
:105540000000000001000000020000000300000055
:105550000400000000093D0000127A000024F4005D
:105560004086510100366E0100093D0000093D00F2
:1055700000093D000500040001000000001BB70009
:105580000024F40000366E0100366E0100093D0073
:1055900000127A000024F4004086510100366E01AA
:1055A00002000000030000000200000002000000F2
:1055B00000093D0000127A000024F40040865101E9
:1055C00000366E013832FF1F6032FF1F8832FF1F26
:1055D000B032FF1FD832FF1F3832FF1F3832FF1F93
:1055E0003832FF1F303132333435363738394142A3
:1055F0004344454653657475703A20626D52657137
:105600007565737454797065203078253032782C44
:105610002062526571756573742030782530327858
:105620002C207756616C7565203078253034782CC5
:105630002077496E646578203078253034782C20C6
:10564000774C656E677468203078253034780D0AA1
:10565000000000000D0A736764476574496E707539
:10566000743A706F7765724C6576656C203D256481
:1056700020353330367374617465203D20256420F5
:1056800076626174203D2025646D762076315F3529
:10569000203D2025646D76206261745374617465C9
:1056A000203D202564200D0A206F706572617465AD
:1056B0005469636B203D202564207331203D2025F3
:1056C00064207332203D202564207866756C6C2040
:1056D0003D2020256420737769746368203D202570
:1056E0006420757362203D202564200D0A000000AF
:1056F000736764497349703533303654696D657228
:1057000053746F702B2B2B2B2B2B2B2B2B2B2B2BEF
:105710002B2B2B2B2B2B2B2B2B2B2B2B2B2B2B2BD9
:105720002B2B2B2B2B2B2B2B2B2B2B2D2D2D2D2DBF
:105730002D2D2D2D2D2D2D2D2D2D2D2D2D20203DA3
:10574000202025640D0A000049535F484947485FFF
:105750005357495443485F444543202564202D2D29
:105760002D2D2D2D2D2D2D49535F484947485F463E
:105770005F454E203D2025642049535F48494748F6
:105780005F5846554C4C203D202025640D0A0000F2
:105790003120616E67656C203D20256420206D6995
:1057A0006E203D20256420206D6178203D202564F9
:1057B0002072616E67313D20256420206D696E3254
:1057C000203D20256420206D617832203D20256415
:1057D000202072616E6732203D202564202074698C
:1057E000636B20203D202564203D2025640D0A00A8
:1057F0003220616E67656C203D20256420206D6934
:105800006E203D20256420206D6178203D20256498
:105810002072616E67313D20256420206D696E32F3
:10582000203D20256420206D617832203D202564B4
:10583000202072616E6732203D202564202074692B
:10584000636B20203D202564203D2025640D0A0047
:10585000616E67656C203D20256420206D696E2097
:105860003D20256420206D6178203D202564207234
:10587000616E67313D20256420206D696E32203DC8
:1058800020256420206D617832203D202564202071
:1058900072616E6732203D20256420207469636B3D
:1058A00020203D202564203D2025640D0A000000B5
:1058B000D058000800000020780200008A05000887
:1058C0001059000878020020A00B00008230000868
:1058D0001123127A12042A5004320402270172EAB8
:1058E000021BF05A0A042954690481A910A920094D
:1058F000120429441A690929048123270C1A1C104F
:105900003290325332313220321603FF881301A312
:04000005080000C12E
:00000001FF
