:020000040800F2
:10000000580C0020D5000008FB1D0008F91D000851
:1000100000000000000000000000000000000000E0
:10002000000000000000000000000000CB200008DD
:1000300000000000000000005D1E0008CD20000848
:10004000E7000008E7000008E7000008E7000008F4
:10005000E700000871130008E7000008E700000847
:10006000E7000008E7000008E7000008E7000008D4
:10007000E7000008E7000008E7000008E7000008C4
:10008000E7000008E7000008E7000008E7000008B4
:10009000E7000008E7000008E7000008E7000008A4
:1000A000E7000008E7000008E7000008E700000894
:1000B000E7000008E7000008E700000895230008B3
:1000C0000348854600F06CF800480047352C0008CE
:1000D000580C00200448804704480047FEE7FEE72C
:1000E000FEE7FEE7FEE7FEE7D5200008C1000008B6
:1000F00030B50B46014600202022012409E00D46C0
:10010000D5409D4205D31D469540491B2546954047
:1001100040191546521E002DF1DC30BD70B500248B
:100120002546002801DA01244042002901DA012590
:100130004942FFF7DDFFAC4200D04042002C00D026
:10014000494270BD03460B439B0703D009E008C931
:10015000121F08C0042AFAD203E00B780370401C77
:10016000491C521EF9D27047D2B201E00270401C05
:10017000491EFBD270470022F6E710B513460A4627
:1001800004461946FFF7F0FF204610BD03460A78E3
:100190000270401C491C002AF9D118467047000023
:1001A000064C0125064E05E0E36807CC2B430C3CCA
:1001B00098471034B442F7D3FFF786FFA83F0008F2
:1001C000C83F000870B58C180578401C6B075B0FA2
:1001D00001D10378401C2A1106D10278401C03E0AB
:1001E00006780E70401C491C5B1EF9D12B0705D404
:1001F0000023521E0DD40B70491CFAE70378401CF3
:10020000CB1A921C03E01D780D70491C5B1C521E1A
:10021000F9D5A142D8D3002070BD00000C498A68EE
:10022000D208D2008A608A689206520FFBD10A680F
:1002300001231B069A430A600168064A11405A01CD
:10024000914204D14168006880F3088808477047EC
:10025000001002400000FC2FF8B52A4E2A4F2B4C0C
:100260002B4D28E000202070284600F0F9FD40E0EA
:10027000286801210903084328607068C0B27F28FC
:1002800020D03068084330607868C0B27F281FD023
:100290003868084338601F484268D2B27F2A1DD0B0
:1002A00002680A43026000F03DFC01281CD002F005
:1002B00087FC01281BD000F091FC6868C0B27F2841
:1002C000D6D1CFE701202070304600F0C9FD10E004
:1002D00002202070384600F0C3FD0AE003202070A1
:1002E0000C4800F0BDFD04E00520207001E0042072
:1002F00020700420207000F065FA792000F090F959
:10030000F8BD0000004400400048004018000020F4
:1003100000380140004C0040F0B58DB001260024AB
:10032000022104A800F030F96846057C407C684052
:10033000FF2804D01F2000F073F90DB0F0BD2A464D
:100340007AA1012001F0E6FD312D1BD00EDC032D3A
:1003500018D006DC002D15D0012D13D0022D14D19C
:1003600010E0112D0ED0212D0FD10BE0732D09D0EF
:1003700004DC442D06D0632D07D103E0822D01D08B
:10038000922D02D1792000F04BF9754F732D0BD0CF
:1003900006DC312D08D0442D06D0632D14D103E0A6
:1003A000822D01D0922D0FD13869C00303D51F20B3
:1003B00000F036F9C1E77869002805DA6948B860C5
:1003C0006948B86000F0F2FC0020312D5FD010DCED
:1003D0000122032D45D007DC1021002D22D0012D54
:1003E00031D0022D13D134E0112D46D0212D0ED164
:1003F00049E01F22FF21732D55D004DC442D4AD043
:10040000632D04D14BE0822D5AD0922D63D000266B
:10041000732D78D073DC312D75D0442D73D0632DBE
:1004200076D170E00C2368466A460370022441705E
:1004300000204E492346095C641CD154401CC0B2C4
:100440000C28F6D3E4E76A461170507003249070CC
:10045000DEE769460A70042048704820032488704B
:10046000D6E769460A704248016809050A0F6946DD
:100470004A70006803248870CAE700F00FFC064643
:10048000012E97D0C4E700F0C2FA0646C0E700F09C
:1004900041FE0646BCE700F05BFA0646B8E700F00E
:1004A000FBFE0646B4E76B461A74587408AB197025
:1004B0005970112204A92F4800F072FE0646A7E7E2
:1004C0005520694608742B48002204A9083800F01A
:1004D00067FE06469CE7AA266B461E74D8265E7405
:1004E0001A76587608AB1972597222481F2204A94D
:1004F000083800F055FE06468AE700E008E0822D45
:1005000001D0922D04D178690121C907084378618F
:10051000012E09D01F2021466A46641C5054A1B206
:10052000684600F083F808E77920F4E73E3E415042
:10053000505F426F6F746C6F616465725F50726F71
:10054000746F636F6C446574656374696F6E09756D
:1005500063436F6D6D616E64203D2025640D0A005C
:100560000020024023016745AB89EFCDF23E000831
:10057000005801400831FF1F08B50121684600F00E
:1005800003F86846007808BD70B504460D4617A10B
:10059000002001F0BFFC1D4801780B0002F09FF81D
:1005A00006040A10161C21092A462146184800F0A4
:1005B000B7FC70BD2A462146164800F0B1FC70BD5C
:1005C0002A462146144800F0ABFC70BD2A4621465D
:1005D000124800F0A5FC70BD2946204602F052FAF0
:1005E00070BD2946204600F023FA70BD3E3E4150C2
:1005F000505F426F6F746C6F616465725F526561CA
:100600006444617461090D0A0000000018000020B4
:10061000003801400044004000480040004C0040C9
:1006200001B50121684600F001F808BD10B5134A74
:100630001278130002F053F806040A10161C1F0962
:100640000A4601460E4800F07EFC10BD0A460146EF
:100650000C4800F078FC10BD0A4601460A4800F03C
:1006600072FC10BD0A460146084800F06CFC10BD43
:1006700002F050FA10BD00F019FA10BD1800002069
:10068000003801400044004000480040004C004059
:1006900010B54A480178042900D062B6022201242C
:1006A00047480B0002F01BF806041D3449735E1C1A
:1006B000416B490849004163414A403213680121B6
:1006C00089038B431360426A22434262026B0A43EE
:1006D0000263426A520852004262026B8A4302631A
:1006E00010BD416B490849004163C26B01214904B7
:1006F0008A43C263426A22434262C26A0A43C262B6
:10070000426A520852004262C26A8A43C26210BD03
:10071000416B91434163C36B012189048B43C363E4
:10072000436A13434362C36A0B43C362436A9343FE
:100730004362C26A8A43C26210BD426B04218A438B
:100740004263C36B4A049343C363436A0B434362EC
:10075000C36A1343C362436A8B434362C16A9143D2
:10076000C16210BD416B91434163C36B01214905D7
:100770008B43C363436A13434362C36A0B43C3623D
:10078000436A93434362C26A8A43C26210BD416BAB
:10079000490849004163C26B0121C9058A43C2630C
:1007A000426A22434262C26A0A43C262426A5208F1
:1007B00052004262C26A8A43C26210BD1800002021
:1007C0000010024070B560480678042E00D072B662
:1007D00005255E4A01215D48062440328903330025
:1007E00001F07DFF0604193755937518416BA1433D
:1007F0004163C26B572149048A43C263426A224360
:100800004262C26A0A43C262426AA2434262C26A46
:100810008A43C26270BD436BA3434363C56B2B2302
:100820009B049D43C56315688D431560426A22434E
:100830004262C26A1A43C262026B0A430263426A9C
:10084000A2434262C26A9A43C262026B8A43026353
:1008500070BD436BAB434363C46B55235B049C4344
:10086000C46314688C431460426A2A434262C26AB9
:100870001A43C262026B0A430263426AAA4342629B
:10088000C26A9A43C262026B8A43026370BD436BC1
:100890009B089B004363C46B53235B049C43C4636A
:1008A00014688C431460426A032422434262C26A81
:1008B0001A43C262026B0A430263426AA243426263
:1008C000C26A9A43C262026B8A43026370BD436B81
:1008D000AB434363C46B47235B049C43C46314680A
:1008E0008C431460426A2A434262C26A1A43C2625B
:1008F000026B0A430263426AAA434262C26A9A4393
:10090000C262026B8A43026370BD436BA3434363BD
:10091000C56B17235B049D43C56315688D43156044
:10092000426A22434262C26A1A43C262026B0A43AB
:100930000263426AA2434262C26A9A43C262026B83
:100940008A43026370BD00001800002000100240BE
:10095000F0B591B002216846FFF716FE68460478AC
:10096000457827466F40FF2C12D0681C4600109037
:10097000711C6846FFF708FE3A463146684600F0AB
:100980003BF869468A5D824210D0002011B0F0BD6C
:1009900000A801210230FFF7F7FD68468078B842D1
:1009A00001D00020F2E700F0F9F8EFE7002007E0BF
:1009B0004300CA5C5E187778CF547270401CC0B296
:1009C000109A9042F4D3002C05D0102C09D0202C82
:1009D0000DD00020DAE704222946684600F010F91D
:1009E000D4E701222946684600F00AF9CEE72946F5
:1009F000684600F0ABF9C9E702E00378401C5A40B2
:100A00000B46491E89B2002BF7D11046704708B536
:100A1000684600F0B3FC012803D0022801D0002072
:100A200008BDFFF735FE0098FFF7F8FB012008BD71
:100A3000F8B504460D46002000901B4E3068F114B6
:100A40008843306030684F103843306001E000F078
:100A5000C5F870698007FAD57069B069009011E037
:100A600000F0BCF870694006FAD530692070641C4B
:100A70006D1EADB27069400704D530692070641CEA
:100A80006D1EADB2002DEDD101E000F0A7F8706948
:100A9000C006FAD5706900903068012108433060C3
:100AA0003068B8433060F8BD00540040F8B50446E3
:100AB0000D46002000901A4E3068F11488433060D3
:100AC00030684F103843306001E000F087F87069FB
:100AD0008007FAD57069B069009011E000F07EF8E7
:100AE00070690006FAD52078641C30616D1EADB2C5
:100AF0007069400704D52078641C30616D1EADB26A
:100B0000002DEDD101E000F069F870694005FAD5DB
:100B10007069B84370613068B8433060F8BD000058
:100B20000054004038B5002000901B4C2068E114B0
:100B30008843206020684D1028432060606980074A
:100B400001D4002038BD6069A069009001E000F088
:100B500045F860694006FAD52069C0B27F2801D007
:100B6000002038BD6069400708D52069C0B20090F8
:100B700004E02069C0B2009000F030F86069C0065F
:100B8000F7D5606900902068012108432060206843
:100B9000A8432060012038BD00540040F8B50D4C3A
:100BA0000D49097F62038907890F491CC9038D1804
:100BB000564297130AE0A019C000000C00900021D3
:100BC000684600F0C3F8012802D1E419AC42F2D320
:100BD000F8BD000000400008E031FF1F0448016834
:100BE0007F221143016004490248086070470000F9
:100BF000002C0040AAAA000000300040A0270423D7
:100C0000F7B582B0164601200025491C204F0191FE
:100C100036E0002430E078691E4908437861FFF728
:100C2000DDFF02986900405A01217043001900025B
:100C3000C90640181849097F1F228907890F491CD6
:100C4000D206C9038218914201D8012012E0002186
:100C5000C94301603869C003FCD478690D49C943B0
:100C6000084078613869C0070FD001203969012236
:100C700011433961641CE4B2B442CCD36D1CEDB2B3
:100C800001998D42C5D305B0F0BD0020F6E7000004
:100C90000020024002000001E031FF1F3EB502A823
:100CA00000F06CFB044620000BD002216846FFF7E1
:100CB0006BFC6946087849784840FF2803D000203B
:100CC0003EBD00203EBD7920FFF7AAFC1B490298DB
:100CD000411807D01A4A891804D0142902D0012CCF
:100CE00018D024E01748017F6A468907890F491CFC
:100CF0004901517000219170007F0007800F401C56
:100D00008000D07011711178501C491CFFF78EFCC7
:100D100001203EBD0C49096AC9B2AA2907D068461C
:100D200001780020491CFFF781FC01203EBD694687
:100D30000978491CFFF77AFC01203EBDDE8500E002
:100D40005682FFFFE031FF1F00200240F8B5074642
:100D50000024144D4E1C20E0686913490843686163
:100D6000FFF73CFF6100795A00200122C04349038C
:100D7000D206891808602869C003FCD468690A494A
:100D8000C943084068612869C00709D00120296962
:100D9000012211432961641CE4B2B442DCD3F8BDE2
:100DA0000020F8BD002002400008000111488169C0
:100DB000CAB211490A6082691204120E0A6182697C
:100DC000D201D20D4A60026AD2B28A60026A52012E
:100DD000520DCA60826AD203D20B4A61026BD203FF
:100DE000D20B8A61826B92B2CA61806B000C08627E
:100DF00070470000C032FF1F0021024030B591B0A3
:100E0000302105A8FFF7B7F9002401940294039458
:100E1000049402250595E8010A900B940F48A90354
:100E2000008CC004C00C40180C900E950F951094C7
:100E300005A800F081FD002801D001F001F807208D
:100E40000190029503940494012101A800F056FC3E
:100E5000002801D000F0F4FF11B030BD0032FF1FB8
:100E600030B541690122120391434161264A0521AF
:100E7000090790420ED1CB680322920493430122CA
:100E800092049B18CB600B6893430B604A6A102353
:100E90001A434A621D4A90420ED1CB6803221207C0
:100EA000934382049B18CB600B6893430B604A6AA0
:100EB00001231B061A434A621549032301221B051D
:100EC000120588420BD11349CC689C43A418CC600E
:100ED0000C6894430C604C6A05152C434C620E4917
:100EE00088420CD10D49CC689C43A318CB600B6899
:100EF00093430B604A6A0F231B029A434A62C168FC
:100F000008221143C16030BD003801400044004058
:100F10000048004000040050004C00400008005011
:100F200070B506460D46144607E0FFF757FE3168D8
:100F30008806FAD5706828706D1C2046641EA4B21D
:100F40000028F4D170BD70B504460E46154608E081
:100F50003078761C606001E0FFF740FE20680006F4
:100F6000FAD528466D1EADB20028F1D101E0FFF799
:100F700035FE20684006FAD520684021884320606D
:100F800070BD000008B50F480168012319430160D6
:100F90000068184000900B484038C26BD9050A43DE
:100FA000C263C26B0A400092416B19434163406BBC
:100FB0001840009001F04AFD01200349C007086075
:100FC00008BD00004010024000E100E000B50B4801
:100FD000016AC90405D40A494A68FF2381331A43C8
:100FE0004A60006A000506D40748064901600721E7
:100FF000416006498160FFF7F1FD00BD002002401D
:10100000002C00405555000000300040FF0F00004C
:10101000FEB505460E46541C28062A46000E1CD076
:101020002D0A2D020020D3B29E461B199C460AE0D1
:10103000231A9B19203BDF7F63461B1A9B19203B19
:10104000DF77401C80B2A042F2D3002003E02B5C8B
:101050003354401C80B28645F9D8D0B2E3B2034382
:1010600010D01219FE32120A1202521E001980B25A
:10107000521B521C03E02B5C3354401C80B2824252
:10108000F9D894B2002700200090200A019028E0AF
:10109000FFF7A4FD1D4B58691D4908435861002006
:1010A0004911F259EA513F1D3E2802D15A690A43BB
:1010B0005A61401C80B24028F3D31869C003FCD4A5
:1010C00058691349C943084058611869C0070ED0D0
:1010D000012118690122104318610098401C80B258
:1010E0000090009A01989042D2D800200AE0002196
:1010F000FBE72A5833589A4201D0002104E0001D32
:10110000241FA4B2002CF4D10846FEBD00200240EA
:101110000100000170B5FFB083B081A800F02EF986
:101120000446012C07D0022C05D0032C03D000204C
:101130007FB003B070BDFFF71FFA0546A91C6846D3
:10114000FFF722FA2A46691C6846FFF755FC6B46F2
:1011500059194978884201D00020E9E7012C04D0D0
:10116000022C09D0032C19D112E02A466946819835
:10117000FFF74EFF064611E000206D1C819903E049
:101180001A5C0A54401C80B2A842F9D3012605E03B
:101190002A466946819800F003F806463046C7E7BC
:1011A000F8B586461046384A156A566AD76A5269B3
:1011B000520004D5344A354BD360354BD3600023FD
:1011C000FF221202401C844632E07046C4183148A7
:1011D000844203D1280A0002CD5C05432D48401CFF
:1011E000844203D19543C85C000205432948083076
:1011F000844203D1300A0002CE5C06432548093000
:10120000844203D19643C85C00020643214818304B
:10121000844203D1380A0002CF5C07431D481930CD
:10122000844203D19743CC5C240227435B1C9BB2CE
:101230006345CAD3144C25626662E7626069812106
:1012400049040843606100BF00200F4AC043803258
:1012500010602069C003FCD400BF2069C507ED0FF2
:101260002069012210432061606988436061002D7C
:1012700007D07920FFF7D4F960690121C906084336
:1012800060612846F8BD0000002002403B2A190892
:101290007F6E5D4C0031FF1F7FB5154CFFF76CF979
:1012A0000546A91C6846FFF76FF92A46691C68467F
:1012B000FFF7A2FB6A4651194978884202D0002004
:1012C00004B070BD002001216D1C05E0165C0B46CA
:1012D000B3409C43401C80B2A842F7D369460C70CF
:1012E000200A487001220348FFF75AFFE8E7000090
:1012F000FFFF00001831FF1FF0B587B004460E460F
:10130000002C07D11648426B02210A434263406B0E
:101310000840019013496000085A02900020049090
:1013200001210591A500104F002E04D1039078599A
:1013300002A900F0DBF8012E0FD10C480390785978
:1013400002A900F0D3F8074D00222D1F28570F21C6
:1013500000F0D0F9285700F0C3F907B0F0BD000045
:1013600000100240023F0008200000200000211071
:1013700010B5012000F0AEF810BD00007CB50446A9
:1013800005216846FFF700F9002204216846FFF7AF
:1013900033FB69460979884201D000207CBD792061
:1013A000FFF73EF96A461178D0780906401851785F
:1013B0009278090412028918411821602C4A2D4B99
:1013C000881A2D4D91422AD01DDC2C480A1A8142E0
:1013D00023D006DC2A48081809D02A49C84208D177
:1013E0001DE02948101816D02849C84201D12848C4
:1013F00020600122D20627492068904211D38842FA
:101400000FD201207CBD202807D0342805D03C28ED
:1014100005D05428EDD12560EBE703207CBD236087
:10142000E7E7012252071C49904203D3884201D2C8
:1014300002207CBD1949884203D3984201D205207D
:101440007CBD984203D3A84201D204207CBD14493C
:10145000A84203D3884201D203207CBD114A8842AE
:1014600003D3904201D204207CBD00207CBD00004B
:10147000ACF7FF1F0030FF1F0031FF1F227AFF1F54
:10148000228800E0CEFDFFFF22BAFFFF5AC9FFFF0E
:10149000FC0B0008FFFF0108FF3F00200000FF1FBA
:1014A0000032FF1F0038FF1F10B502A1002000F01E
:1014B00031FD10BD0D0A2D48414C5F4750494F5F2B
:1014C000455854495F43616C6C6261636B2D2D2DEF
:1014D0000D0A000010B50449CA68024202D0C86073
:1014E000FFF7E2FF10BD000000180240F0B5002237
:1014F00081E001249440A4462340002B7AD04C681C
:10150000022C01D0122C0CD1D408A40027183D6A5B
:101510005407E40E0F26A640B5430E69A6402E439D
:101520003E62066855000324AC40A6430F79BF070E
:10153000BF0FAF40374307604E68012E05D0022E23
:1015400003D0112E01D0122E0ED18668A643CF688B
:10155000AF403743876047686646B7430E79F60663
:10156000F60F96403E434660C668A6438C68AC4082
:101570003443C4604C68E4003CD59508214CAD0070
:101580002F193D6E9407E40E0F26A640B54305269D
:101590003607B04201D100260AE01B4EB04201D10D
:1015A000012605E0194EB04201D1022600E00326D3
:1015B000A6402E43134D3E66124E803634689C433F
:1015C0004F68FF0300D51C43346074689C434F6828
:1015D000BF0300D51C4374602C689C434E68F60220
:1015E00000D51C432C606C689C434E68B60200D545
:1015F0001C436C60521C0B681C46D44000D078E73A
:10160000F0BD000000180240000400500008005027
:1016100042690A4201D08162704781617047002AA5
:1016200001D0816170478162704700000148806885
:101630007047000024000020024881684268891831
:10164000816070472400002010B50024002000F0C5
:1016500009F8002801D0012401E000F02BF8204611
:1016600010BD000070B505460024104E71680029B9
:1016700019D07D20C000FEF73BFD01460C480068F4
:10168000FEF736FD00F0A0FB002801D001240BE09E
:10169000042D06D200222946501E00F02BF835609A
:1016A00002E0012400E00124204670BD2400002057
:1016B0000000002008B509480168012211430160BB
:1016C00000681040009005484038C26B01040A438E
:1016D000C263C06B0840009008BD0000401002408B
:1016E000C106C90E0120884001490860704700000A
:1016F00000E100E010B500F081FB10BDF8B5044634
:101700000D46002C0FD0544800688007800FA84277
:1017100018D2514F38688008800028433860FFF79E
:1017200085FF064609E00120F8BDFFF77FFF811B1A
:101730004A48814201D90320F8BD38688007800FEC
:10174000A842F2D12068464E81070DD5400704D546
:10175000B068072109030843B060B0680F2109028F
:101760008843A1680843B0602078C0073BD0606818
:1017700001280CD000280FD0022812D0384940315F
:10178000042813D0096A890715D40120F8BD3168EF
:10179000890310D40120F8BD316849050BD401201C
:1017A000F8BD3168890106D40120F8BDC9698907EF
:1017B00001D40120F8BDB168C908C9000143B16076
:1017C000FFF734FF074607E0FFF730FFC11B234850
:1017D000814201D90320F8BDB06838210840616812
:1017E000C9008842F0D11C4801688907890FA942C5
:1017F00016D901688908890029430160FFF716FF9F
:10180000074607E0FFF712FFC11B1448814201D9C8
:101810000320F8BD104800688007800FA842F1D16E
:101820002078400706D5B168072000038143E068AF
:101830000143B16000F01CF8B1683C2289091140F5
:10184000084A515CC906C90EC840074908600748E4
:101850000068FFF707FFF8BD002002408813000072
:1018600000100240E43D0008000000202400002099
:1018700010B58AB014222D4905A8FEF763FC2B4849
:1018800001AC1038C36A826A416A006B0EC40490CE
:10189000274A906805AB8006400F18D090688006F4
:1018A000400F012823D090688006400F022820D0E6
:1018B00090688006410F0120C003042905D091687B
:1018C0008906490F032900D000200AB010BD106816
:1018D00001218004400F814050680004400F04281B
:1018E00000D9002080001858FEF702FCEDE71148EF
:1018F000EBE7D0688007800FD1680C24214001AC51
:101900006158022807D0032802D009984843DCE731
:1019100008484843D9E750680004400F042800D91C
:101920000020800018584843CFE70000143F00080B
:101930000010024000366E01F0B587B00446FC4846
:101940004268016806920591C1688068049103901D
:10195000002C0DD020783827C007F64E00285FD025
:10196000B0683840F1688907890F102803D004E077
:10197000012007B0F0BD032915D0082813D06068F6
:10198000002807D0A068002815D03169890889008F
:101990000143316101216068090488420DD130683A
:1019A000084330601CE03068800339D56068002847
:1019B00036D10120DDE70120DBE7052301221B04EE
:1019C0009204984206D13068104330603068084372
:1019D000306005E0306888433060306890433060A4
:1019E000606800280ED0FFF721FE054606E0FFF7ED
:1019F0001DFE401BC82801D90320BAE730688003C8
:101A0000F5D50DE0FFF712FE054606E0FFF70EFEE6
:101A1000401BC82801D90320ABE730688003F5D408
:101A2000207880077BD5B5683D40F0688007800F3F
:101A3000102D01D1022814D0002D12D06069002889
:101A40005AD030680721C9028843A1690843306031
:101A50003068FF21013108433060FFF7E7FD05469C
:101A600040E03068400502D56069002809D0706800
:101A7000E169000C000408437060FFF7D7FD0746DA
:101A800008E0012075E7FFF7D1FDC01B022801D94E
:101A900003206EE730684005F5D5002D13D130687E
:101AA0000721C9028843A16908433060FFF7E0FEBF
:101AB000B1683C22890911409F4A515CC906C90E90
:101AC000C8409E4908609E480068FFF7CBFD00288B
:101AD00025D001204DE7FFF7A9FD401B022801D9C1
:101AE000032046E730684005F5D57068E169000CD1
:101AF00000040843706012E03168FF200130814328
:101B00003160FFF793FD054606E0FFF78FFD401BB0
:101B1000022801D903202CE730684005F5D420784D
:101B2000884D000734D5B0688006400F03280AD0DE
:101B3000206A00281AD0286A012108432862FFF78A
:101B400075FD07460EE0286A800721D5206A002827
:101B50001ED101200DE7FFF769FDC01B022801D946
:101B6000032006E7286A8007F5D511E0286A4008B7
:101B700040002862FFF75AFD074606E0FFF756FDD2
:101B8000C01B022801D90320F3E6286A8007F5D498
:101B90002078400772D500200290B0688006400F80
:101BA000042818D0F06BC00009D4F16B01200007A5
:101BB0000143F163F16B0140019101200290624801
:101BC0000168C9051AD40168821511430160FFF745
:101BD0002DFD07460EE0E869800767D5E06800281C
:101BE00064D10120C5E6FFF721FDC01B022801D901
:101BF0000320BEE654480068C005F4D5E06800281C
:101C000008D0206981038A0F504917D032698A436E
:101C100002433261E068012817D00421052819D059
:101C2000E86940084000E861E8698843E861E068E5
:101C3000002824D0FFF7FAFC07461BE030698843F0
:101C40000121490440183061E4E7E86901210843B3
:101C5000E861ECE7E8690843E861E86901210843C5
:101C6000E861E4E7FFF7E2FCC11B3948814201D992
:101C700003207EE6E8698007F4D50FE016E0FFF761
:101C8000D5FC074607E0FFF7D1FCC11B3048814275
:101C900001D903206DE6E8698007F4D40298012891
:101CA00004D1F06B012109078843F063606A0028C2
:101CB0006FD0B1688906490F022977D001273F0606
:101CC00002280AD03068B8433060F068800880008D
:101CD000F060FFF7ABFC044664E03068B843306066
:101CE000FFF7A4FC054606E0FFF7A0FC401B022816
:101CF00001D903203DE630688001F5D4E06A85080B
:101D0000A06A032809D1A90005AA5358114A934291
:101D10000CD803AB5958914208D302281CD100F0CB
:101D20009FF8AA0005A98958884215D2012020E60B
:101D3000043F000800100240E43D000800000020BD
:101D4000240000204010024000700040000003000A
:101D50008813000000366E01F068A16A80088000D8
:101D60000843F060F0680C218843E16A0843F060A2
:101D7000306838433060FFF759FC044606E0FFF74F
:101D800055FC001B022801D90320F2E530688001D0
:101D9000F5D517E0FFF74AFC001B022802D9032003
:101DA000E7E503E030688001F4D40BE0012807D0B8
:101DB000F068A16A8007800F884203D00120D8E52F
:101DC0000120D6E50020D4E510B50949401E88421F
:101DD00001D9012010BD074C60610321081F00F0EC
:101DE0000DF80020A06107202061002010BD000038
:101DF000FFFFFF0000E000E0FEE770478307FF22DF
:101E0000DB0E9A408907090E994000280BDA00077B
:101E1000000F0838830808489B001818C3699343CB
:101E20000B43C3617047830804489B00181803687C
:101E300093430B430360704700ED00E000E400E0D3
:101E4000BFF34F8F04490348C860BFF34F8F00BFF3
:101E5000FDE700000400FA0500ED00E07047000017
:101E6000034840680004400F02498000085870474A
:101E700000100240243E0008F8B505460E461746FD
:101E800009480078002801D100F08EFAEFF31084A1
:101E9000012080F310883A463146284600F006F8C3
:101EA000E1B281F31088F8BDA003002070B50E46A2
:101EB0001446182148431649451818356869002802
:101EC00006D0012811D002281BD00024204670BD66
:101ED000284600F0A1FAA04201D20024F6E72246EB
:101EE0003146284600F0DCFBF0E7284600F094FA83
:101EF000A04200D2044622463146284600F0D0FBDC
:101F0000E4E722463146284600F099FB0446DDE727
:101F1000A00300200FB408B504A900916A460399F4
:101F200000F004F801B008BC04B01847F7B598B049
:101F30000C46154603A813904020149000201590DD
:101F400018991791169008272178641C002907D04A
:101F5000252917D013A800F053FB16980028F3DAB0
:101F6000169800280BDD1598002804D003A9159AAF
:101F70001898FFF781FF1599169840181690169833
:101F80001BB0F0BD00200122217823291FD02B296E
:101F900019D02D290FD0302911D00022002AF3D1D9
:101FA000002122781346303B0A2B13D300232678D6
:101FB0002E2E15D020E001210843641CEEE70221FB
:101FC0000843641CEAE704210843641CE6E738433D
:101FD000641CE3E7641C0A23594389183039E0E79D
:101FE000641C22781646303E0A2E05D2641C0A264E
:101FF00073439B18303BF4E76C2A0DD0682A0BD052
:10200000702A4FD00BDC252A59D0582A2FD0632AAA
:102010000CD0642A57D112E0641C2278ECE7732AB2
:1020200031D0752A17D0782A4DD120E02868011DBB
:1020300029600078C1B213A800F0E2FA43E02A68F0
:10204000161D2E601668009101900A22314613A8D1
:1020500000F0EEF937E02A68161D2E601668009130
:1020600001900A22314613A800F056FA2BE02A68A4
:10207000161D2E601668009101901022314613A89B
:1020800000F04AFA1FE02868011D296006683178CF
:10209000761C002917D013A800F0B2FA1698002871
:1020A000F5DA10E02868011D296001680020019020
:1020B00008231022009713A800F02EFA03E0252130
:1020C00013A800F09DFA641C47E7704710B5FFF7AE
:1020D000B3FA10BD07494868074A400E1289400606
:1020E00012041043054A926810434860C80304492B
:1020F00088607047001002404033FF1F0032FF1F0E
:1021000000ED00E0F0B585B06E4E3479B5797079A8
:10211000019000F0F7FD00906BA10020009AFFF7FE
:10212000F9FE600713D571A10020FFF7F3FEFF2130
:1021300081317348FEF71FF871484021416001F07A
:1021400035FB0120B072002070726E4908702007C4
:1021500003D56DA10020FFF7DDFEA00703D570A118
:102160000020FFF7D7FEE00703D074A10020FFF79F
:10217000D1FEB47A2C40E0070AD077A10020FFF707
:10218000C9FE002000F010FE00F0C6FA64086400EA
:1021900001253BE076A10020FFF7BCFE0127AF4000
:1021A000274231D0284600F0FFFD707D400703D55F
:1021B000707DFB210840707514202946414350482A
:1021C0000818018D426B8A4208D9036B5B180363C0
:1021D000836B5B188363521A426307E0036B9B189F
:1021E0000363836B9A18826300224263426B002A66
:1021F00014D08A4200D211468AB2016B284600F000
:10220000D9FD01207075BC436D1CEDB2002CC1D10D
:102210002C48477A0198074001264BE0816B2846FD
:102220008022104301F0D8F9EDE753A10020FFF719
:1022300071FE0120B0403842039039D0304600F0A2
:10224000B3FD2048417EC90730D0858B142031462C
:1022500041432B482A460C18029480343046216DA5
:1022600000F066FD2B4646A10020226D00F012FD15
:102270001448407E4108134849004176206D4019BA
:102280002065A06D4119A165606D401B6065029CD1
:10229000C0342289AA4201D8002807D10948437ACC
:1022A000039A93434372304601F030FA0398874310
:1022B000761CF6B2002FB8D1009800F075FD05B07D
:1022C000F0BD0000005C00405553425F4952514848
:1022D000616E646C6572206F6C645F65705F6964C9
:1022E00078203D2564200D0A000000005553425F10
:1022F000494E54525F5245534554200D0A00000088
:1023000020020020400000207478697320262055A8
:1023100053425F494E54525F534F46200D0A00000E
:10232000747869732026205553425F494E54525F9A
:10233000524553554D45200D0A00000074786973CD
:102340002026205553425F494E54525F53555350F7
:10235000454E44200D0A00007478697320262055EC
:1023600053425F494E54525F455030200D0A0000E1
:1023700074786973200D0A0072786973200D0A0061
:1023800070797573625F726561645F7061636B65BC
:102390007400000010B504210248FFF739F9FFF777
:1023A000B1FE10BD0004005010B5124C0320206196
:1023B000606111A0A0611348E061012080022062E9
:1023C0000021A16261620120E0620BA222660E4A36
:1023D00062661022A2662167E16660670BA1E01DBC
:1023E000FDF7D4FE0AA12046FDF7D0FE2020A07103
:1023F00010BD0000A00300205465726D696E616C11
:1024000000000000480400204808002052545400F6
:1024100053454747455200000169C268914204D8BC
:102420008068801A4018401E7047881A401E704706
:10243000FFB583B00C9C06460F4678420290002FF1
:1024400001DA029800E03846012503E00599FDF71E
:1024500065FE6D1C05998842F8DA0698A84200D9F5
:10246000069D002C05D0002F02DB0D98400700D5FB
:10247000641E0D98800702D50698002811D00D988B
:10248000C0070ED1002C08D10BE0641E202130467D
:1024900000F0B6F8F068002803DB002C01D0A5425C
:1024A000F3D3F068002834DB002F05DA029F2D21DA
:1024B000304600F0A5F806E00D98400703D52B2123
:1024C000304600F09DF8F068002822DB0D98800768
:1024D000800F022811D1069800280ED1002C08D1B7
:1024E0000BE0641E3021304600F08AF8F0680028C6
:1024F00003DB002C01D0A542F3D3F068002808DBF1
:102500000D980190009439463046069B059A00F0DC
:1025100003F807B0F0BD0000FFB581B00A9C1E466D
:1025200002980127012503E00399FDF7E1FD6D1CE9
:1025300003998842F8D2AE4200D935460B98C007BD
:1025400019D1002C17D00B98800701D5002E02D08E
:10255000202000900BE03020009008E0641E0099DD
:10256000019800F04DF80198C068002803DB002CAA
:1025700001D0A542F2D30198C06800280EDA05B058
:10258000F0BD761E08E039460298FDF7B1FD0399CB
:10259000884201D2194E04E003984743012EF2D934
:1025A000EFE739460298FDF7A3FD0146029A794309
:1025B000511A0291315C019800F022F80198C0682C
:1025C000002806DB38460399FDF792FD0746002FE9
:1025D000E7D10B98C007D2D0002C09D1CFE7641EF9
:1025E0002021019800F00CF80198C0680028C6DB93
:1025F000002CC4D0A542F2D3C1E70000383F000848
:1026000010B50446A0686368421C934205D3236852
:102610001954A260E068401CE060A26860688242D1
:1026200009D121682069FFF727FCA168884203D0FF
:102630000020C043E06010BD0020A06010BDF7B5D1
:1026400082B00546174600200190EC682869A04238
:1026500002D9061B761E03E0A968201A0E1A761E00
:10266000A868001BB04200D80646BE4200D33E46D2
:102670006868324600190399FDF764FD01988019D6
:102680000190039880190390BF1BA419A868A04269
:1026900000D10024EC60002FD8D1019805B0F0BD26
:1026A000F7B504461646E768A068C51BE168606890
:1026B0004018B54206D932460199FDF743FDB819D5
:1026C000E060FEBD2A460199FDF73CFD761B0198AE
:1026D000324641196068FDF735FDE660FEBD30B455
:1026E0007446641E2578641CAB4200D21D46635DAF
:1026F0005B00E31830BC184702E008C8121F08C18D
:10270000002AFAD170477047002001E001C1121F72
:10271000002AFBD170470000FEB5534D2C7C53A11D
:102720000020FFF7F7FB6007002700280ADA57A10F
:102730000020FFF7EFFB287CFB2108402874594854
:102740000770FEBDE00605D557A10020FFF7E2FBAC
:10275000802028745A4E3078002806D059A10020D5
:10276000FFF7D8FB3078287037704E4802785CA1AC
:102770000020FFF7CFFB4B4800780300FFF7AFFFC7
:102780000705216E3F646E646E005AA10020FFF7BA
:10279000C1FBE00762D0687C0828D2D148490822F2
:1027A00020310C46002000F0C3FAF08C002802D043
:1027B00040222A7401E048202874204600F042FE9E
:1027C0004CE053A10020FFF7A5FB318D706B8842D0
:1027D00005D9B26B5218B263401A706303E0B16B53
:1027E0000818B063776351A042680168806801925D
:1027F000009102908020B16B00F0EEFE2EE04EA121
:102800000020FFF787FBE00728D06E7C2C4C324677
:1028100080340020216D00F08BFA206D8019206536
:10282000A06D8119A165204640300089B04208D9C9
:10283000002000F06BFF482028741A480421017022
:102840000CE04020287409E042A10020FFF762FB61
:10285000144807700021802000F0BEFE49A100202E
:10286000FFF758FBFEBD0000005C004068616E642D
:102870006C655F657030203C3C3C3C3C3C3C3C3CE7
:102880003C3C3C3C3C3C3C3C0D0A00005553425F08
:10289000435352305F53454E545354414C4C200DDA
:1028A0000A000000400000205553425F435352305D
:1028B0005F5345545550454E44200D0A000000001A
:1028C00020020020675F70797573625F7564632E04
:1028D0006465765F61646472203E2030200D0A00DA
:1028E0007573625F6570305F7374617465203D2538
:1028F000640D0A005553425F4550305F53544154B4
:10290000455F5345545550203434340D0A000000BF
:102910005553425F4550305F53544154455F494ED3
:102920005F44415441200D0A0000000001020304ED
:1029300001020304010000005553425F4550305F1F
:1029400053544154455F4F55545F44415441200D09
:102950000A0000005553425F4550305F53544154C4
:10296000455F494E5F5354415455537C5553425F24
:102970004550305F53544154455F494E5F5A4C5067
:10298000200D0A0068616E646C655F657030203EE2
:102990003E3E3E3E3E3E3E3E3E3E3E3E3E3E3E0D88
:1029A0000A000000F8B507460C46154678793979D3
:1029B00000020843C0B2797801260B00FFF78FFEB2
:1029C0000C4207131E424242424224303942F978F7
:1029D000BA78090211430A0AC9B201F0FDF9216867
:1029E00008702E602CE0F978BA7809021143C9B258
:1029F00001F0EEF9216808702E6021E001F0EAF99B
:102A0000216808702E601BE029780091F978BA7867
:102A1000090211430A0AC9B2236801F0E1F90FE083
:102A2000F978BA78090211430A0AC9B201F0D6F955
:102A300006E0F978BA7809021143C9B201F0CFF97A
:102A40000020F8BD0020C043F8BD000010B50A48C2
:102A500000F0CAFA084922228C31084800F070FFC1
:102A600000F046FA064800F031FA0548083000F058
:102A70002DFA00F071FF10BD443E0008E401002073
:102A800008000020F8B507460E460024324615A17E
:102A90000020FFF73FFAB0091C4D00900DE0FEF753
:102AA0009DF828780028FAD000202870A001C019CD
:102AB00040221749FDF746FB641C0098A042F0D85D
:102AC000B00602D1F8BDFEF789F828780028FAD0C0
:102AD00000202870B206A001920EC0190C49FDF723
:102AE00031FBF8BD6869645F637573746F6D5F6413
:102AF00066755F726561645F646174612073697A91
:102B000065203D2564200D0A00000000040000201F
:102B100044000020F0B591B007460E4600241FA1E6
:102B20000020FFF7F7F9B009244D109013E0A00141
:102B3000C1194022812000F0B5FB002802DA0020F4
:102B400011B0F0BD0120687001E0FEF747F8687829
:102B50000128FAD0641C1098A042E8D8B0061BD017
:102B600040216846FDF707FBA001B206C119920E8D
:102B70006846FDF7E7FA40226946812000F092FBA3
:102B8000002801DA0020DBE70120687001E0FEF791
:102B900025F868780128FAD00120D1E73E3E68691F
:102BA000645F637573746F6D5F6466755F73656E84
:102BB000645F6461746120200D0A0000040000203D
:102BC00010B50CA10020FFF7A5F9144801780029E1
:102BD00008D000210170002011490A5C7F2A03D02F
:102BE000002010BD002010BD401C4028F5DB012056
:102BF00010BD00003E3E6869645F637573746F6D5D
:102C00005F6466755F7368616B655F68616E64734E
:102C10005F636865636B20200D0A000004000020DC
:102C2000440000200248407F002800D00120704767
:102C3000C4010020FEF7CAF9FEF706FD0021084690
:102C4000FEF75AFB00F0FEF80C4C01231A46042153
:102C5000204600F0EBF8012204212046FEF7DFFCBD
:102C6000FEF7CCF806A10020FFF754F9FEF78AF929
:102C7000FDF7F2FAFDF750FBFCE7000000040050FE
:102C80005553425F49525148616E646C6572202011
:102C90000D0A0000F8B5074615461E46002905D066
:102CA0000A46334609A13846FFF734F9002405E007
:102CB0002A5D09A13846FFF72DF9641CB442F7D309
:102CC00007A13846FFF726F9F8BD0000257320203C
:102CD0004C454E3D25640A00202578200000000068
:102CE0000D0A2D2D2D2D2D2D2D2D2D2D2D2D2D2D57
:102CF0002D2D2D2D2D2D2D2D2D2D2D2D2D2D0D0A47
:102D0000000000000148807B70470000005C00402C
:102D100003460120C200934201D80A807047401C3C
:102D2000C0B20828F6D900200880012070470000B2
:102D3000F7B50F4616463D4634460CA10020FFF776
:102D4000E9F80098114980004018002C05D106E0F0
:102D5000017829706D1C641EA4B2002CF8D1334692
:102D60003A460BA10020FFF795FFFEBD7079757301
:102D7000625F726561645F7061636B657420203CA3
:102D80002D2D2D2D2D2D2D2D200D0A00205C0040E8
:102D900070797573625F726561645F7061636B65A2
:102DA00074200D0A0000000001498873704700007C
:102DB000005C0040F7B50F4616463D4634460CA170
:102DC0000020FFF7A7F80098114980004018002C58
:102DD00005D106E029786D1C0170641EA4B2002C98
:102DE000F8D133463A460BA10020FFF753FFFEBD52
:102DF00070797573625F77726974655F7061636B18
:102E00006574202D2D2D2D2D2D3E200D0A00000046
:102E1000205C004070797573625F77726974655FDA
:102E20007061636B6574200D0A00000000B585B009
:102E3000009101920293022103916946FEF756FB2D
:102E400005B000BD00B587B0142102A8FDF793F9C5
:102E500011494A6B022002434A63496B01400191C8
:102E600005900E49039104900120029002A90C489C
:102E7000FEF73CFB0520FEF733FC0720FEF730FC95
:102E8000002211460520FEF735FC002211460720DE
:102E9000FEF730FC07B000BD00100240000011102A
:102EA0000004005010B500F00FF80020FFF77CFF81
:102EB00004480021017004220272012282724172D0
:102EC000002010BD005C00407047000010B5027883
:102ED0004168064C5006C00D0019FF301306013042
:102EE000002B01DAC16110BDC16310BD8400002058
:102EF000074B997F0177074900E011460A68002ACD
:102F0000FBD1086000210160987F401C98777047D2
:102F1000C40100203000002070B505460E4606486A
:102F2000046806E02269002A02D03146284690470C
:102F30002468002CF6D170BD30000020F0B4037876
:102F40009C07174BA40F1B68012C11D0022C21D019
:102F500022E05C68002C0AD0457906792D021C7F9E
:102F60003543EDB2AC4202D15B68F0BC18471B6838
:102F7000002BEED110E09C68002C0AD04579067930
:102F80002D021C7F35432D0AAC4202D19B68F0BC58
:102F900018471B68002BEED1F0BC0020C0437047DF
:102FA0003000002010B505A10020FEF7B3FF40223D
:102FB0000C49022000F022F910BD00002323232336
:102FC00023757362645F636F6E6669677572655FB0
:102FD000646F6E655F63616C6C6261636B20200D72
:102FE0000A000000440000200249886102480021D4
:102FF0008177704784000020C401002070B5064628
:103000007406640EFFF77EFE05462046FFF7CCFEF1
:103010003206FB211248002A0EDB002C08D0417E2C
:103020009F2211404176417E8022114341760DE07E
:10303000027C0A40027409E0002C0CD0417DCF22B2
:1030400011404175417D4022114341752846FFF7EB
:10305000ABFE002070BD027C0A400274F6E700005F
:10306000005C004010B503A10020FEF753FF0020D4
:1030700010BD0000757362645F65705F636C6F7391
:1030800065090D0A00000000FEB50446002001900D
:10309000207845066D0E002639A10020FEF73AFF84
:1030A0003B4F002D03D0072D0FD9701EFEBD3848B1
:1030B0004023C030038100228272012101733B85CD
:1030C000A038827201730020FEBDFFF71BFE009046
:1030D0002846FFF769FE207801062E4822D41421E5
:1030E0004D43E9196288C0310A8162788A720122EF
:1030F0000A736178012900D1402605460676687E6C
:10310000C00702D09020687601E080206876608851
:1031100001A9FFF7FDFDA876796868468088081840
:10312000786028E02946142359436288C9190A8522
:10313000627820318A7201220A73817AAA4011438F
:1031400081726178012900D1402620210E43054675
:103150000675687D800702D54820687501E040202B
:103160006875608801A9FFF7D3FDA875786869467E
:103170008988401878600098FFF716FE0020FEBD91
:10318000757362645F65705F6F70656E090D0A002C
:1031900020020020005C004070B505466C06640EFD
:1031A000FFF7B0FD06462046FFF7FEFD2D0607227D
:1031B000104B60211048002D0BDB002C04D0417E09
:1031C0002022114341760AE01A70027C0A430274FD
:1031D00005E0002C08D0017D102211430175304616
:1031E000FFF7E2FD002070BD1A70027C0A430274F2
:1031F000F5E7000040000020005C0040F8B50F46F5
:1032000016464406640E1EA10020FEF783FE002F22
:1032100003D1002E01D0781EF8BD2046142148436A
:103220001D494518CC20405D00281AD0FFF76AFDE3
:1032300000902046FFF7B8FD80352F656E650021B0
:10324000A9651648002E0FD0002C15D01449487AD5
:103250000122A240104348720098FFF7A5FD00200C
:10326000F8BD0120C043F8BD002C00D101700098CA
:10327000FFF79AFD0020F8BD03210170ECE7000084
:10328000757362645F65705F73746172745F726599
:1032900061640D0A000000002002002040000020B0
:1032A000005C0040F7B582B00546144641A10020FD
:1032B000FEF730FE6F067F0E23463EA10020039AE4
:1032C000FFF7E8FC0398002808D1002C06D03FA1A6
:1032D000FEF720FE0020C04305B0F0BD1420414998
:1032E000784345182C20405D002813D0FFF70AFDD5
:1032F00001903846FFF758FD3B4E707DC00710D057
:103300003AA10020FEF706FE0198FFF74DFD0220CE
:10331000C043E1E73DA10020FEF7FCFD0120C043D2
:10332000DAE73049039828636C630020A863002C17
:1033300011D0288DA04200D80446A2B23846039985
:10334000FFF738FD002F27D0012070750198FFF797
:103350002BFD0020C0E7002F0AD0012070750198D6
:10336000FFF722FD33A10020FEF7D4FD0020B3E7D4
:10337000C88C002809D032480621017030480078F6
:10338000012806D002203074E9E72D48042101709D
:10339000F4E70A203074E2E729480121017011485E
:1033A000008DA04202D90A203074CFE70220307489
:1033B000CCE70000757362645F65705F737461725F
:1033C000745F7772697465200D0A0000216461746E
:1033D0006120262620646174615F6C656E200D0A91
:1033E0000000000020020020005C00405553422DE8
:1033F0003E494E5F435352312026205553425F4988
:103400004E4353525F4950520D0A000021675F70CE
:10341000797573625F7564632E696E5F65705B6555
:10342000705F6964785D2E65705F656E61626C6562
:103430000D0A000072657475726E2030200D0A004E
:1034400040000020FEB50546384C39A10020FEF7AB
:1034500061FD082229462046FCF774FEE188A08819
:103460006288029101900092637822783B490020A3
:10347000FEF750FDE288FF270137BA4206D92078CF
:10348000000603D48020FFF787FEFEBD274E274DA0
:103490001C36AE60EA602A6100202875002A0CD034
:1034A0002078000609D42EA10020FEF733FDE28823
:1034B0000020A968FFF7A2FEFEBD1C4A204610327C
:1034C0001146083900F0FEFA00282BD0E0882A695E
:1034D000824200D30246EA60A968880705D0BA4252
:1034E000EAD83046FCF72EFEAE6026A10020EA683E
:1034F000FEF710FD2EA10020EB68AA68FFF7CAFBBB
:103500008020EA68A968FFF7CDFEE188286981423A
:10351000D2D98006D0D1012028752BA10020FEF73A
:10352000F9FCFEBD8020FFF737FEFEBD84000020C1
:10353000757362645F6576656E745F6570305F7326
:10354000657475705F636F6D706C6574655F6861DD
:103550006E646C6572200D0A00000000483F000890
:1035600053746172742072656164696E67202564AA
:103570002062797465732066726F6D206570300DFE
:103580000A0000002053656E642064617461206F3E
:10359000722073746174757320746F20686F737414
:1035A00020206C656E203D202564200D0A0000005F
:1035B000757362645F65705F73746172745F777254
:1035C0006974653A0D0A0000455030205365742037
:1035D0007A6C70200D0A000070B505460E46334621
:1035E0002A4622A10020FEF795FC2E4C802D0BD000
:1035F0006806C00D0019FF300130C269002A02D0F0
:1036000031462846904770BD264DA0688019A060BD
:10361000E068831BE360324623A10020FEF77AFCBA
:10362000E268002A04D08020A168FFF73BFE70BD4D
:10363000207D01280FD025A10020FEF76BFCE88833
:103640000028F4D02878C009F1D000221146104695
:10365000FFF7D4FD70BD0020207528A1FEF75AFCAD
:10366000002211468020FFF71DFE70BD7573626455
:103670005F6576656E745F65705F696E5F636F6DC1
:10368000706C6574655F68616E646C65722020653E
:10369000703D2564206E62797465733D25640D0A62
:1036A00000000000840000204550302073656E64E7
:1036B0002025642062797465732C2025642072654E
:1036C0006D61696E65640D0A0000000053617469E4
:1036D000736679696E6720746872656520636F6EC2
:1036E000646974696F6E732077696C6C206A756D9C
:1036F0007020686572650D0A00000000455030209A
:1037000053656E64207A6C700D0A000070B5054632
:103710000C461BA10020FEF7FDFB234B002D0BD018
:103720006806C00DC018FF300130C26B002A02D0FD
:1037300021462846904770BD1B48002CFBD0996855
:1037400009199960DA68121BDA60002A03D0002098
:10375000FFF754FD70BD14491C3199600A460C3ABC
:10376000143900F0AFF9002805D00022114680205E
:10377000FFF798FD70BD8020FFF70EFD70BD0000C3
:10378000757362645F6576656E745F65705F6F7593
:10379000745F636F6D706C6574655F68616E646C97
:1037A0006572200D0A0000008400002038B500205A
:1037B00000F0F0F80B480024047744774020694675
:1037C00048804C70802008706846FFF75DFC6946B1
:1037D0000C706846FFF758FC00210120FFF79CFBA6
:1037E00038BD0000C4010020F0B503468C4600251A
:1037F00000201C0ADEB22349032C01D1EE2E08D092
:103800000F2C12D0042C02D0052C00D019D9002086
:10381000F0BD4868002806D0614603680B60007957
:1038200010600120F0BD0020F0BDC868002806D05F
:10383000614603680B60406810600120F0BD002005
:10384000F0BD11498B6908E05978A14204D1B54215
:1038500001D1012004E06D1CFB181F78002FF3D16B
:103860000028EDD061460B60022C04D0072C02D05A
:1038700019781160F0BD9978DB781B02194311604B
:10388000F0BD0000300000208400002010B50A4682
:1038900003A10020FEF73EFB0F490020487010BD39
:1038A00023232323232323232323757362645F6845
:1038B00069645F637573746F6D5F696E5F63616C7C
:1038C0006C6261636B206E6279746573203D2025A4
:1038D0006420200D0A0000000400002010B50A46F4
:1038E00006A10020FEF716FB1349012008704022B4
:1038F00012490220FFF782FC10BD0000232323237E
:103900002323232323232323232323757362645F29
:103910006869645F637573746F6D5F6F75745F63FF
:10392000616C6C6261636B206E6279746573203DBB
:1039300020256420200D0A000400002044000020FF
:10394000044B436000238360C36003614161826173
:1039500070470000A529000810B5FFF7A3FA10BDB5
:10396000704708B581786B46197042790379120265
:103970001A435205520D6B465A80C0788007800F5B
:1039800058700846FFF76EFB002801D0002008BDE4
:10399000012008BD10B5044606A10020FEF7BAFAC2
:1039A000002C02D10849002008700848047000204B
:1039B00010BD0000757362645F7365745F61646459
:1039C00072657373090D0A00005C0040200200203C
:1039D000F3B581B0074612488469FF26FF25002110
:1039E00019E06078022804D0042807D0052810D1F7
:1039F00006E06579BD420CD101210AE0E67808E0D5
:103A0000BD4206D10298864203D1204600F00AF852
:103A100001462078041920780028E2D10846FEBD2E
:103A20008400002008B581786A46117041790279D6
:103A3000090211434905490D6A465180C078800743
:103A4000800F50706846FFF71FFB002801D0002050
:103A500008BD012008BD0000F3B581B01848846995
:103A600000200090FF25FF2600271FE06078042833
:103A700002D0052818D109E0E578A6780198864299
:103A800012D1029885420FD100940DE00198864230
:103A90000AD1204602998D4203D0FFF762FF074604
:103AA00002E0FFF7BFFF07462078041920780028BE
:103AB000DCD108200099FFF72FFA3846FEBD000040
:103AC0008400002010B5044623786020034005D010
:103AD000202B0DD0402B15D0002010BD204600F02B
:103AE0001DF8002818DA2046FFF73AFF002010BD25
:103AF0002046FFF723FA00280EDA2046FFF730FFB2
:103B0000002010BD204600F015F9002804DA2046F8
:103B1000FFF726FF002010BD012010BD70B5002466
:103B200003780E4D9B079B0F06D0012B0AD0022B6A
:103B30000ED02C46204670BD00F012F80028F9D1B6
:103B40002C46F7E700F09AF80028F3D12C46F1E76D
:103B500000F052F80028EDD12C46EBE7FFFFFFFF05
:103B6000F8B503461546D8789A7800021043012428
:103B70005A7800261300FEF7B2FD0C070E390E39F5
:103B800010151A1C21373739086806700868467006
:103B9000022028602BE02E6029E0C0B2FFF7FAFE79
:103BA0002E6024E02A46FFF71FFE04461FE0002493
:103BB0001DE0104808600120286018E0C7B23846B0
:103BC0000021FFF705FF00280CD00A481D38477771
:103BD0000121017700210720FFF79EF9FFF7E2F9A5
:103BE0002E6004E00024FBE7002400E000242046CF
:103BF000F8BD0000E1010020F7B582B00546164689
:103C00006879297900020843C0B201900124FFF7C6
:103C100009F800280DD06878002700280BD001286B
:103C200012D003281CD00C2826D00024204605B032
:103C3000F0BD0020FBE70398006807700398006858
:103C4000477002203060F1E7E878A9780002084365
:103C500002D000243760E9E70198FFF7CFF9E5E7E4
:103C6000E878A9780002084302D000243760DDE735
:103C70000198FFF791FAF9E70024D7E7FEB504466B
:103C80000D461746E078A17800020843000A01902B
:103C90006079217900020843C0B200900126FEF746
:103CA000C1FF00280AD060780300FEF718FD0C0958
:103CB000263D263D3D113D3D3D282E3D0020FEBDCB
:103CC00029680020087029684870022038602CE0BC
:103CD000019822280FD1164800680AE0027F009957
:103CE0008A4205D141692960806938600120FEBDA2
:103CF00000680028F2D1002617E0002615E02968A8
:103D000000200870012038600FE0E078A178000200
:103D10000843C1B26079227900021043C0B2FFF7B4
:103D20009BFE0020386000E000263046FEBD00000B
:103D300030000020F8B505460E461746234948686E
:103D400000281AD06978427991422CD169792A7970
:103D500009021143042904D0052908D00020C043DA
:103D6000F8BD81683160808938600020F8BD016944
:103D70003160808A38600020F8BD8868002812D041
:103D80006978827991420ED169792A7909021143C1
:103D9000072902D00020C043F8BD01683160808847
:103DA00038600020F8BD0948046809E0E368002B8A
:103DB00005D03A46314628469847002804D0246862
:103DC000002CF3D1601EF8BD0020F8BD30000020AB
:103DD00000207047002070470020704770477047F0
:103DE000704700000000000000000000000000001C
:103DF00000000000000000000000000000000000C3
:103E000000000000010000000200000003000000AC
:103E10000400000006000000070000000800000089
:103E20000900000000093D0000127A000024F4009F
:103E30004086510100366E0100093D0000093D0039
:103E400000093D001201000200000040FFFF48048D
:103E50000200010203010902290001010080320968
:103E600004000002030100000921110100012222C7
:103E7000000705810340000107050203400001041B
:103E80000309040803410052004D002E0341005273
:103E9000004D002000440065007600690063006565
:103EA00000200069006E00200044004600550020FC
:103EB000004D006F006400650016033200300032D0
:103EC0000033003000330032003300310030000096
:103ED0000600FF0901A1010901150026FF00954018
:103EE000750881020901150026FF009540750891AB
:103EF00002C0000102112131446373829203050064
:103F000004000100001BB7000024F40000366E011D
:103F100000366E0100093D0000127A000024F40012
:103F20004086510100366E010200000003000000CF
:103F300002000000020000003031323334353637E1
:103F4000383941424344454653657475703A20629E
:103F50006D5265717565737454797065203078257C
:103F60003032782C20625265717565737420307818
:103F7000253032782C207756616C75652030782595
:103F80003034782C2077496E64657820307825307D
:103F900034782C20774C656E677468203078253033
:103FA00034780D0A00000000C83F0008000000201F
:103FB000E4010000C4010008E43F0008E40100201F
:103FC000740A0000082700081153127A3281138DF9
:103FD000383308021ADD085112042A500432040250
:043FE000FF0101BC20
:04000005080000C12E
:00000001FF
