:020000040800F2
:10000000E8200020D5000008A52B0008212A0008C0
:1000100000000000000000000000000000000000E0
:10002000000000000000000000000000952E000805
:100030000000000000000000ED2B0008972E0008D3
:10004000E7000008E7000008F12B0008E7000008BF
:10005000E7000008810A00088B0A0008950A0008DA
:10006000E7000008E7000008E7000008E7000008D4
:10007000CD070008E12E0008E7000008E7000008AF
:10008000E7000008E7000008E7000008E7000008B4
:10009000E7000008E7000008E7000008E7000008A4
:1000A000E7000008E7000008E7000008E700000894
:1000B000E7000008E7000008E70000087D330008BB
:1000C0000348854600F024FB00480047DD3C00085B
:1000D000E82000200448804704480047FEE7FEE788
:1000E000FEE7FEE7FEE7FEE7B12E0008C1000008CC
:1000F00030B50B46014600202022012409E00D46C0
:10010000D5409D4205D31D469540491B2546954047
:1001100040191546521E002DF1DC30BD70B500248B
:100120002546002801DA01244042002901DA012590
:100130004942FFF7DDFFAC4200D04042002C00D026
:10014000494270BDFFB585B006460698144602AD1B
:10015000022846D3002C44D0002003902846803843
:1001600006990027491EFF430191009023E0604358
:10017000801961438A1901461046089A9047002861
:1001800004DCB8002958C919295014E068682246CF
:10019000604381190098C06F6043801908E00B78B4
:1001A0009C4603780B7063460370401C491C521E2A
:1001B000002AF4D17F4200986968C06F8842D6DC7B
:1001C00022463046089BFFF7BDFF00980699C06F96
:1001D0002246091A401C60438019491E089BFFF7FC
:1001E000B1FF09B0F0BD03460B439B0703D009E004
:1001F00008C9121F08C0042AFAD203E00B78037062
:10020000401C491C521EF9D27047D2B201E0027064
:10021000401C491EFBD270470022F6E710B513467A
:100220000A4604461946FFF7F0FF204610BD034674
:100230000A780270401C491C002AF9D11846704700
:10024000F8B502464A40D40F42004B0052085B0802
:100250009A4202D20246084611464A0023D0C30DF4
:100260004A00DDB2120EAD1A202D35DA4902012600
:10027000490AF6058A19002C00D0524220214F1B52
:100280001146B9402A411018C20D9A4221D0002CC3
:1002900017D0012D08DCDA05801AD20F8019D20799
:1002A000DBB200F09CF9F8BDDA05801A01234000AA
:1002B0001B06C01880185A428018CA0F1043490004
:1002C00007E04908C2071143DA05801A801940087F
:1002D000801800F07CF9F8BD61000122511A001B62
:1002E000F7E70122D2075140AAE70122D207504086
:1002F000A6E7024670B54A40D30FDB0740002DD079
:100300004A002AD0010E140E000212020919400AF6
:10031000520A8418E50104465443000A120A2E04C6
:100320005043A4194219200CC543AA18120C0125E8
:10033000AD03521C521912047F39240400D0521C00
:10034000104301D44000491EC2B20C06C009201857
:10035000401C4008802A02D003E0002070BD400805
:100360004000002900DA0020184370BD70B5024635
:100370004A40D50F40004A00ED07400852080028C7
:1003800014D0002A12D0C40DD30D41020120C005A3
:100390005202490A520AE41A091812187D3491428D
:1003A00001D3641C00E04900002C01DA002070BD7C
:1003B0000023914201D3891A0343400849000028D1
:1003C000F7D100290AD0914202D10121C90705E0E5
:1003D000914201D2012101E00121C943E005C01889
:1003E000401900F0F4F870BD420005D04200120E32
:1003F00052428A4201DB00207047C9050818704745
:10040000F0B51FB488B00B990998002448400999A9
:10041000C00F490049080991C0070B990090490095
:1004200049080B9109990898A64608431CD00B99D6
:100430000A98084318D0099801244000420D48004A
:10044000410D099824050003000B204309900B98E7
:100450000003000B20430B9050181C494018002249
:1004600001901446104605E0002001460DB0F0BD95
:10047000032801DA034600E003239C46C11A0AAEB2
:100480000AE05F0008ADED5B4F00F75B7D4300279E
:10049000AA187C41491C5B1E6145F2DD410004AB9A
:1004A0005A522104120C0A43240C401C0828DFDB9A
:1004B000019802900099704601910090059B049A62
:1004C0000799069800F0D1F8D0E700000DFCFFFF77
:1004D00070B54B005B0803430BD04B005C0D00264E
:1004E00033466542B341D417AD1AA34102DB002065
:1004F000014670BD12053018514170BDC217C10FC1
:10050000504010B54018CA079623002100F067F844
:1005100010BD10B500229623114600F060F810BD02
:100520000EB5C217C10F5040CA0740180021054B35
:100530000293019200910A460B4600F096F803B030
:1005400000BD0000330400000EB5054902910021F2
:1005500000910A460B46019100F087F803B000BDF8
:1005600033040000C20F410040020123400ADB05B2
:10057000D207090EC0187F2901DA0020704796299A
:1005800003DC9623591AC84001E096398840002AB6
:10059000F4D040427047CB0FDB07490010B5490843
:1005A00002460A4307D00A0D07240903E401090B98
:1005B000121B002A01DC002010BDC900440F0C43AF
:1005C000C100E018D205801800F001F810BD002924
:1005D00004DA401C490001D140084000704770B463
:1005E0000024050C05D11024000402D1002921D0DB
:1005F0001124050E01D100020834050F01D10001BC
:10060000241D850F01D18000A41C002801DB4000BF
:10061000641C002908D020252E1B0D46F540A14062
:1006200000D001212943084301061B1B000ADB1DE2
:1006300002D5002070BC7047DB051818801800290F
:10064000F8DA401C4900F5D170BC40084000704702
:1006500010B5002B08DA0024401C614192185B4160
:100660001A4301D14008400010BDF0B51FB482B05C
:1006700005460C0003D0084603F005F802E003F03D
:1006800002F82030024600902146284600F052F839
:10069000049B059A04460F4618431143084314D09F
:1006A000184610431BD0009840210A1A1846059995
:1006B00000F050F805460E46009A0599049800F09F
:1006C00039F8084305D0012004E02046394607B038
:1006D000F0BD0020C11705430E432C43374300995A
:1006E0000E986305401A7905E40A00220C43FD0ABE
:1006F0000A3002D500200146E9E7010510196941D9
:100700000C9C0D9D00196941FFF7A2FFDFE7000077
:10071000064C0125064E05E0E36807CC2B430C3C54
:1007200098471034B442F7D3FFF7CEFCCC590008F9
:10073000EC59000810B5202A04DB0146203A91400C
:10074000002010BD914020239C1A0346E34019432A
:10075000904010BD10B5202A04DB0846203AD04056
:10076000002110BD0B46D340D0402024A21A914056
:100770000843194610BD70B58C180578401C6B07EE
:100780005B0F01D10378401C2A1106D10278401C6E
:1007900003E006780E70401C491C5B1EF9D12B0744
:1007A00005D40023521E0DD40B70491CFAE70378C0
:1007B000401CCB1A921C03E01D780D70491C5B1C79
:1007C000521EF9D5A142D8D3002070BD10B5034800
:1007D00000F0DEFA024800F049FC10BD14050020CC
:1007E0006407002070B5044600688168C943C907E2
:1007F0001BD1816849084900816000F003FF05466C
:100800000EE000F0FFFE401B022809D9E06A10212B
:100810000843E062206B012108432063084670BD55
:1008200020688068C043C007EBD0002070BD000086
:10083000F8B500260446009600688168C943C907D8
:100840002FD0816801273943816010202168C0437F
:100850000860216840100860144813490068FFF7D9
:1008600047FC1421484300E0401E00900028FBD1C3
:1008700000F0C8FE05460FE000F0C4FE401B022851
:100880000AD9E06A10210843E062206B38432063F4
:10089000203426720120F8BD20688068C043C0075C
:1008A000EAD10020F8BD000040420F000000002007
:1008B0007047000010B58AB0142104A8FFF7ACFC03
:1008C000002418480094019402940394C26B01041C
:1008D0000A43C263C26B0A400992426B02210A4377
:1008E0004263406B084009908020049003200590EB
:1008F0000120069004A90C4800F0ECFD0B48039081
:100900007020029001940094684600F0DFFE0022FF
:100910001146012000F0D6FE012000F0C9FE0AB009
:1009200010BD000000100240000400500300010050
:1009300010B590B030216846FFF76EFC00240F2000
:100940000F940090FF200130059013480C940D94F3
:100950000E940694008C0121C004C00CC9034018F9
:10096000079001200894099001940394684601F0CF
:10097000A5F9002801D0FFF79BFF07200C900D94EC
:100980000E9400210F940CA801F07AF8002801D0F1
:10099000FFF78EFF10B010BD0032FF1F00B50B48EF
:1009A000016AC90405D40A494A68FF2381331A43FE
:1009B0004A60006A000506D407480649016007211D
:1009C00041600649816000F00BF800BD0020024044
:1009D000002C00405555000000300040FF0F000083
:1009E000044801687F2211430160044902480860FD
:1009F00070470000002C0040AAAA00000030004010
:100A000070B5054600F0FEFD040000D1012420462B
:100A100004F0BCF9A842FADB70BD06214843014648
:100A2000401E0029FBDC704770B5054602F06DF8EA
:100A3000124C207802F052F801F0F3FF002803D0A6
:100A400002F077F8012070BD28462021084302F00B
:100A500045F801F0E6FF02F058F82078012108433C
:100A600002F03CF801F0DDFF02F011F8044601202D
:100A700002F027F802F05DF8204670BD3800002033
:100A800010B5012000F01AFD10BD10B5082000F0CF
:100A900015FD10BD10B5012000F010FD0120400330
:100AA00000F00CFD0120C00200F008FD0120400212
:100AB00000F004FD10BD000010B502F026F8134C44
:100AC000207802F00BF801F0ACFF01F0AAFF00283B
:100AD00003D002F02EF8012010BD802001F0FEFFAF
:100AE00001F09FFF02F011F820780121084301F086
:100AF000F5FF01F096FF01F0CAFF0446012001F066
:100B0000E0FF02F016F8204610BD0000380000207B
:100B1000FEB500260546044620350196287A0128B0
:100B200008D0012028722046FFF75CFE00900028C4
:100B300002D04DE00220FEBDE06A11210902884387
:100B400002273843E062780300F0FEFD01462248A8
:100B50000068FFF7CDFA400000E0401E0190002839
:100B6000FBD120688168C90721D18168082211431F
:100B7000816000F047FD019005E000F043FD019920
:100B8000401A0A2813D8206880680007F5D4206826
:100B9000816804221143816000F034FD01900EE071
:100BA00000F030FD01460198081A0A2807D9E06ACA
:100BB0001021B8430843E0622E720120FEBD206878
:100BC00080684007ECD4E06A80088000401CE06246
:100BD0002E720098FEBD0000000000207047704794
:100BE0000068006D704770477047704700690840A3
:100BF00000D001207047704770477047A02704233A
:100C0000F8B50025044620340095227A012A13D035
:100C1000012222724A681F23072A0FD20768BE6B7F
:100C2000BC46521E9700D21993409E430B686746FC
:100C300093401E43BE631CE00220F8BD07680D2AE6
:100C4000BC460BD27E6BD21F9700D21993409E43B5
:100C50000B68674693401E437E630AE03E6B0D3A85
:100C60009700D21993409E430B68674693401E43FA
:100C70003E630A680723142A0DD30768FE68BC4642
:100C8000143A5700D21993409E438B6867469340AD
:100C90001E43FE6019E007680A2ABC460BD33E6972
:100CA0000A3A5700D21993409E438B686746934097
:100CB0001E433E6109E07E695700D21993409E436E
:100CC0008B68674693401E437E610A68102A01D0F4
:100CD000112A20D1124B02689A4217D19068000263
:100CE00019D490680123DB05184390600868102828
:100CF00011D10D480B490068FFF7FAF90A21484362
:100D000000E0401E00900028FBD104E0C16A2022D0
:100D10001143C1620125002020722846F8BD000061
:100D20000024014040420F000000002010B504469E
:100D300000F068FC2046FFF753FF134982B24A8057
:100D4000C86801280BD0002812D0042816D04A8188
:100D5000092816D0012803D0042810D009E0CA8041
:100D60000420C86003F0BEFA084800F033F910BD53
:100D70008A800920C86003F0B5FA10BD0A810020FE
:100D8000EFE70120EDE7000024000020140500201B
:100D900070B504460068416801258906002926DAF5
:100DA0000168890723D5E16AC90603D4E16A6A02AA
:100DB0001143E16281680903490F072910D1217CA1
:100DC00000290DD14168202291434160E06AD100A1
:100DD0008843E062E06AC00402D4E06A2843E0622B
:100DE0002046FFF7A3FF12202168C0430860206857
:100DF000416809062FD5016849072CD5E16AC90663
:100E000004D4E16A012252031143E162816849047A
:100E1000490F07290AD04168490515D4816809039B
:100E2000490F072910D1217C00290DD1416880226A
:100E300091434160E06A51018843E062E06AC00585
:100E400002D4E06A2843E0622046FFF7C7FE0C2088
:100E50002168C04308602068416849060ED50068D3
:100E6000C0070BD0E06A012109040843E062204674
:100E7000FFF7B9FE01202168C043086020680168BF
:100E8000890610D5416889000DD58168064DC905D0
:100E900007D5216B02221143216305602046FFF72D
:100EA0009EFE2068056070BDDFFFFFFFF8B50025DE
:100EB0000446002803D0E06A002802D008E00120A0
:100EC000F8BD00202063282108552046FFF78CFE3E
:100ED0002046FFF787FC0146E06AC00601D40029DE
:100EE00004D0E06A10210843E06267E0E06A112262
:100EF0001202904302221043E062A268206A267C1C
:100F0000024370000243FF23E0680133984208D097
:100F1000012806D0002067683843277E012F02D0C1
:100F20000BE01846F7E7002E1ED0E66A20273E4366
:100F3000E662266B01273E43266327687E68BC462F
:100F4000204F3E40064367467E602668B0681E4FCD
:100F500038401043B060E06898420CD001280AD0B5
:100F6000207E012807D00AE0E66903277603FF0206
:100F7000F61B3043E1E7A08A144B0005C518206832
:100F8000036B0F263605B3432B4303632068806849
:100F90000F4B1840904207D100202063E06A800880
:100FA0008000401CE0620AE0E06A022188431021D0
:100FB0000843E062206B01210843206301210846B9
:100FC000F8BD0000FF16FFFCFDF7E1FF0000F0FF99
:100FD000FE0E1FFF70B5054604462035287A01280D
:100FE0000BD0012028722046FFF722FC014600208A
:100FF000002904D02872084670BD022070BDE26A44
:10100000184B1A40FF2301331A43E26223685A68DF
:10101000520506D5E26A01267603B24376103243C2
:10102000E262E26AD20404D5226B0426B243226350
:1010300000E0206328722220C043186020684268C4
:10104000094B1A434260206882681203520F072A34
:10105000826803D05B121A438260CCE705231B052C
:10106000F9E70000FEFDFFFF2000002070B5114BE6
:101070000168994202D10121490408E00D4A103269
:10108000914202D10121890401E0012109051A6878
:101090000125ED029C682A40074B2C40DD680E4676
:1010A000AE4306D1224301D003214904D96000F0A8
:1010B000F7F870BD0002014000180240F8B5044680
:1010C00000200090002C05D025462035697B0029A2
:1010D00003D007E001200090B1E028732063204690
:1010E000FFF783FDE1682069A2680843216A114384
:1010F000084321680A68534B1A4002430A60606A39
:1011000000280FD000042168401C48604E4A4E4819
:1011100021681032814201D0914217D121692C29D6
:1011200006D013E020684168490849004160EDE7B6
:1011300001680123DB069943636919430160016873
:101140007F231B059943A369194301603E4E012784
:10115000E1693F04022320360129216805D081423C
:101160000FD10B68BB430B6012E0814202D10B68C8
:101170003B43F8E7914201D0B14209D10F681F43C8
:1011800005E0914201D0B14202D10F689F430F6048
:101190002168B14216D001216368C9028B4205D192
:1011A00003688B43036083680B430AE00326F6025F
:1011B000B342036801D10B4300E08B4303608368B3
:1011C0008B4383602168814202D10120400406E004
:1011D000914202D10120800401E001200005A26AB1
:1011E0001A49930725D0D306194A136801D503433A
:1011F00000E083431360238D9B06536801D50343AE
:1012000000E083435360D060228D92074A6801D585
:10121000024300E082434A60228DD20702D00A686E
:10122000024301E00A6882430A60687B002804D018
:1012300005E04A6882434A60F4E701206873009839
:10124000F8BD00000274F3BF0002014080180240A4
:101250000018024038B500210C460091002804D047
:10126000014620314A7B012A02D00124204638BDA4
:101270000068026801231A4302600220487307488D
:1012800005490068FEF734FFC00000E0401E0090F2
:101290000028FBD1EAE70000400D03000000002019
:1012A00010B5054C2068002805D100F0ABF9401CB2
:1012B000206002F0FBFE10BDE0000020F0B500232E
:1012C00055E001249C4022460A404FD09E082A4DFA
:1012D000B60075192F6EAC469D07EE0E0F25B54072
:1012E000AE463D4005273F07B84201D100270AE03E
:1012F000224FB84201D1012705E0214FB84201D168
:10130000022700E00327B740AF4214D11A4E8036BF
:10131000356895433560756895437560164E356838
:101320009543356075689543756065462D6E7246C8
:1013300095436246156605685E000322B240154378
:101340000560DD08AD002D182E6AAC465D07EF0E76
:101350000F25BD40AE4365462E6285689543856086
:101360004568A5434560C4689443C4605B1C0A4655
:10137000DA40A6D1F0BD0000001802400004005081
:101380000008005070B52D4C86B0012815D00828F3
:1013900020D001256D03A8422DD103F095FCE06B10
:1013A000401CE06300F02EF9206300F02BF9E16BA4
:1013B000009103462A4622A118E003F03FFC606B2F
:1013C000401C606300F01EF9616B0091034601222E
:1013D00025A10BE003F032FC606B401C606300F061
:1013E00011F9616B00910346082229A1002001F048
:1013F0007BFC06B070BDC11FFF39FA39F9D1E06A34
:1014000003F0C4FC0546A06A03F0C0FCE36BA16BCB
:10141000626BCE1AD31A0090521A019502A84EC0E0
:1014200025490020E36AA26A01F05EFC00F0EAF8B8
:10143000E062A06B401CA063DBE700004C000020D2
:1014400050494E5F464C4153485F494E202073201F
:101450002564202025642020636F756E7420203D54
:10146000202564200D0A000050494E5F43414D4540
:101470005241202020202564202025642020636FF5
:10148000756E7420203D202564200D0A00000000A8
:1014900050494E5F464C4153485F42542020202023
:1014A0002564202025642020636F756E7420203D04
:1014B000202564200D0A00006059000810B5044979
:1014C000CA68024202D0C860FFF75CFF10BD00008E
:1014D00000180240F0B5002381E001249C402A4618
:1014E000A44622407AD04C68022C01D0122C0CD198
:1014F000DC08A40027183C6A5D07ED0E0F26AE40FD
:10150000B4430E69AE4026433E6205685E00032484
:10151000B4400F79A543BF07BF0FB7402F43076003
:101520004D68012D05D0022D03D0112D01D0122DB3
:101530000ED18568CF68A543B7402F4387604768C1
:101540006546AF430D79ED06ED0F9D403D43456087
:10155000C568A5438C68B4402C43C4604C68E40063
:101560003CD59D08214CAD002F193C6E9D07EE0E19
:101570000F25B540AC4305252D07A84201D1002514
:101580000AE01B4DA84201D1012505E0194DA842F2
:1015900001D1022500E00325B5402543134C3D66EB
:1015A000124E803635684F689543FF0300D51543CA
:1015B000356075684F689543BF0300D51543756066
:1015C00025684E689543F60200D515432560656889
:1015D0004E689543B60200D5154365605B1C0A68EA
:1015E0001546DA4000D078E7F0BD00000018024050
:1015F0000004005000080050002A01D081617047AB
:101600008162704701488068704700000400002034
:101610000248816842688918816070470400002090
:1016200010B50024204600F009F8002801D001245C
:1016300001E000F027F8204610BD000070B50F4E05
:10164000002471680546002915D07D20C000FEF7F2
:101650004FFD01460A480068FEF74AFD00F078FD9C
:10166000002808D1042D06D200222946401E00F091
:1016700029F8356000E00124204670BD04000020F8
:101680000000002008B509480168012211430160EB
:1016900000681040009005484038C26B01040A43BE
:1016A000C263C06B0840009008BD000040100240BB
:1016B000C106C90E0120884001490860704700003A
:1016C00000E100E010B501F06FFA10BD30B54268DE
:1016D000816803681143194A5468194D2C4023430B
:1016E00019435160174B5968012212049143596004
:1016F000196891431960134980394C6894434C60D0
:101700000C6894430C60C468E40302D51C6814435D
:101710001C60C468A40302D55C6814435C60037B4E
:10172000DB0702D00B6813430B60007B800702D5F8
:10173000486810434860002030BD00000070004041
:101740008BF0FFFF80180240F0B585B005460024FD
:1017500014226F496846FEF746FD012676046D4A5D
:10176000B1108B116B48403AB54215D1C5690326BB
:101770003602076A3540BF0701D59D424ED0C06989
:10178000800702D5E81FF93848D01068800302D5D9
:10179000B54200D1604CB8E0302D60D006DC012DA0
:1017A0001ED0022D3CD0202D19D149E0FF3DFF3D38
:1017B000AD1E58D01F214902691A75D00B239B0317
:1017C00099420CD14069402108401168890301D534
:1017D000402859D01168890101D5002856D094E0DD
:1017E000426980231A4016D0036A9B0707D5C36954
:1017F0009B0104D4C369DB0101D5802A0ED0C369E3
:101800009B0707D5C3699B017FD5C069C0017CD503
:10181000802A03D079E000F0DFF96FE00C4674E035
:101820004269FF2301330CE0C569AD076DD5C56979
:10183000AD016AD5C069C00123E09A42EED064E0F0
:1018400042691A40E7D0056AAD07EDD5C569AD011B
:10185000EAD4C569ED01E7D59A42E5D1DEE74269F0
:1018600001239B02EDE7426903239B041A40D2D077
:10187000056AAD0703D50125AD04AA42CED0C069E3
:1018800080070028D9DB40E0244C3EE0D068810787
:10189000D068890F0007800F801C022909D0032916
:1018A00003D00498440030E00EE01C4904464C4349
:1018B0002BE051680904490F042900D9002189004F
:1018C0006A465458444320E0106803214905084003
:1018D00007D001214905884207D100F07DF984082D
:1018E00013E000F079F944080FE0012189058842EE
:1018F00006D100F071F90621FEF7FAFB044604E078
:10190000012802D100F068F9C408204605B0F0BDF6
:1019100040580008401002406CDC020000366E01A6
:10192000F8B5044600680027514E524D800354D547
:10193000F06BC00007D4F16BA8050143F163F16BB4
:101940000140012700914C480168C90511D4016884
:10195000821511430160FFF755FE009005E0FFF787
:1019600051FE0099401A022824D843480068C00557
:10197000F5D5E86903210902084020D0A2690A4090
:1019800082421CD0E869EA698843012109040A43BC
:10199000EA61EA698A43EA61E861C0070FD0FFF7AC
:1019A00031FE009008E0FFF72DFE0099411A334800
:1019B000814201D90320F8BDE8698007F3D5E869C1
:1019C000032109028843A1690843E861002F04D07C
:1019D000F16B012000078143F1632078C00705D037
:1019E00068698021884361680843686120788007BE
:1019F00006D56869FF2101318843A1680843686101
:101A00002078800606D56869012149028843E1688B
:101A10000843686120788006800F032806D1686932
:101A20000121890288432169084368612088800573
:101A300006D56869032189048843616908436861A0
:101A400020688003800F032805D1686940218843FE
:101A5000E169084368612088400406D530680321A5
:101A600049058843216A084330600020F8BD000022
:101A70000010024040100240007000408813000037
:101A8000F8B50F46060043D04D4D28688007800FFB
:101A9000B84213D228688008800038432860FFF7D6
:101AA000B1FD044605E0FFF7ADFD011B454881424D
:101AB00061D828688007800FB842F4D13068424C62
:101AC00081070DD5400704D5A06807210903084305
:101AD000A060A0680F2109028843B1680843A06094
:101AE0003078C00732D0706801280AD000280BD0A7
:101AF00002280FD03449403104280ED0096A8907E2
:101B000004E02168890301E021684905002906DB1A
:101B10000120F8BD21688901F8E7C969EFE7A168EC
:101B2000C908C9000143A160FFF76CFD009006E001
:101B3000FFF768FD0099411A224881421BD8A0682E
:101B4000382108407168C9008842F1D128688007AF
:101B5000800FB84217D91A480168890889003943AB
:101B60000160FFF74FFD054607E0FFF74BFD411B06
:101B70001448814201D90320F8BD1148006880074C
:101B8000800FB842F1D13078400706D5A068072110
:101B900009038843F1680843A06000F031F8A168A8
:101BA0003C2289091140094A515CC906C90EC84046
:101BB0000749086007480068FFF740FDF8BD0000CE
:101BC0000020024088130000001002408C570008DB
:101BD00000000020040000200648074900688968CA
:101BE0001C22890A1140054A515CC906C90EC84029
:101BF000704700000000002000100240CC57000891
:101C000010B58AB014222A4904A8FEF7ECFA284B32
:101C10006C4614330FCB0FC4264A906804AB800681
:101C2000400F18D090688006400F012823D090689C
:101C30008006400F022820D090688006410F0120C6
:101C4000C003042905D091688906490F032900D0F3
:101C500000200AB010BD106801218004400F8140AF
:101C600050680004400F042800D900208000185854
:101C7000FEF73EFAEDE71048EBE7D0688107D06841
:101C8000890F0C2420406C462058022906D00329D5
:101C900001D008990AE008494843DAE75168090485
:101CA000490F042900D90021890059584843D0E739
:101CB0001C5800080010024000366E01F0B5040008
:101CC000F94887B006C80292019103C804910390B5
:101CD00079D020783827C007F44D002851D0A86863
:101CE000E96838408907890F102802D0082817D0E2
:101CF00001E0032914D001229204616890100029A8
:101D00001DD0A1680029E3D02B699B089B000B43E1
:101D10002B61616881420AD129680143296014E07E
:101D2000286880032DD560680028D1D029E00523DC
:101D30001B04994203D1296811432960ECE7296803
:101D400081432960286890432860606800280CD08F
:101D5000FFF758FC064604E0FFF754FC801BC82838
:101D600076D828688003F7D50BE0FFF74BFC0646D2
:101D700004E0FFF747FC801BC828F1D828688003DF
:101D8000F7D42078800775D5AE68E8683E408007B4
:101D9000800F102E02D0002E16D001E0022813D0A2
:101DA0006069002855D028680721C9028843A169C5
:101DB000084328602868FF21013108432860FFF7A5
:101DC00021FC06463AE0A9E02868400502D5606992
:101DD000002898D06868E169000C00040843686036
:101DE000FFF710FC074604E0FFF70CFCC01B0228BD
:101DF000B6D828684005F7D5002E13D128680721EA
:101E0000C9028843A16908432860FFF7F9FEA96861
:101E10003C2289091140A64A515CC906C90EC84036
:101E2000A4490860A4480068FFF708FC002875D1A1
:101E300020E0FFF7E7FB801B022891D828684005C7
:101E4000F7D56868E169000C00040843686011E098
:101E5000B0E02968FF20013081432960FFF7D2FB01
:101E6000064604E0FFF7CEFB801B022885D82868D1
:101E70004005F7D42078914E00072ED5A86880063B
:101E8000400F03280AD0206A0028306A16D00121AA
:101E900008433062FFF7B6FB07460BE0306A800765
:101EA0001BD5206A002894D017E0FFF7ABFBC01BBE
:101EB00002289DD8306A8007F7D50EE04008400020
:101EC0003062FFF79FFB074604E0FFF79BFBC01B58
:101ED00002286FD8306A8007F7D4207840077FD572
:101EE000A86800278006400F042818D0E86BC000BF
:101EF00008D4E96B012000070143E963E96B014065
:101F0000012700916E480168C90519D4016882153E
:101F100011430160FFF776FB05900DE077E0F06973
:101F200080075DD5E068002871D059E0FFF76AFBB3
:101F30000599401A02283DD861480068C005F5D5CA
:101F4000E068042300280DD022699003810F5D48CA
:101F5000296915D0814311432961E068012815D012
:101F6000052818D0F06940084000F061F1699943F4
:101F7000F161E06800281ED0FFF744FB059015E0F2
:101F800081430120400408182861E6E7F069012137
:101F90000843F061EDE7F0691843F061F6E7FFF7F9
:101FA00031FB0599411A484881427AD8F069800787
:101FB000F5D50EE075E0FFF725FB059006E0FFF78D
:101FC00021FB0599411A404881426AD8F06980078F
:101FD000F5D4002F04D0E96B012000078143E963A9
:101FE000606A002857D0A9688906490F022976D06F
:101FF00001263606022828680AD0B0432860E8681F
:1020000080088000E860FFF7FDFA044663E06EE0B8
:10201000B0432860FFF7F6FA074604E0FFF7F2FA4C
:10202000C01B02283DD828688001F7D4E06AA16A65
:10203000820801AB032902D0022908D011E09000E8
:102040001B58224A934252D803AB185807E06868DD
:102050001F4F0004400F8000920038589A58904259
:1020600045D3E868800880000843E860E8680C21F0
:102070008843E16A0843E860286830432860FFF736
:10208000C1FA044604E0FFF7BDFA001B022808D895
:1020900028688001F7D52CE0FFF7B4FA001B02286E
:1020A00019D9032007B0F0BD0C58000800100240F9
:1020B0008C5700080000002004000020401002405F
:1020C00000700040000003008813000000366E011D
:1020D000EC57000803E028688001DDD409E00128FE
:1020E000E0D0E868A16A8007800F884201D0012013
:1020F000D8E70020D6E710B5044600680168C90794
:1021000016D04168C90713D040684007204607D55C
:10211000FEF772FD04202168C0434860042002E0FD
:10212000FEF769FD0120607401202168C04348600A
:1021300020680168890709D54068800706D52046D0
:10214000FEF75BFD02202168C043486010BD00001F
:10215000094910B5401E884201D9012010BD074C25
:1021600060610321081F00F01FFD0020A06107200F
:102170002061002010BD0000FFFFFF0000E000E034
:102180007047704730B5034620331A7F012A26D0A6
:1021900001221A770325CA682D02AA438D680024FC
:1021A0002A430125AD02AA434D6800682A43012550
:1021B000ED02AA430D682A4301252D03AA430D69A8
:1021C0002A4301256D03AA434D69C9692A430125A4
:1021D000AD03AA430A4342641C77002030BD0220AD
:1021E00030BD10B504460068042200F0CCFE206823
:1021F000416C0122D2031143416420688168490780
:10220000490F062903D00168012211430160002013
:1022100010BD000070B504460068002200F0B3FE57
:102220002068036A0C490D4A0B4207D1036A134226
:1022300004D1436C0125ED03AB4343642068036A7A
:102240000B4206D1016A114203D1016849084900D5
:102250000160002070BD0000111100004404000066
:1022600010B504460068042200F08DFE2068416C21
:102270000122D20311434164206881684907490F54
:10228000062903D00168012211430160002010BD1E
:1022900070B5040005D025462035687F002802D09F
:1022A00006E0012070BD00202877204600F00AF8E3
:1022B00002206877211D206800F01AFE012068774F
:1022C000002070BDF0B5584887B0C16B022421438F
:1022D000C163C16B21400591534940310B68C21461
:1022E00013430B600B68134005930B6852011343B3
:1022F0000B600B68134005930B68520013430B608F
:102300000B6813400593C26B2243C263C26B224029
:102310000592426B01252A434263426B2A40059293
:10232000426B22434263426B22400592436B04227C
:1023300013434363436B13400593436B20221343C2
:102340004363406B104005900A68E00402430A6052
:1023500009680140059114216846FDF75DFFA0035F
:10236000324F032600900194029469460496039428
:102370003846FFF7AFF86003009069460495384689
:10238000FFF7A8F8E00100900520694604940007D3
:10239000FFF7A0F82002009005206946049400078A
:1023A000FFF798F80820009005206946049400077C
:1023B000FFF790F8E00200906946029504943846D1
:1023C000FFF788F830200090002002900520019649
:1023D000039469460007FFF77DF807200490122058
:1023E00001906002009069463846FFF773F880203C
:1023F0000090052001940294694604950394000717
:10240000FFF768F80C20FFF753F9012211460C2062
:10241000FFF758F9002211460D20FFF753F90D2060
:10242000FFF746F907B0F0BD00100240000400506D
:102430000222014620314A77006882680123520750
:10244000520F062A02D002681A4302604B7700201E
:102450007047000002210246203251770168086A65
:10246000074B184207D1086A9B10184203D108682D
:1024700040084000086001205077002070470000AD
:102480001111000010B504460068002911D004297C
:1024900004D00122002100F069FD206801220421FE
:1024A00000F064FD206801680122114301600020F2
:1024B00010BD01220021F3E7704770B504460068A3
:1024C00001690025C9438907002915DBC168C94393
:1024D000890711D4E91E01610120207720688069F5
:1024E0008007204602D0FFF7E7FF04E000F096F8EF
:1024F000204600F066FA257720680169C94349073C
:1025000017D4C168C943490713D40421C9430161E1
:1025100002202077206880698005800F204602D045
:10252000FFF7CAFF04E000F079F8204600F049FA0E
:10253000257720680169C943090716D4C168C943D2
:10254000090712D40821C9430161042020772068BB
:10255000C0698007204602D0FFF7AEFF04E000F01C
:102560005DF8204600F02DFA257720680169C943FF
:10257000C90617D4C168C943C90613D41021C94379
:102580000161082020772068C0698005800F2046FF
:1025900002D0FFF791FF04E000F040F8204600F081
:1025A00010FA257720680169C943C90708D1C168B5
:1025B000C943C90704D1891E0161204600F02EFAE3
:1025C00020680169C943090609D4C168C9430906DD
:1025D00005D48021C94301612046FFF7D1FD206861
:1025E0000169C943490609D4C168C943490605D4EC
:1025F0004021C9430161204600F011FA20680169B9
:10260000C943890609D4C168C943890605D4202174
:10261000C94301612046FFF7B4FD70BD704770B536
:10262000040005D025462035687F002802D006E04A
:10263000012070BD00202877204600F00AF8022013
:102640006877211D206800F053FC01206877002086
:1026500070BD704710B504460068012200F086FC8A
:102660000E482168814208D00D48814205D00D48AE
:10267000814202D00C48814204D1486C0122D2032D
:1026800010434864206881684907490F062903D030
:102690000168012211430160002010BD002C01409F
:1026A00000400140004401400048014030B504466C
:1026B0000068002200F05AFC144A13482168931065
:1026C000814208D01248814205D01248814202D08E
:1026D000114881420AD1086A104207D1086A18429B
:1026E00004D1486C0125ED03A84348642068016AC1
:1026F000114206D1016A194203D101684908490013
:102700000160002030BD0000002C014011110000CC
:10271000004001400044014000480140F0B51F4620
:1027200087B00D460446BA4261D026462036307F37
:10273000012814D00120307702207077286800909B
:1027400068680190A8680290E8680390286905907D
:1027500068690690002A05D0042A0CD107E00220FF
:1027600007B0F0BD6946206800F01AFC03E0694636
:10277000206800F057FC38467027002802D0042853
:1027800030D111E018350ECD206800F003FD20682F
:1027900081690C229143816120688168B94381601D
:1027A00020688168502211E018350ECD206800F0B5
:1027B00013FD2068816903229202914381612068A0
:1027C0008168B9438160206881686022114381601B
:1027D00020688168C908C900816020688168062274
:1027E000114381600120707700203077B8E7012025
:1027F000B6E770B50E46040005D025462035687F43
:10280000002802D006E0012070BD00202877204675
:1028100000F014F802206877211D206800F068FBA2
:1028200020680168082291430160206801683143F3
:10283000016001206877002070BD000000B587B0FE
:1028400014216846FDF7E8FC0748C26B02210A43E1
:10285000C263C26B0A400592426B0A434263406BFB
:102860000840059007B000BD0010024010B50446B6
:1028700000680122002100F079FB01220421206878
:1028800000F074FB09492068884208D00849884252
:1028900005D00849884202D00749884204D1416CDA
:1028A0000122D20311434164002010BD002C0140DD
:1028B000004001400044014000480140F8B5064690
:1028C00004462036307F0D4601280DD00120307798
:1028D000022070770427002A08D0042A16D0082A7C
:1028E0002AD00C2A4DD137E00220F8BD206800F034
:1028F00057FB206881690822114381612068816942
:10290000B9438161206881692A6912E0206800F07A
:1029100089FB206882690121C9020A43826120681B
:1029200081690122920291438161206881692A694B
:1029300012021143816124E0206800F0B3FB20689B
:10294000C26908210A43C2612068C169B943C161F3
:102950002068C1692A6912E0206800F0E5FB206860
:10296000C1690122D2021143C1612068C2690121FB
:1029700089028A43C2612068C1692A69120211432F
:10298000C1610120707700203077F8BD70B5040078
:1029900005D025462035687F002802D006E00120BA
:1029A00070BD00202877204600F00AF802206877E2
:1029B000211D206800F09CFA01206877002070BD7E
:1029C0007047704710B504460068012200F0CEFA47
:1029D0000E482168814208D00D48814205D00D483B
:1029E000814202D00C48814204D1486C0122D203BA
:1029F00010434864206881684907490F062903D0BD
:102A00000168012211430160002010BD002C01402B
:102A100000400140004401400048014070477047B9
:102A2000FEE710B50024012000F098F805E0641CD2
:102A3000A4B2052C01D9012010BD00F021F8002816
:102A4000F5D100F08BF8002010BD000010B5074C48
:102A5000012311221021204601F04AFE01231122F8
:102A60002021204601F044FE10BD0000000400506B
:102A700010B520210148FEF7B9F810BD0004005040
:102A800010B5012000F07CF8FFF7F2FF10BD70B523
:102A90000025012000F074F800248026012000F0B9
:102AA0005DF8FFF7E5FF012802D13046E04005431D
:102AB000002000F053F8641CE4B2082CEED3284642
:102AC00070BD10B500F05CF8012000F047F8282038
:102AD000FDF7A3FF002000F041F810BD70B50646D9
:102AE000002000F03BF8002480252846E0403040DC
:102AF00000F046F8012000F031F8002000F02EF838
:102B0000641CE4B2082CF0D370BD10B5012000F0B5
:102B100037F8012000F022F80420FDF77EFF0020A6
:102B200000F02EF8002000F019F82820FDF775FFBE
:102B300010BD10B5002000F023F8002000F00EF8C2
:102B40000420FDF76AFF012000F008F8012000F0E2
:102B500017F82820FDF761FF10BD000010B5074BE6
:102B6000002808D0012210211846FEF745FD0A2052
:102B7000FDF753FF10BD0022F5E7000000040050F0
:102B800010B5074B002808D0012220211846FEF777
:102B900033FD0A20FDF741FF10BD0022F5E70000DC
:102BA00000040050704700008307FF22DB0E9A40AC
:102BB0008907090E994000280BDA0007000F083832
:102BC000830808489B001818C36993430B43C361EB
:102BD0007047830804489B001B18186890430843FB
:102BE0001860704700ED00E000E400E0704700006E
:102BF00010B50448FFF77FFA03A1002000F074F835
:102C000010BD0000540600205254435F4952514801
:102C1000616E646C65722020200D0A0010B50021E1
:102C2000192002F07BFD09491B2002F077FD0849BD
:102C30001C2002F073FD07491D2002F06FFD0121E9
:102C4000C9031E2002F06AFD10BD0000030400004D
:102C50002F0F000002030000F8B507460A4815468A
:102C600000780E46002801D100F08CFBEFF31084B1
:102C7000012080F310882A463146384600F006F8D5
:102C8000E1B281F31088F8BD6004002070B50E46F3
:102C900018214843134914464518E86A1835002896
:102CA00004D001280FD0022805D113E0284600F0F7
:102CB000A1FBA04201D2002411E022463146284661
:102CC00000F0C3FC0BE0284600F094FBA042F4D2D5
:102CD0000446F2E73146284600F087FC04462046C9
:102CE00070BD0000600400200FB408B504A9009175
:102CF0006A46039900F004F801B008BC04B0184714
:102D0000F7B598B007A802904020002504950390DD
:102D100018980C46059506902178641C002977D0F8
:102D2000252907D002A800F041FC05980028F3DA15
:102D30001BB0F0BD0122002102271346082620788F
:102D400023281BD02B2816D02D2802D0302806D1BE
:102D500001E0194300E03943641C002AEFD100224E
:102D600020780346303B0A2B0AD20A235A43121812
:102D7000303A641CF4E704200143EDE73143EBE70C
:102D80000023C7B22E2F0AD1641C20780746303F9B
:102D90000A2F04D20A277B431B18303BF4E76C2828
:102DA0000DD068280BD0702852D00BDC25285AD0C3
:102DB00058282ED063280CD0642858D110E06078B1
:102DC000641CECE7732832D0752817D078284ED1D0
:102DD0001FE01A981A9A0068011D1160017843E0FB
:102DE0001A981A9F0068061D3E60006801910092C3
:102DF00001460A2202A800F008FB38E01A981A9F40
:102E00000068061D3E600068009201910A2209E0F8
:102E10002FE01A981A9F0068061D3E600068009215
:102E200001911022014602A800F054FB1FE01A98FD
:102E30001A9A0068011D116006683178761C002915
:102E400015D002A800F0B2FB05980028F5DA0EE0D4
:102E50001A981A9A00680823011D1160016810224F
:102E600000960195DFE7252102A800F09FFB641C76
:102E70005BE70598002800DC5AE70498002804D096
:102E8000024607A91898FFF7E7FE0499059840182D
:102E900005904DE7704710B5FEF7BAFBFEF7B2FBA1
:102EA0000A21FDF725F9002901D101F097FE10BD97
:102EB00007484168074A490E12894906120411431E
:102EC000054A9268114341600449C0038860704715
:102ED000001002404033FF1F0032FF1F00ED00E0F2
:102EE00010B50248FFF7E9FA10BD0000680600209F
:102EF00030B50268184B194C984201D0A04203D15A
:102F00007025AA434D682A4398420AD0A04208D0AF
:102F1000134DA84205D0134DA84202D0124DA8422D
:102F200004D103252D02AA43CD682A438025AA4354
:102F30004D692A4302608A68C2620A6882629842C6
:102F400005D001229207904201D0A04201D1096927
:102F500001630121416130BD002C014000040040AB
:102F600000200040004401400048014010B5CB065D
:102F7000DB0E0121046A99408C430462016A9A4085
:102F80001143016210BD10B5CB06DB0E0421046AAB
:102F900099408C430462016A9A401143016210BD5A
:102FA000F0B5026A520852000262056A43688269FB
:102FB0007024A24392080C689200144302229543A5
:102FC0008A68154E2A43134DA84204D0B04202D05D
:102FD000124FB84206D10827BA43CF6817430422DC
:102FE00097433A46A84207D00D4DA84204D0B042BC
:102FF00002D00A4DA84206D103252D02AB434D69EC
:103000001D438B692B4343608461496841630262BD
:10301000F0BD0000002C0140004401400048014088
:103020000040014070B5026A10239A430262056AAB
:103030004268836973242402A3430C6824021C435E
:1030400020239D438B681B012B43124DA84208D1BE
:103050001D46CB688026B5431B012B434025AB435F
:1030600008E00D4DA84205D00C4DA84202D00C4DF1
:10307000A84208D10325AD02AA434D69AD0015430E
:103080008A6992002A4342608461496881630362CD
:1030900070BD0000002C0140004001400044014090
:1030A0000048014070B5026AFF2301339A4302626F
:1030B000056A4368C2697024A24392080C689200B2
:1030C00014430122520295438A6812022A43124D88
:1030D000A84208D11546CA68C614B54312022A434D
:1030E0000515AA4308E00D4DA84205D00C4DA84295
:1030F00002D00C4DA84208D103252D03AB434D69E6
:103100002D011D438B691B012B434360C46149683A
:10311000C163026270BD0000002C0140004001400C
:10312000004401400048014030B5026A01231B03FE
:103130009A430262046A4268C36973252D02AB4355
:103140000D682D021D4301235B039C438B681B0309
:1031500023430C4CA04208D00B4CA04205D00B4C92
:10316000A04202D00A4CA04205D10124A403A243EC
:103170004C69A40122434260C5614968016403624D
:1031800030BD0000002C01400040014000440140DF
:103190000048014070B5046A6408640004628469F0
:1031A000056A0B4EB04202D00A4EB04202D1A408CA
:1031B000A40000E001221443F02294431A07120EE7
:1031C0000A2322439D43194029438261016270BD55
:1031D000002C01400004004070B5046A1025AC4387
:1031E00004628569046A03263602B54312022A4343
:1031F0000F252D031B071B0CAA431343A022090113
:103200009443114021438361016270BDF0B5584C75
:1032100089B02079A57961790291A17B40070126C7
:10322000089100280EDAFF2181315248FCF7F4FFA3
:1032300050494020486002F039F8A67200206072C0
:103240004D490870A77A2F40F80705D00020A073D9
:1032500000F00EFB7F087F0001252CE03046A840DF
:103260003842079025D0A573607D400703D5607D67
:10327000FB21084060751420294641433D48081849
:10328000028D436B016B93421CD989188C460163F4
:10329000816B891881639B1A43631AD0934200D2D1
:1032A0001A4692B26146284600F0F0FD667507980E
:1032B00087436D1CEDB2002FD0D1677A029807408A
:1032C00001254EE0C9180163816BC9188163002193
:1032D0004163816B28468022104301F081FFE6E7BD
:1032E0003046A8403842019039D0A573607EC007AF
:1032F00033D0A08B03902946142041431D48039AE4
:103300000818059080300690016D284600F0AEFD4B
:10331000607E4008400060760698016D03980918A9
:10332000069801650698816D0398091806988165CD
:103330000698426D0398121A069842650598C030A7
:1033400003890398834201D8002A06D1607A019A42
:1033500090436072284601F075FF019887436D1C09
:10336000EDB2002FBCD10898A07309B0F0BD0000E9
:10337000005C0040E00200202000002010B5FFF7B4
:1033800045FF10BD10B5124C03202061606111A0F3
:10339000A0611348E0610120800220620020A06249
:1033A0000CA222660121E16260620E4A626610226E
:1033B0002067A266E06661670BA1E01DFCF737FF9E
:1033C0000AA12046FCF733FF2020A07110BD0000A9
:1033D000600400205465726D696E616C000000002D
:1033E000D8180020D81C0020525454005345474799
:1033F000455200000269C1688A4203D88068401AB9
:10340000801800E0501A401E7047FFB583B00E468A
:1034100070420D9F0C9C0090002900DB084601259E
:1034200002E0FCF77BFE6D1C05998842F9DA0698EC
:10343000A84200D90546002C04D0002E01DB7807F5
:1034400000D5641EB80702D50698002810D0F807EA
:103450000ED1002C0CD0A5420AD22021641E039864
:1034600000F0A4F80398C0680028F2DA07B0F0BDB5
:103470000398C0680028F9DB002E02DA2D21009E97
:1034800002E0780707D52B21039800F08FF8039806
:10349000C0680028EADBB807800F022810D1069820
:1034A00000280DD1002C0BD0A54209D23021641E7A
:1034B000039800F07BF80398C0680028F2DAD5E79B
:1034C000019700943146069B059A039800F002F894
:1034D000CCE70000FFB581B001261F4634460A9DA7
:1034E000029802E0FCF704FE641C03998842F9D2BA
:1034F000A74200D93C460B98C00718D1002D16D022
:103500000B98800701D5002F02D0202000900CE0FE
:103510003020FBE76D1E0099019800F047F80198F4
:10352000C06800283DDB002D01D0AC42F2D30198E9
:10353000C068002835DB012F01D97F1E06E0314627
:103540000298FCF7D5FD0399884202D303984643BD
:10355000F1E7154F31460298FCF7CAFD0146029A81
:103560007143511A0291395C019800F01FF80198DB
:10357000C068002805DB30460399FCF7B9FD06005A
:10358000E8D10B98C0070CD0002D0AD0AC4208D26D
:1035900020216D1E019800F009F80198C0680028EC
:1035A000F2DA05B0F0BD00005458000810B504462A
:1035B00080686368421C934205D323681954A26053
:1035C000E068401CE060A2686068824209D121681E
:1035D0002069FFF741FBA168884203D00020C04367
:1035E000E06010BD0020A06010BDF7B5064682B0B7
:1035F00000200090F46817463069A04201D9051BED
:1036000002E0B168201A0D1AB0686D1E001BA842B6
:1036100000D80546BD4200D33D4670682A460019D1
:103620000399FCF7E0FD00987F1B40190090039878
:10363000641940190390B068A04200D10024F460DE
:10364000002FD9D1009805B0F0BDF7B50446C76882
:103650008068E168C51B606816464018B54205D908
:103660000199FCF7C0FDB819E060FEBD2A4601993A
:10367000FCF7B9FD0198761B411932466068FCF7EA
:10368000B2FDE660FEBD2021020C01D010211046E3
:10369000020A01D010460839020901D01046091F5C
:1036A000820801D01046891E420801D0881E70474A
:1036B000081A704730B47446641E2578641CAB4207
:1036C00000D21D46635D5B00E31830BC184702E082
:1036D00008C8121F08C1002AFAD17047704700209D
:1036E00001E001C1121F002AFBD17047F8B5064660
:1036F0003F48864202DD2B25242461E07D225201D1
:10370000964202DD2D2526245AE0394AC83A9642CF
:1037100001DD2D2509E0374A964201DD2E2504E022
:10372000344A643A964202DD2F25282448E0E122FB
:103730001201964202DC304A964202DD2F252A24ED
:103740003EE02D4A643A964202DD2F252D2437E0D3
:10375000294AC83A964202DD2F252C4630E019222C
:10376000D201964202DD2F25312429E0234A9642D8
:1037700002DD3025342423E0204A643A964202DDFB
:10378000302536241CE01D4AC83A964202DD322517
:10379000372415E0AF221201964202DD3425382489
:1037A0000EE0174A964202DD36253A2408E04B2205
:1037B0005201964202DD3625462401E023252724C6
:1037C000204648430F49FCF7A9FC40198000052119
:1037D000FCF7A4FC632800DD632064210F1A3B463C
:1037E00022462946304600F099FC3846F8BD0000D4
:1037F00004100000D80E0000AC0D00001C0C0000EE
:10380000280A00001405000070B515460C46FCF7A8
:1038100075FE2946FCF76DFD0749FCF7A7FD21461B
:10382000FCF70EFD0221FCF7DFFD0449FCF79EFDCD
:10383000FCF798FE70BD00000080A2440000A0408C
:1038400010B505490020486000F05AFE00F048FE1F
:1038500000F0B2FB10BD0000E8000020006809681D
:10386000401A70470148C06A70470000E800002015
:10387000F8B5384C207C00214207374E002A05DA83
:10388000207CFB22104020743170F8BDC20601D5A7
:1038900080222274314D2A78002A02D02A782270A0
:1038A000297032781300FFF705FF07061E05315116
:1038B00005510500E9E7C007E7D0607C0828E4D19E
:1038C0002649082220310E46002000F0CFFAE88C6D
:1038D000002802D04022227401E0482020743046A3
:1038E00001F012FCF8BD1D482B8D6A6B806B9A426B
:1038F00004D9C018A863D01A686302E0801869630D
:10390000A863A96B802001F06BFCF8BDC007FCD058
:10391000677C124D3A4680350020296D00F0A6FAEA
:10392000286DC0192865A86DC11928464030A965C1
:103930000089B84207D9002001F084FC4820207497
:1039400004203070F8BD40202074F8BD3170002193
:10395000D8E70000005C004020000020E0020020CA
:1039600010B51648144901602C2101610921890113
:10397000C1600121C9030162002101228160C2618D
:10398000416031228262C822426215229205826120
:103990004161FDF793FB002801D0FCF789FF08A1E6
:1039A0000020FFF7A1F90548FDF754FC09A100200C
:1039B000FFF79AF910BD00000002014064070020E3
:1039C00048414C5F434F4D505F496E6974200D0A6A
:1039D0000000000048414C5F434F4D505F537461FD
:1039E0007274200D0A00000010B50EA10020FFF730
:1039F0007BF9282000F038F81E2000F0ADF85020A8
:103A000000F002F90AA10020FFF76EF90CA10020D6
:103A1000FFF76AF9FFF7A4FF0EA10020FFF764F992
:103A200010BD0000696E697450534642200D0A00B3
:103A3000696E697454696D20656E64200D0A00001A
:103A400073657453686970506172736520656E6444
:103A5000200D0A00696E6974434F4D503120656E28
:103A600064200D0A00000000F1B53A4DFF2782B036
:103A7000374890370024EF6011C5AC606026EC60D9
:103A80002E602C613348083DFEF702FC002801D06F
:103A9000FCF70EFF2F480121C0300903C46001610B
:103AA0004910016084604910446141600901C161AD
:103AB0000146C038FEF766FB002801D0FCF7F8FE8F
:103AC0003046244EFF21E036B460F46030600120BF
:103AD000B4614002346170610298903148436421BE
:103AE000FCF71CFB00907060002231461948FEF77D
:103AF000E5FE002801D0FCF7DBFE02207461B06017
:103B000000981449381A70600422E0311148FEF719
:103B1000D5FE002801D0FCF7CBFE286844620021C6
:103B20000C48FEF74FFF002801D0FCF7C1FE04212E
:103B30000848FEF747FF002801D0FCF7B9FE002136
:103B40000448FEF787FD002801D0FCF7B1FEFEBD5A
:103B5000002C01406806002070B52949294800243E
:103B600012C00460FF21846069310461416008383B
:103B7000FEF755FD002801D0FCF79AFE214D70207C
:103B80006035AC60EC606C61AC612C612860B42085
:103B90006860002229461B48FEF790FE002801D0ED
:103BA000FCF786FE5A2017496860042260311548E8
:103BB000FEF784FE002801D0FCF77AFE00211148B0
:103BC000FEF748FD002801D0FCF772FE00210D48E9
:103BD000FEF7F8FE002801D0FCF76AFE0021094834
:103BE000FEF73EFB002801D0FCF762FE04210548E9
:103BF000FEF7E8FE002801D0FCF75AFE70BD000079
:103C000000400140E8060020F8B506462E48002492
:103C100044600461012560274461AD078760FF218E
:103C2000056090318461C160FEF732FB002801D04D
:103C3000FCF73EFE2868286838432860224DFF20A4
:103C4000A035AC60EC606C61AC61903046432F6095
:103C5000642130462C61FCF761FA6860082229462D
:103C60001948FEF72BFE002801D0FCF721FE304654
:103C7000C821FCF753FA144968600C22A03112489D
:103C8000FEF71CFE002801D0FCF712FE0E4840385B
:103C90000068446208210C48FEF794FE002801D019
:103CA000FCF706FE0C210848FEF78CFE002801D028
:103CB000FCF7FEFD08210448FEF7CCFC002801D0EB
:103CC000FCF7F6FDF8BD0000A80600200248407F82
:103CD000002800D001207047A80200200DA100207C
:103CE000FFF702F800F066FAFCF758FEFDF798FCC3
:103CF000FCF7E0FDFCF71CFE00F05CFA1348026ADA
:103D000013A10020FEF7F0FF00F056FD00F0DEFEEC
:103D1000FCE700000D0A6D61696E2020737461720A
:103D200074202031312D323820202D2D2D2D2D2D98
:103D30002D2D2D2D2D2D2D2D2D2D2D2D2D2D2D2DB3
:103D40002D2D2D2D2D2D0D0A0000000040100240BC
:103D50000D0A2031312D323820415050204D4F4432
:103D6000450972657365742020726561736F6E20FA
:103D70003D2025780D0A200070B5044605468034A4
:103D8000A06CB2B080002950A06C3221401CFCF71E
:103D9000C5F9A164E06C322801DA401CE06400201F
:103DA0006E4603E081006A587250401CE16C81420B
:103DB000F8DC074B04223046FCF7C4F9E06CC10F75
:103DC0000818401080008019006832B070BD0000F3
:103DD0005D380008F8B51D4616460746002903D091
:103DE0000A4609A1FEF780FF002405E0325D0AA122
:103DF0003846FEF779FF641CAC42F7D308A1384679
:103E0000FEF772FFF8BD00000D0A257320204C4517
:103E10004E3D25640A0000002025782000000000A7
:103E20000D0A000010B5084C206800280BD0FDF7E3
:103E3000E9FB2168401A7D21C900884203D900208E
:103E4000206000F053F910BDE0000020034601207F
:103E5000C200934201D80A807047401CC0B20828B3
:103E6000F6D900200880012070470000064B800032
:103E7000C018002A06D003780B70491C521E120489
:103E8000120CF8D170470000205C0040064B800007
:103E9000C018002A06D00B78491C521E1204037069
:103EA000120CF8D170470000205C0040F8B50146C4
:103EB00040310124CDB20021C207920F1219491CD2
:103EC0004008C9B2D4B20429F6D3FEF71EFE1A4E3A
:103ED0003078FEF703FEFEF7A4FD00280FD1284638
:103EE000FEF7FCFDFEF79DFDFEF70FFE3078012189
:103EF0000843FEF7F3FDFEF794FD002803D0FEF71C
:103F000018FE0120F8BD00250C4F661E0EE0B542DC
:103F100004D1FEF7BCFD7855012003E0FEF7B7FDA4
:103F200078550020FEF7CDFD6D1CEDB2A542EED315
:103F3000FEF7FFFD3878F8BD38000020E4050020CA
:103F4000F8B5502269460A7080004870FEF7DDFD22
:103F5000184D2878FEF7C2FDFEF763FD00246E467B
:103F6000305DFEF7BBFDFEF75CFD641CE4B2022C85
:103F7000F6D3FEF7CAFD287801210843FEF7AEFD0F
:103F8000FEF74FFDFEF783FD0A4C08342070002039
:103F9000FEF797FDFEF77BFD60700020FEF791FDB8
:103FA000FEF775FDA0700120FEF78BFDFEF7C1FD49
:103FB0000020F8BD3800002070B500F0BFFA0646BA
:103FC00000F0A8FAFCF7ACFA154A164BFCF718FA01
:103FD000FCF7E1FA144C054601466069FCF730F93C
:103FE0006061A0697D218019A0616068C900884274
:103FF00004DA81000D4A401C5550606000221146D1
:104000003046FFF701FC20690A21401C2061FCF7C3
:1040100085F8002902D100206061A06170BD000018
:10402000FCA9F1D24D62503FE80000209807002023
:1040300010B5194C5F2806DAFF2169314843642125
:10404000FCF76CF801E0FF20573013496060084628
:1040500000226038FEF732FC002801D0FCF728FC73
:104060000D4800216038FEF7F5FA002801D0FCF772
:104070001FFC094800216038FEF7A4FC002801D08D
:10408000FCF716FC044800216038FEF7E9F8002828
:1040900001D0FCF70DFC10BD480700200A2801DD07
:1040A0000149086070470000E000002030B501249D
:1040B0000D4DA40285B021462846FDF7FFF81421D6
:1040C0006846FCF7A9F802210120029103910190B2
:1040D000009469462846FDF7FDF90022214628464E
:1040E000FDF78AFA05B030BD0004005000B585B078
:1040F00014216846FCF790F8012002210290072065
:104100000490480201910391009069460248FDF72E
:10411000E1F905B000BD00000004005010B5014CED
:104120000FC410BD0401002010B504460021204832
:10413000FEF7BCFA1E4800218030FEF7B7FA0021D6
:104140001B48FEF767F81A4800218030FEF762F836
:104150001748FEF77FF916488030FEF77BF9FF20FD
:10416000903060436421FBF7D9FF11490968486228
:104170000F488030FEF75CF900210D48FEF76AFA1F
:104180000B4800218030FEF765FA00210848FEF751
:1041900028F8074800218030FEF723F80448002162
:1041A0008030FEF757FA002801D0FCF781FB10BDE4
:1041B000680600200548C1690902090AC16104486E
:1041C00001690222114301617047000004ED00E023
:1041D00000E000E0F0B593B00024009401942421A5
:1041E00008A80294FCF718F83A48026841150A43F7
:1041F0000260006808401190142103A8FCF70CF835
:1042000034484038416B022529434163406B052700
:10421000284011900320049010203F07039005943C
:1042200003A93846FDF756F903A938460395FDF76B
:1042300051F903A928480395FDF74CF9012603A974
:1042400038460396FDF746F9002211460C20FDF78B
:1042500039FA0C20FDF72CFA68030890C001109081
:1042600008A8FDF75DFB1D491D4812C004604460AD
:104270000472C660047407214904466181610838EC
:10428000FCF714FE04270520019000976946029769
:104290001348FCF7B5FC6946114802970096019552
:1042A000FCF7AEFC6A46D0C269460D48FCF7A8FC94
:1042B000092000900A200190694602970848FCF7FF
:1042C0009FFC0748FCF724FC012000F00BF813B01A
:1042D000F0BD0000401002400004005000240140E6
:1042E000140500200EB500900120019004200290DA
:1042F00069460248FCF784FC0EBD0000140500204E
:1043000070B505461849174808607D200024C00094
:104310000C61C8608C6004228C614A604861084668
:10432000FEF734FB002801D0FCF7C2FA0E496020EA
:1043300080318C600C61CC608C614C6121C10022A9
:1043400008390948FEF7BAFA002801D0FCF7B0FA9C
:1043500000210548FDF784FF002801D0FCF7A8FAEA
:1043600070BD0000004801404805002070B500F015
:10437000DBF801460C480B4A0124E4038504914212
:1043800005DA01224021FDF737F9002204E000227E
:104390004021FDF731F9012221462846FDF72CF98D
:1043A00070BD0000DC0500000014005078B53F48E7
:1043B0000268012109050A43026002680A4000926E
:1043C000026849000A43026002680A4000920168DC
:1043D000C314194301600168194000913349403901
:1043E000CC6B02221443CC63CC6B14400094056860
:1043F000D40325430560056825400095056814042D
:10440000254305600568254000954D6B0124254333
:104410004D634D6B254000954D6B15434D634D6BC2
:10442000154000954E6B04252E434E634E6B2E4077
:1044300000964E6B20252E434E634E6B2E40009609
:104440008E6B85152E438E638E6B2E400096CD6B42
:104450001543CD63CD6B1540009502681A43026089
:1044600002681A400092CA6B2243CA63C96B21409A
:104470000091026819010A43026002680A40009232
:104480000268C9000A43026002680A40009202689A
:1044900081140A43026002680A40009202684115D2
:1044A0000A43026000680840009078BD4010024056
:1044B00000B585B014216846FBF7AEFE02200390DC
:1044C0000648019001200290C00200900520694634
:1044D0000007FCF7FFFF05B000BD00000000111051
:1044E00010B501460248FFF747FC0249C86210BDFB
:1044F00038170020E800002000487047DC05000065
:104500000248034900894843000B704724000020FB
:10451000102700000248034980884843000B704779
:1045200024000020204E000002480349C088484370
:10453000000B7047240000208813000003487D21F1
:10454000C088C9004843000B7047000024000020C9
:104550000248034940884843000B7047240000206C
:104560005C120000F0B54A4C89B0A06C00F00EFC63
:1045700032287DDDFDF746F8A064FFF7E9FF00F083
:1045800035FBFFF7E5FF43490026884203DDFDF7D1
:1045900039F86662A061A06900F0F8FB7D2149014D
:1045A0000125884200DD6562656000F07BF860707F
:1045B000012149023848FCF719FB002800D00120EE
:1045C0002062002800D1E6610127BF02052039469C
:1045D0000007FCF70BFB00284DD0F9002F48FCF733
:1045E00005FB002849D0032020706178606D884267
:1045F00007D1E16D206A884203D12078A16D8842FD
:1046000043D0052039460007FCF7F0FA012102905B
:1046100049032248FCF7EAFA0190E06800F0B6FB93
:104620000090FFF769FF0746FFF792FF0246E16936
:10463000029805AB089161C3019B606C01970099DA
:1046400002AF0BC700920123627815490020FEF7E4
:104650004BFBFCF7D7FFE06060786065216AE1659D
:104660002178A16507280AD209498000743100E049
:104670000BE0085807E02570B7E70220B4E70020F8
:10468000FFF752FD642000F057FA09B0F0BD0000BA
:104690004C000020B80B0000001400500004005033
:1046A000C458000870B50D4DE868FBF732FF0446AA
:1046B0000B492869FBF7C4FD2146FBF712FE0949A7
:1046C000FBF7BEFDFBF74EFFFF216931FBF726FD2F
:1046D00008461721FBF722FD70BD000038000020BE
:1046E0000000B4430000304110B5FEF7AFF910BD33
:1046F00000B585B0009102210391029301926946B1
:10470000FCF7E8FE05B000BDF8B501230524240739
:104710001A46D9032046FFF7EBFF224D01231A4624
:1047200040212846FFF7E4FF1F4E022300224021CC
:104730003046FFF7DDFF0123002219463046FFF720
:10474000D7FF0123002259022846FFF7D1FF01239A
:10475000002208213046FFF7CBFF01235F03002230
:1047600039461248FFF7C4FF0123002220212846C2
:10477000FFF7BEFF0123002239463046FFF7B8FF9E
:104780000123002299022046FFF7B2FF08A1002072
:10479000FEF7AAFA0123002219033046FFF7A8FF0B
:1047A000F8BD000000140050000400500008005044
:1047B00020200D0A0000000010B529A10020FEF7FE
:1047C00093FAFFF7F3FD2CA10020FEF78DFAFFF717
:1047D0009BFF6420FCF714F92CA10020FEF784FA5B
:1047E00019204001FFF78CFD30A10020FEF77CFA74
:1047F000FFF7F0FC33A10020FEF776FA00F0FAF89C
:1048000035A10020FEF770FAFFF76EFF0A20FCF7D3
:10481000F7F8002234A11046FEF766FA3AA100200C
:10482000FEF762FA00F0D0F93EA10020FEF75CFA34
:10483000434800F081F90A20FCF7E2F800F064F93F
:1048400000F092F83F496420C860FFF7CDF83EA120
:104850000020FEF749FA40A10020FEF745FA10BDFE
:10486000736764496E69742020313132332020200F
:1048700073746172740D0A00736764494F496E69FD
:104880007420202073746172740D0A00736764428F
:104890006174746572794C6564436F6E66696765AF
:1048A00020202073746172740D0A000073676441E4
:1048B0004443496E697420202073746172740D0A38
:1048C00000000000353330364B65792020207374AA
:1048D0006172740D0A000000493243202020737475
:1048E0006172740D0A00000049535F484947485FF0
:1048F0005357495443485F444543203D2025642095
:104900002020200D0A0000007367644F70656E352B
:1049100056506F77657220202073746172740D0A8F
:10492000000000007367644F6E6550756C736543DB
:104930006F6E66696720202073746172740D0A00BF
:10494000B80B00004C000020736764496E69742046
:10495000656E64200D0A0000736764496E697420F7
:104960002020656E640D0A0030B587B014216846BA
:10497000FBF752FC1B494A6B022002434A63496B16
:104980000390014005911849012408206A4613C28A
:10499000164D69462846FCF79DFD60030090694668
:1049A0001348FCF797FD694628460094FCF792FDF2
:1049B0000720FCF77DFE002211460720FCF782FE4F
:1049C0000620FCF775FE002211460620FCF77AFE51
:1049D0000520FCF76DFE002211460520FCF772FE53
:1049E00007B030BD0010024000002110000400504C
:1049F0000008005010B51A49012008601A481949EA
:104A000001601A49C1600024046149018460416069
:104A10007D21C90084614161FDF7B8FF002801D004
:104A2000FBF746FF10486021403084600461C46099
:104A3000846144610160C821416001460022403820
:104A4000FDF73CFF002801D0FBF732FF00210648AC
:104A5000FDF7B8FF002801D0FBF72AFF10BD0000CA
:104A6000340000200020004088050020DC05000004
:104A700010B500F06BF9FDF7E9FF0A20FBF7C0FF66
:104A8000FCF71AF80A20FBF7BBFF0D20FFF758FAD6
:104A90000A48417880780902081882B2074808A1BC
:104AA0000838C2800020FEF71FF9FEF7B7F806208D
:104AB000FBF7BAFF0A20FBF7A3FF10BD4000002060
:104AC0000A20444944202578090A000010B5FFF760
:104AD00049FDFFF7A7F9FFF749FC0A4C206C00F0ED
:104AE00055F909280CDDFCF78DFD2064FFF71CFD4E
:104AF0000146E06CFEF7FAFDFFF79AFAFEF7A0FE1A
:104B000010BD00004C00002070B5FFF7D1FCFCF791
:104B100079FD0849012448610525A4022D070022DA
:104B200021462846FCF768FD012221462846FCF76D
:104B300063FD70BD4C00002070B5194C1749216011
:104B4000E06000252561A56065611720A5616060B2
:104B500008212046FDF74DFE002801D0FBF7A8FEF6
:104B60000F48702124388560016001214160856112
:104B70000562C56005614561C161014600230422EB
:104B80002430FDF7CBFD002801D0FBF791FE05A1F5
:104B90000020E268FEF7A8F870BD000000040040A5
:104BA000140600207367644F6E6550756C7365431F
:104BB0006F6E66696720506572696F64203D2025BD
:104BC000640D0A200000000010B5002201210248F7
:104BD000FCF712FD10BD00000014005010B5024893
:104BE000FCF7F8F910BD00001405002070B5104C5A
:104BF000002060800620FFF759F90E4E7578658019
:104C00002846FBF7A1FC00220B4BFBF7F9FB072220
:104C1000D243FBF75DFCFBF7BEFC2061F0783179F5
:104C200000024018A080FF2D01D1FFF721FF70BDC9
:104C300038000020E40500200080764010B500F028
:104C40001DF8FCF7DFFC0C4CE060FCF7DBFCA0621D
:104C5000606B401C6063FEF705FEE064FFF726FA18
:104C6000FCF7D0FCAF218900401AFFF717FAFCF7D8
:104C7000C9FC206410BD00004C00002010B50021CC
:104C80000848FDF7F3FD002801D0FBF711FE0021D5
:104C90000448FDF7F7FB034803A1C2680020FEF7B4
:104CA00023F810BD14060020736764537461727496
:104CB0004F6E65506C75736520506572696F642026
:104CC0003D2025640D0A200010B50F4C20780128E6
:104CD00002D0022803D012E0FFF7B0FF0FE0A06877
:104CE00000F054F87D210901884208DAFCF78AFCBB
:104CF000034606A10020A268FDF7F6FFECE7FCF7EB
:104D000081FCA06010BD00004C000020736764535C
:104D10007461727453466C617368202A2A2A2A2AA5
:104D20002A2A2A2A2A2A2A2A2A2A2A2A2A2A2A2AE3
:104D30002A2A2A2020666C6173685469636B203DBF
:104D4000202564202025640D0A00000010B50448C9
:104D50000268044804A1C2600020FDF7C5FF10BD31
:104D600000F00008380000200A7367645A65726F0B
:104D7000416E676C65496E6974207A65726F416E29
:104D8000676C65202564090A0000000010B5044620
:104D9000FCF738FC002C04D0A04204D2001B401EBB
:104DA00010BD002010BD001B10BD000070B50646F0
:104DB00006480D46046806E02269002A02D029460A
:104DC000304690472468002CF6D170BD10000020BA
:104DD000F0B403789C07174BA40F1B68012C10D06C
:104DE000022C20D021E05C68002C09D0447906799F
:104DF00024021D7F3443E4B2A54201D15B680FE079
:104E00001B68002BEFD110E09C68002C0AD044797D
:104E1000067924021D7F3443240AA54202D19B68EF
:104E2000F0BC18471B68002BEED1F0BC0020C0433B
:104E3000704700001000002010B5402202490220F7
:104E400000F0BEF810BD00002801002010B5124986
:104E500042068B7B520E8A730406FB20002C0ADB71
:104E6000002A15D0487E9F2210404876487E802236
:104E70001043487609E0002A0AD0487DCF2210402E
:104E80004875487D4022104348758B73002010BD43
:104E90000A7C02400A74F8E7005C0040002070477A
:104EA000FEB5002469460C80017801234906490EAD
:104EB0002E4E2246002903D007290CD9981EFEBD8C
:104EC0002A484021C0300181847203733185A038A3
:104ED0008472037348E0264CA57B0195A173057885
:104EE0002D061AD41427794389194588C0310D81BC
:104EF00045788D720B734178012900D140222276CA
:104F0000617EC90701D0902100E080216176408850
:104F10006946FEF79BFFA0761FE014254D434788A6
:104F2000AD192F8547782035AF722B73A57A8B404A
:104F30001D43A5724178012900D1402220210A4356
:104F40002275617D890701D5482100E04021617506
:104F500040886946FEF77AFFA0757068694609883F
:104F6000401870600198A0730020FEBDE002002090
:104F7000005C004070B5104942068B7B520E8A736C
:104F8000060607240D4D6020002E06DB002A0DD0FA
:104F9000487E20221043487605E0002A06D0087D8E
:104FA0001022104308758B73002070BD2C700A7C92
:104FB00002430A74F7E70000005C00402000002074
:104FC00070B54006400E002903D1002A01D0481ECA
:104FD00070BD1423144C43431D19CC235B5D002B7F
:104FE00014D0124B9C7B987380356A65296500212B
:104FF000A9650F4D002A10D0002812D0597A01223D
:105000008240114359729C73002070BD09A1002099
:10501000FDF76AFE0120C04370BD0028F3D129705E
:10502000F1E703202870EEE7E0020020005C00407A
:105030002000002021675F70797573625F7564637B
:105040002E6F75745F65705B65705F6964785D2E47
:1050500065705F656E61626C650D0A00F8B54606A5
:10506000760E002903D1002A01D0481EF8BD142075
:10507000224B7043C0182C24245C002C09D0204CF7
:10508000A57BA673677DFF0706D0A5730220C043EA
:10509000F8BD0120C043F8BD002787634263016368
:1050A000002A0BD0008D904200D80246174692B2DB
:1050B0003046FEF7EBFE002E15D001E0002E02D0A8
:1050C000012060750CE0D88C002806D006210D4820
:1050D0000170007801280DD00EE00421F7E720745C
:1050E000A5730020F8BD0748012101700348008D19
:1050F000B84201D90A20F2E70220F0E7E0020020DE
:10510000005C004020000020FEB52D4C0146082226
:105110002046FBF768F86088E288A1886B4607C3E1
:105120006378227827490020FDF7DEFDE288FF271B
:105130000137BA4202D9207800063DD5204E204DD5
:105140001C36EA600020AE602A612875002A07D06C
:105150002078000604D431460020FFF731FFFEBD61
:10516000174A204610321146083900F073F900281A
:1051700022D0E2882869904200D20246EA60A968FB
:10518000880705D0BA42EAD83046FBF72CF8AE6063
:105190000DA10020EB68AA68FEF71CFE8020EA68DB
:1051A000A968FFF75BFFE18828698142D7D98006AB
:1051B000D5D101202875FEBD8020FFF7DBFEFEBDA6
:1051C0006801002064580008757362645F65705F51
:1051D00073746172745F77726974653A0D0A0000C6
:1051E00010B5174B802809D04206D20DD218FF32D5
:1051F0000132D269002A00D0904710BD9A68104849
:1052000054189C60DA68521ADA6001D0214612E024
:10521000197D01290BD0C1880029EED00078C00982
:10522000EBD0002211461046FFF7CAFE10BD002049
:105230001875024601468020FFF710FF10BD0000E0
:105240006801002010B5184B002809D04206D20D85
:10525000D218FF320132D26B002A00D0904710BD25
:1052600011480029FBD09A6854189C60DA68521AD9
:10527000DA6004D021460020FFF7A2FE10BD0A49E3
:105280001C310A4699600C3A143900F0E3F8002802
:1052900005D0002211468020FFF7E0FE10BD8020DF
:1052A000FFF768FE10BD00006801002038B500203F
:1052B00000F05EF80A4800240477447740216846ED
:1052C0004180447080210170FFF7EAFD6846047058
:1052D000FFF7E6FD00210120FFF768FD38BD000063
:1052E000A8020020F0B504460020230AE6B21E4CB6
:1052F0008446032B08D00F2B12D0042B02D0052B91
:1053000000D003D90020F0BDEE2E02D0174CA469C6
:1053100021E060680028F6D003680B60007905E0A2
:10532000E0680028EFD003680B604068106001203F
:10533000F0BD65789D420DD16546B44508D1012088
:105340000C60022B0BD0072B09D021781160F0BD27
:105350006D1CAC463C192778002FEAD1F0BDE178EE
:10536000A37809021943F1E710000020680100202A
:10537000002802D1034A002111700349087000205F
:1053800070470000005C0040E002002008B5827811
:1053900069460A7041790279090211434A05520DA2
:1053A00069464A80C0788007800F48706846FFF7DA
:1053B00077FD002801D0002008BD012008BD0000B5
:1053C000F3B5234883B084690020FF273E46054695
:1053D000019033E06078042802D005282CD109E040
:1053E000A6780398E778864226D10498874223D18D
:1053F000019421E0039886421ED1049920468F42F1
:1054000017D081786A4611704279037912021A43E3
:1054100053055B0D6A465380E0788007800F50701B
:105420000846FFF73BFD002801D0002504E00125D8
:1054300002E0FFF7ABFF054620780419207800282A
:10544000C8D108200199FFF7B1FC284605B0F0BD8E
:105450006801002010B5037860241C4004D0202C83
:1054600015D0402C1AD115E09B079B0F04D0012BBF
:1054700005D0022B12D105E000F014F804E000F092
:10548000B7F801E000F07AF8002807D008E0FFF74D
:105490009FFC01E000F0FEF8002801DA002010BDBA
:1054A000012010BDF0B516460246C0789378000280
:1054B0005278184389B001251300FEF7FBF80A065D
:1054C000561756170E12171B1F170A680020107068
:1054D000096848700220306009E0C0B2FFF748FF59
:1054E00043E03246FFF7FEFE054600E00025284671
:1054F00009B0F0BD1F4808600120ECE7C7B20020EA
:1055000003901D488469FF200190009000201CE05A
:105510006178022904D0042908D0052913D108E0B4
:1055200061790091B9420ED101200CE0E17801913E
:1055300009E00099B94206D1039A0199914202D13A
:105540002046FFF723FF21780C1921780029DFD1AD
:1055500000280CD0074801211D384777017700212A
:105560000720FFF723FCFFF767FC0020B3E70025C7
:10557000FBE70000C502002068010020F7B50546E2
:10558000407929790002084382B0C0B2174601244D
:105590000090FEF79BFB002809D0687800260028C1
:1055A00007D001280ED0032817D00024204605B0CC
:1055B000F0BD0398006806700398006846700220EA
:1055C0003860F3E7E878A9780002084303D100982F
:1055D000FFF73CFCEAE7002407E0E878A97800023E
:1055E0000843F8D10098FFF7C5FC3E60DEE70000F5
:1055F000FEB504460E46C078A17800020843000AB2
:1056000001906079217900020843C0B21746012554
:105610000090FEF75BFB00281FD060780300FEF7C8
:1056200049F80C0720202020200E202020232820AD
:1056300031680020087031684870022026E0019827
:1056400022280ED1124809E0027F00998A4205D132
:1056500041693160806938600120FEBD0068002822
:10566000F2D100252846FEBD3168002008700120D7
:105670000CE0E078A17800020843C1B26079227999
:1056800000021043C0B2FFF79BFE00203860E9E73C
:1056900010000020F8B50F461F4905464868164619
:1056A000002814D069784279914223D169792A7906
:1056B00009021143042902D005292AD103E0816897
:1056C0003960808913E001693960808A0FE0886859
:1056D00000280FD06978827991420BD169792A79B3
:1056E00009021143072914D10168396080883060AC
:1056F0000020F8BD0848046809E0E368002B05D0E5
:1057000032463946284698470028F2D02468002CB3
:10571000F3D10020C043F8BD10000020F8B560238D
:105720006A4613700B0A537091708000D070FDF7B9
:10573000ECF9154D2878FDF7D1F9FDF772F900283D
:1057400003D0FDF7F6F90120F8BD00246E46305D68
:10575000FDF7C4F9FDF765F9641CE4B2042CF6D337
:10576000FDF7D3F9287801210843FDF7B7F9FDF7D4
:1057700058F9FDF78CF904460120FDF7A2F9FDF771
:10578000D8F92046F8BD00003800002000000000D5
:105790000000000000000000000000000000000009
:1057A00000000000000000000000000001000000F8
:1057B00002000000030000000400000006000000DA
:1057C00007000000080000000900000000000000C1
:1057D00000000000000000000000000001000000C8
:1057E00002000000030000000400000000093D006A
:1057F00000127A000024F4004086510100366E0148
:1058000000093D0000093D0000093D00001BB700F4
:105810000024F40000366E0100366E0100093D00E0
:1058200000127A000024F4004086510100366E0117
:10583000020000000300000002000000020000005F
:1058400000093D0000127A000024F4004086510156
:1058500000366E0130313233343536373839414213
:105860004344454653657475703A20626D526571C4
:105870007565737454797065203078253032782CD2
:1058800020625265717565737420307825303278E6
:105890002C207756616C7565203078253034782C53
:1058A0002077496E646578203078253034782C2054
:1058B000774C656E677468203078253034780D0A2F
:1058C000000000000D0A736764476574496E7075C7
:1058D000743A706F7765724C6576656C203D25640F
:1058E00020353330367374617465203D2025642083
:1058F00076626174203D2025646D762076315F35B7
:10590000203D2025646D7620626174537461746556
:10591000203D202564200D0A206F7065726174653A
:105920005469636B203D202564207331203D202580
:1059300064207332203D202564207866756C6C20CD
:105940003D2020256420737769746368203D2025FD
:105950006420757362203D202564200D0A0000003C
:105960002D2D2D2D494742545F4720706C757320B3
:105970003D2025640969676274203D092564096733
:105980006F6E65203D20256420206C617374203D7E
:105990002025642020636F756E7420203D202564CF
:1059A00009202069676274206C6F75203D20256492
:1059B0002020696E206C6F75203D202564202069B1
:1059C0006C6F75203D2025640D0A0000EC5900081D
:1059D00000000020C802000076070008405A0008B6
:1059E000C8020020201E0000DE3600081113127AC3
:1059F0003204022F01021BF05A0A0429546904C11F
:105A0000A918E904692009122829541A69092904E6
:105A10008123270C1A1C103290325332313220323B
:105A200016CB88134871223F1A8004C9B032143251
:105A30001EF2282C3333332CB93001FF01950000BE
:04000005080000C12E
:00000001FF
