:020000040800F2
:10000000300F0020D5000008852E0008012D0008C3
:1000100000000000000000000000000000000000E0
:100020000000000000000000000000009131000806
:100030000000000000000000E92E000893310008D5
:10004000E7000008E7000008ED2E0008E7000008C0
:10005000E7000008E7000008DD080008E7080008DE
:10006000E7000008E7000008E7000008E7000008D4
:10007000E1050008CD310008E7000008E7000008AE
:10008000E7000008E7000008E7000008E7000008B4
:10009000E7000008E7000008E7000008E7000008A4
:1000A000E7000008E7000008E7000008E700000894
:1000B000E7000008E7000008E700000855370008DF
:1000C0000348854600F02EFA00480047C13E00086C
:1000D000300F00200448804704480047FEE7FEE751
:1000E000FEE7FEE7FEE7FEE79D310008C1000008DD
:1000F00030B50B46014600202022012409E00D46C0
:10010000D5409D4205D31D469540491B2546954047
:1001100040191546521E002DF1DC30BD70B500248B
:100120002546002801DA01244042002901DA012590
:100130004942FFF7DDFFAC4200D04042002C00D026
:10014000494270BD03460B439B0703D009E008C931
:10015000121F08C0042AFAD203E00B780370401C77
:10016000491C521EF9D27047D2B201E00270401C05
:10017000491EFBD270470022F6E710B513460A4627
:1001800004461946FFF7F0FF204610BD03460A78E3
:100190000270401C491C002AF9D118467047F8B576
:1001A00002464A40D40F42004B0052085B089A4274
:1001B00002D20246084611464A0023D0C30D4A0027
:1001C000DDB2120EAD1A202D35DA49020126490A98
:1001D000F6058A19002C00D0524220214F1B1146EF
:1001E000B9402A411018C20D9A4221D0002C17D0D4
:1001F000012D08DCDA05801AD20F8019D207DBB294
:1002000000F0F7F8F8BDDA05801A012340001B065C
:10021000C01880185A428018CA0F1043490007E0DE
:100220004908C2071143DA05801A8019400880186E
:1002300000F0D7F8F8BD61000122511A001BF7E762
:100240000122D2075140AAE70122D2075040A6E777
:10025000F0B51FB488B00B9909980024484009995B
:10026000C00F490049080991C0070B990090490047
:1002700049080B9109990898A64608431CD00B9988
:100280000A98084318D0099801244000420D4800FC
:10029000410D099824050003000B204309900B9899
:1002A0000003000B20430B9050181C4940180022FB
:1002B00001901446104605E0002001460DB0F0BD47
:1002C000032801DA034600E003239C46C11A0AAE64
:1002D0000AE05F0008ADED5B4F00F75B7D43002750
:1002E000AA187C41491C5B1E6145F2DD410004AB4C
:1002F0005A522104120C0A43240C401C0828DFDB4C
:10030000019802900099704601910090059B049A13
:100310000799069800F0B3F8D0E700000DFCFFFF46
:1003200070B54B005B0803430BD04B005C0D0026FF
:1003300033466542B341D417AD1AA34102DB002016
:10034000014670BD12053018514170BD10B5002234
:100350009623114600F04DF810BD00000EB505497A
:100360000291002100910A460B46019100F087F8A6
:1003700003B000BD33040000C20F4100400201235E
:10038000400ADB05D207090EC0187F2901DA0020D8
:100390007047962903DC9623591AC84001E0963924
:1003A0008840002AF4D040427047CB0FDB07490059
:1003B00010B5490802460A4307D00A0D072409036D
:1003C000E401090B121B002A01DC002010BDC9004A
:1003D000440F0C43C100E018D205801800F001F86A
:1003E00010BD002904DA401C490001D1400840003A
:1003F000704770B40024050C05D11024000402D10C
:10040000002921D01124050E01D100020834050F66
:1004100001D10001241D850F01D18000A41C0028FA
:1004200001DB4000641C002908D020252E1B0D464E
:10043000F540A14000D001212943084301061B1BC0
:10044000000ADB1D02D5002070BC7047DB051818C0
:1004500080180029F8DA401C4900F5D170BC40082A
:100460004000704710B5002B08DA0024401C6141A1
:1004700092185B411A4301D14008400010BDF0B50D
:100480001FB482B005460C0003D0084603F0E7FA1B
:1004900002E003F0E4FA20300246009021462846AC
:1004A00000F052F8049B059A04460F461843114386
:1004B000084314D0184610431BD0009840210A1A54
:1004C0001846059900F050F805460E46009A059921
:1004D000049800F039F8084305D0012004E02046D4
:1004E000394607B0F0BD0020C11705430E432C4329
:1004F000374300990E986305401A7905E40A0022F3
:100500000C43FD0A0A3002D500200146E9E7010547
:10051000101969410C9C0D9D00196941FFF7A2FF5C
:10052000DFE70000064C0125064E05E0E36807CC36
:100530002B430C3C98471034B442F7D3FFF7C4FD6B
:10054000606100088061000810B5202A04DB0146C4
:10055000203A9140002010BD914020239C1A034670
:10056000E3401943904010BD10B5202A04DB084633
:10057000203AD040002110BD0B46D340D04020246B
:10058000A21A91400843194610BD70B58C18057821
:10059000401C6B075B0F01D10378401C2A1106D168
:1005A0000278401C03E006780E70401C491C5B1E5C
:1005B000F9D12B0705D40023521E0DD40B70491C12
:1005C000FAE70378401CCB1A921C03E01D780D70EB
:1005D000491C5B1C521EF9D5A142D8D3002070BD26
:1005E00010B5034800F0A2FB024800F0C1FC10BDAA
:1005F000C8040020EC06002070B50446006881683D
:10060000C943C9071BD1816849084900816001F0CD
:1006100013F905460EE001F00FF9401B022809D935
:10062000E06A10210843E062206B01210843206347
:10063000084670BD20688068C043C007EBD000202A
:1006400070BD0000F8B50026044600960068816879
:10065000C943C9072FD08168012739438160102021
:100660002168C0430860216840100860144813499D
:100670000068FFF73DFD1421484300E0401E009054
:100680000028FBD101F0D8F805460FE001F0D4F8BE
:10069000401B02280AD9E06A10210843E062206B5F
:1006A00038432063203426720120F8BD206880681A
:1006B000C043C007EAD10020F8BD000040420F004F
:1006C000000000207047000030B50D4604460B4680
:1006D000024687B00BA1002002F084FC00200590A8
:1006E00014216846FFF747FD02206A4631C205A97A
:1006F000684600F077FD002801D0FFF7E3FF07B060
:1007000030BD00004150505F466C617368457261B6
:100710007365202578202025640D0A0010B58AB065
:10072000142104A8FFF727FD002418480094019421
:1007300002940394C26B01040A43C263C26B0A4071
:100740000992426B02210A434263406B08400990C0
:1007500080200490032005900120069004A90C48F5
:1007600000F0CCFF0B48039070200290019400949D
:10077000684601F0D3F800221146012001F0BCF8D0
:10078000012001F0AFF80AB010BD000000100240D7
:10079000000400500300010030B591B030216846DC
:1007A000FFF7E9FC002502240F95E0010094059075
:1007B00010480C950D950E950695008CA103C0046C
:1007C000C00C4018079009940B950A94684601F0F4
:1007D0009DFB002809D107200CA931C101210CA8DB
:1007E0000F9501F075FA002801D002F06FFB11B0EF
:1007F00030BD00000032FF1F00B50B48016AC9047C
:1008000005D40A494A68FF2381331A434A60006AC3
:10081000000506D4074806490160072141600649E2
:10082000816000F00BF800BD00200240002C004069
:100830005555000000300040FF0F000004480168DB
:100840007F2211430160044902480860704700009C
:10085000002C0040AAAA00000030004070B50546F8
:1008600000F0EAFF040000D10124204604F0B8FDA6
:10087000A842FADB70BD062148430146401E00290C
:10088000FBDC704770B5054602F0AFFA124C2078D9
:1008900002F094FA02F035FA002803D002F0B9FA17
:1008A000012070BD28462021084302F087FA02F09B
:1008B00028FA02F09AFA20780121084302F07EFA21
:1008C00002F01FFA02F053FA0446012002F069FA1E
:1008D00002F09FFA204670BD3000002010B50820BD
:1008E00000F07EF910BD10B5102000F079F901205C
:1008F000400200F075F9202000F072F90120400359
:1009000000F06EF9012000F06BF910BD10B502F097
:100910006CFA134C207802F051FA02F0F2F902F06E
:10092000F0F9002803D002F074FA012010BD8020F5
:1009300002F044FA02F0E5F902F057FA20780121BA
:10094000084302F03BFA02F0DCF902F010FA044628
:10095000012002F026FA02F05CFA204610BD0000E9
:100960003000002005490020486005484169042204
:10097000114341610348C1060860704780020020AE
:100980000020024021433412054A002151600549EC
:100990004A6902231A434A61FF210160704700003F
:1009A000800200200020024070B50D4C00226369D7
:1009B00001252B436361EFF3108372B60125ED042B
:1009C00040C9521C40C0D2B23F2A04D0402AF7D3BB
:1009D00083F3108870BD66692E436661F0E70000FE
:1009E0000020024003494A69CB141A434A61FF219F
:1009F000016070470020024070B5044600F01CFF03
:100A00000519084C05E000F017FFA84201D30320A8
:100A100070BD2069C043C003F5D5034820610020A4
:100A200070BD00000020024011800000FEB50026CD
:100A30000546044620350196287A012808D0012071
:100A400028722046FFF7D8FD0090002802D04DE024
:100A50000220FEBDE06A11210902884302273843C3
:100A6000E062780300F098FF014622480068FFF733
:100A70003FFB400000E0401E01900028FBD12068B1
:100A80008168C90721D1816808221143816000F083
:100A9000D3FE019005E000F0CFFE0199401A0A282C
:100AA00013D8206880680007F5D420688168042284
:100AB0001143816000F0C0FE01900EE000F0BCFE2A
:100AC00001460198081A0A2807D9E06A1021B8439C
:100AD0000843E0622E720120FEBD20688068400756
:100AE000ECD4E06A80088000401CE0622E7200981E
:100AF000FEBD0000000000207047000010B5064C4D
:100B00006168002903D000F00AF8608010BD00F091
:100B100006F8208010BD0000240000207047006807
:100B2000006D70477047704770B505460446203524
:100B3000287A01280BD0012028722046FFF782FD79
:100B400001460020002904D02872084670BD02200A
:100B500070BDE26A184B1A40FF2301331A43E26268
:100B600023685A68520506D5E26A01267603B24325
:100B700076103243E262E26AD20404D5226B042684
:100B8000B243226300E0206328722220C043186031
:100B900020684268094B1A43426020688268120349
:100BA000520F072A826803D05B121A438260CCE797
:100BB00005231B05F9E70000FEFDFFFF20000020D4
:100BC00070470000054901204A69C3071A434A617A
:100BD0004969002900DA0020704700000020024027
:100BE00010B50449CA68024202D0C86000F0CCFCCB
:100BF00010BD00000018024070477047A027042372
:100C0000F8B50025044620340095227A012A13D035
:100C1000012222724A681F23072A0FD20768BE6B7F
:100C2000BC46521E9700D21993409E430B686746FC
:100C300093401E43BE631CE00220F8BD07680D2AE6
:100C4000BC460BD27E6BD21F9700D21993409E43B5
:100C50000B68674693401E437E630AE03E6B0D3A85
:100C60009700D21993409E430B68674693401E43FA
:100C70003E630A680723142A0DD30768FE68BC4642
:100C8000143A5700D21993409E438B6867469340AD
:100C90001E43FE6019E007680A2ABC460BD33E6972
:100CA0000A3A5700D21993409E438B686746934097
:100CB0001E433E6109E07E695700D21993409E436E
:100CC0008B68674693401E437E610A68102A01D0F4
:100CD000112A20D1124B02689A4217D19068000263
:100CE00019D490680123DB05184390600868102828
:100CF00011D10D480B490068FFF7FAF90A21484362
:100D000000E0401E00900028FBD104E0C16A2022D0
:100D10001143C1620125002020722846F8BD000061
:100D20000024014040420F000000002070B504463E
:100D30000068416801258906002926DA01688907CB
:100D400023D5E16AC90603D4E16A6A021143E1626C
:100D500081680903490F072910D1217C00290DD191
:100D60004168202291434160E06AD1008843E062FB
:100D7000E06AC00402D4E06A2843E0622046FFF73C
:100D8000BDFE12202168C043086020684168090642
:100D90002FD5016849072CD5E16AC90604D4E16A58
:100DA000012252031143E16281684904490F072976
:100DB0000AD04168490515D481680903490F0729FC
:100DC00010D1217C00290DD14168802291434160DE
:100DD000E06A51018843E062E06AC00502D4E06A3B
:100DE0002843E0622046FFF787FE0C202168C043BD
:100DF00008602068416849060ED50068C0070BD01E
:100E0000E06A012109040843E0622046FFF78AFEF8
:100E100001202168C043086020680168890610D558
:100E2000416889000DD58168064DC90507D5216B3C
:100E300002221143216305602046FFF76FFE206800
:100E4000056070BDDFFFFFFFF8B5002504460028F0
:100E500003D0E06A002802D008E00120F8BD00209D
:100E60002063282108552046FFF75DFE2046FFF746
:100E7000C3FB0146E06AC00601D4002904D0E06A41
:100E800010210843E06267E0E06A112212029043F9
:100E900002221043E062A268206A267C02437000AE
:100EA0000243FF23E0680133984208D0012806D0AE
:100EB000002067683843277E012F02D00BE01846D8
:100EC000F7E7002E1ED0E66A20273E43E662266B37
:100ED00001273E43266327687E68BC46204F3E407C
:100EE000064367467E602668B0681E4F3840104350
:100EF000B060E06898420CD001280AD0207E01281A
:100F000007D00AE0E66903277603FF02F61B3043A9
:100F1000E1E7A08A144B0005C5182068036B0F2673
:100F20003605B3432B430363206880680F4B18409A
:100F3000904207D100202063E06A80088000401CB6
:100F4000E0620AE0E06A0221884310210843E0627F
:100F5000206B01210843206301210846F8BD0000F1
:100F6000FF16FFFCFDF7E1FF0000F0FFFE0E1FFF84
:100F700070B5114B0168994202D10121490408E082
:100F80000D4A1032914202D10121890401E0012170
:100F900009051A680125ED029C682A40074B2C4080
:100FA000DD680E46AE4306D1224301D00321490439
:100FB000D96000F0F7F870BD00020140001802404F
:100FC000F8B5044600200090002C05D025462035B9
:100FD000697B002903D007E001200090B1E028736D
:100FE00020632046FFF7ECFDE1682069A268084312
:100FF000216A1143084321680A68534B1A4002438F
:101000000A60606A00280FD000042168401C486014
:101010004E4A4E4821681032814201D0914217D188
:1010200021692C2906D013E020684168490849004D
:101030004160EDE701680123DB06994363691943C9
:10104000016001687F231B059943A369194301606F
:101050003E4E0127E1693F04022320360129216821
:1010600005D081420FD10B68BB430B6012E0814277
:1010700002D10B683B43F8E7914201D0B14209D15C
:101080000F681F4305E0914201D0B14202D10F68C1
:101090009F430F602168B14216D001216368C902E5
:1010A0008B4205D103688B43036083680B430AE0DE
:1010B0000326F602B342036801D10B4300E08B43E1
:1010C000036083688B4383602168814202D10120E1
:1010D000400406E0914202D10120800401E0012099
:1010E0000005A26A1A49930725D0D306194A136846
:1010F00001D5034300E083431360238D9B065368AF
:1011000001D5034300E083435360D060228D9207F2
:101110004A6801D5024300E082434A60228DD2072B
:1011200002D00A68024301E00A6882430A60687BD1
:10113000002804D005E04A6882434A60F4E70120B1
:1011400068730098F8BD00000274F3BF000201400C
:10115000801802400018024038B500210C4600916A
:10116000002804D0014620314A7B012A02D0012404
:10117000204638BD0068026801231A43026002203D
:101180004873074805490068FEF7B2FFC00000E059
:10119000401E00900028FBD1EAE70000400D03004C
:1011A0000000002010B5074C2068002809D100F08D
:1011B00043FB401C206002F0AFFF03A1002001F0C0
:1011C00011FF10BDD400002048414C5F434F4D50EB
:1011D0005F5472696767657243616C6C6261636BCF
:1011E000200D0A00F8B5044663480E460178012533
:1011F000012964D001210170604840680004410F5A
:101200005F4803688A005F498A581168CFB2BC46BC
:10121000634529D14368CF01FF0DBB4224D1036947
:101220000904090E8B421FD183689168CFB2BB427B
:101230001AD1C3684901490D8B4215D1416913691F
:10124000DB03DB0B99420FD181699369DB03DB0B75
:10125000994209D1C369116A8FB2BB4204D1036AB2
:101260008900890C8B421ED0614601601168C9015A
:10127000C90D416011880904090E0161117A81606C
:1012800091684901490DC1601169C903C90B4161E8
:101290009169C903C90B8161118C89B2C161116A5D
:1012A0008900890C01627D202168C000012908D0D5
:1012B0000027FF43022915D0032934D056E002202D
:1012C000F8BD0446FFF798FB00284FD1FFF74AFB13
:1012D0002046FFF791FB05462B48416904229143C4
:1012E000416143E07D20C000FFF786FB00283DD12F
:1012F0003760676810E03846FFF746FB7D20C00086
:10130000FFF77AFB05462048426902218A43426181
:10131000002D20D1FF370137A06861680002401816
:10132000B842E8D822E07D20C000FFF765FB002826
:101330001CD13760E76813E03846FFF753FB7D2088
:10134000C000FFF759FB05460F484269C1148A43A4
:101350004261002D01D0376008E0012040033F18B2
:101360002069E16840034018B842E5D802480021EE
:1013700001702846F8BD00008002002000100240E5
:1013800000210240A85E000800200240F7B53D4C55
:101390000F46207801285BD0012020703A48406831
:1013A0003A4900040D68400F8200394880580268AD
:1013B000D3B29D4229D14D68D601F60DB54224D154
:1013C0000D691204120E95421FD18D688268D6B243
:1013D000B5421AD1CD685201520D954215D14A69D4
:1013E0000569ED03ED0BAA420FD18A698569ED030A
:1013F000ED0BAA4209D1CD69026A96B2B54204D179
:101400000D6A9200920C95421DD00B600268D201C9
:10141000D20D4A6002881204120E0A61027A8A60B2
:1014200082685201520DCA600269D203D20B4A612E
:101430008269D203D20B8A61028C92B2CA61006ABD
:101440008000800C08623806000E03D00120FEBD2B
:101450000220FEBD7D25ED002846FFF7CDFA0028CD
:101460000DD138460299FFF79FFA2846FFF7C4FAD4
:1014700008494A69520852004A610028E9D100210E
:101480002170FEBD800200200010024000210240B9
:10149000A85E000800200240064900204A69002A90
:1014A00007DA054A8A60054A8A604969002900DA34
:1014B000012070470020024023016745AB89EFCD32
:1014C000F0B5002355E001249C4022460A404FD04D
:1014D0009E082A4DB60075192F6EAC469D07EE0E7C
:1014E0000F25B540AE463D4005273F07B84201D124
:1014F00000270AE0224FB84201D1012705E0214F21
:10150000B84201D1022700E00327B740AF4214D10F
:101510001A4E803635689543356075689543756019
:10152000164E356895433560756895437560654618
:101530002D6E724695436246156605685E0003226D
:10154000B24015430560DD08AD002D182E6AAC468B
:101550005D07EF0E0F25BD40AE4365462E628568E0
:10156000954385604568A5434560C4689443C4605D
:101570005B1C0A46DA40A6D1F0BD0000001802400C
:10158000000400500008005070B53A4C86B0202886
:101590000DD00121490388420FD100F04DF90346D7
:1015A000082235A1002001F01DFD06B070BD03F03A
:1015B00035F800F041F96061F7E7102815D00828E8
:1015C0001FD001256D02A8422BD103F03FFEE06B36
:1015D000401CE06300F030F9206300F02DF9E16B6E
:1015E000009103462A462AA117E003F0F1FD606B43
:1015F000401C606300F020F9616B034610220091EB
:101600000AE003F0E5FD606B401C606300F014F934
:10161000616B03460822009127A1002001F0E2FC43
:10162000C3E7012808D0012189038842BDD12CA13C
:10163000002001F0D7FCB8E7E06A03F0D1FE0546D0
:10164000A06A03F0CDFEE36BA16B626BCE1AD31AD6
:101650000090521A019502A84EC027490020E36A63
:10166000A26A01F0BFFC00F0E7F8E062A06B401C4A
:10167000A0639AE74400002050494E5F5846554CFD
:101680004C202020202564202025640D0A00000025
:1016900050494E5F464C4153485F494E20207320CD
:1016A0002564202025642020636F756E7420203D02
:1016B000202564200D0A000050494E5F464C4153DE
:1016C000485F4254202020202564202025642020CB
:1016D000636F756E7420203D202564200D0A000084
:1016E0002D2D2D2D50494E5F465F454E2020206404
:1016F000726F7020200D0A00F4600008F0B500231E
:1017000081E001249C402A46A44622407AD04C68BD
:10171000022C01D0122C0CD1DC08A40027183C6A42
:101720005D07ED0E0F26AE40B4430E69AE40264372
:101730003E6205685E000324B4400F79A543BF07ED
:10174000BF0FB7402F4307604D68012D05D0022D14
:1017500003D0112D01D0122D0ED18568CF68A5437D
:10176000B7402F43876047686546AF430D79ED0664
:10177000ED0F9D403D434560C568A5438C68B4406E
:101780002C43C4604C68E4003CD59D08214CAD005E
:101790002F193C6E9D07EE0E0F25B540AC43052575
:1017A0002D07A84201D100250AE01B4DA84201D116
:1017B000012505E0194DA84201D1022500E00325CD
:1017C000B5402543134C3D66124E803635684F6850
:1017D0009543FF0300D51543356075684F68954301
:1017E000BF0300D51543756025684E689543F60222
:1017F00000D51543256065684E689543B60200D54F
:10180000154365605B1C0A681546DA4000D078E72E
:10181000F0BD000000180240000400500008005015
:101820000069084000D001207047002A01D0816182
:10183000704781627047000001488068704700006F
:10184000040000200248816842688918816070475E
:101850000400002010B50024204600F009F80028FC
:1018600001D0012401E000F027F8204610BD00005F
:1018700070B50F4E002471680546002915D07D20F3
:10188000C000FEF735FC01460A480068FEF730FC50
:1018900000F086FD002808D1042D06D2002229463A
:1018A000401E00F029F8356000E00124204670BD9C
:1018B000040000200000002008B50948016801224A
:1018C0001143016000681040009005484038C26B29
:1018D00001040A43C263C06B0840009008BD0000C9
:1018E00040100240C106C90E01208840014908602D
:1018F0007047000000E100E010B501F0C5FA10BD2E
:10190000BFF34F8F04490348C860BFF34F8F00BF38
:10191000FDE700000400FA0500ED00E030B5426884
:10192000816803681143194A5468194D2C402343B8
:1019300019435160174B59680122120491435960B1
:10194000196891431960134980394C6894434C607D
:101950000C6894430C60C468E40302D51C6814430B
:101960001C60C468A40302D55C6814435C60037BFC
:10197000DB0702D00B6813430B60007B800702D5A6
:10198000486810434860002030BD000000700040EF
:101990008BF0FFFF80180240F0B585B005460024AB
:1019A00014226F496846FEF7CDFB012676046D4A86
:1019B000B1108B116B48403AB54215D1C569032669
:1019C0003602076A3540BF0701D59D424ED0C06937
:1019D000800702D5E81FF93848D01068800302D587
:1019E000B54200D1604CB8E0302D60D006DC012D4E
:1019F0001ED0022D3CD0202D19D149E0FF3DFF3DE6
:101A0000AD1E58D01F214902691A75D00B239B03C4
:101A100099420CD14069402108401168890301D5E1
:101A2000402859D01168890101D5002856D094E08A
:101A3000426980231A4016D0036A9B0707D5C36901
:101A40009B0104D4C369DB0101D5802A0ED0C36990
:101A50009B0707D5C3699B017FD5C069C0017CD5B1
:101A6000802A03D079E000F0DFF96FE00C4674E0E3
:101A70004269FF2301330CE0C569AD076DD5C56927
:101A8000AD016AD5C069C00123E09A42EED064E09E
:101A900042691A40E7D0056AAD07EDD5C569AD01C9
:101AA000EAD4C569ED01E7D59A42E5D1DEE742699E
:101AB00001239B02EDE7426903239B041A40D2D025
:101AC000056AAD0703D50125AD04AA42CED0C06991
:101AD00080070028D9DB40E0244C3EE0D068810735
:101AE000D068890F0007800F801C022909D00329C4
:101AF00003D00498440030E00EE01C4904464C43F7
:101B00002BE051680904490F042900D900218900FC
:101B10006A465458444320E01068032149050840B0
:101B200007D001214905884207D100F07DF98408DA
:101B300013E000F079F944080FE00121890588429B
:101B400006D100F071F90621FEF7D2FA044604E04E
:101B5000012802D100F068F9C408204605B0F0BDA4
:101B6000945E0008401002406CDC020000366E01FA
:101B7000F8B5044600680027514E524D800354D5F5
:101B8000F06BC00007D4F16BA8050143F163F16B62
:101B90000140012700914C480168C90511D4016832
:101BA000821511430160FFF747FE009005E0FFF743
:101BB00043FE0099401A022824D843480068C00513
:101BC000F5D5E86903210902084020D0A2690A403E
:101BD00082421CD0E869EA698843012109040A436A
:101BE000EA61EA698A43EA61E861C0070FD0FFF75A
:101BF00023FE009008E0FFF71FFE0099411A3348CA
:101C0000814201D90320F8BDE8698007F3D5E8696E
:101C1000032109028843A1690843E861002F04D029
:101C2000F16B012000078143F1632078C00705D0E4
:101C3000686980218843616808436861207880076B
:101C400006D56869FF2101318843A16808436861AE
:101C50002078800606D56869012149028843E16839
:101C60000843686120788006800F032806D16869E0
:101C70000121890288432169084368612088800521
:101C800006D568690321890488436169084368614E
:101C900020688003800F032805D1686940218843AC
:101CA000E169084368612088400406D53068032153
:101CB00049058843216A084330600020F8BD0000D0
:101CC00000100240401002400070004088130000E5
:101CD000F8B50F46060043D04D4D28688007800FA9
:101CE000B84213D228688008800038432860FFF784
:101CF000A3FD044605E0FFF79FFD011B4548814217
:101D000061D828688007800FB842F4D13068424C0F
:101D100081070DD5400704D5A068072109030843B2
:101D2000A060A0680F2109028843B1680843A06041
:101D30003078C00732D0706801280AD000280BD054
:101D400002280FD03449403104280ED0096A89078F
:101D500004E02168890301E021684905002906DBC8
:101D60000120F8BD21688901F8E7C969EFE7A1689A
:101D7000C908C9000143A160FFF75EFD009006E0BD
:101D8000FFF75AFD0099411A224881421BD8A068EA
:101D9000382108407168C9008842F1D1286880075D
:101DA000800FB84217D91A48016889088900394359
:101DB0000160FFF741FD054607E0FFF73DFD411BD0
:101DC0001448814201D90320F8BD114800688007FA
:101DD000800FB842F1D13078400706D5A0680721BE
:101DE00009038843F1680843A06000F031F8A16856
:101DF0003C2289091140094A515CC906C90EC840F4
:101E00000749086007480068FFF732FDF8BD000089
:101E1000002002408813000000100240E05D00082E
:101E20000000002004000020064807490068896877
:101E30001C22890A1140054A515CC906C90EC840D6
:101E4000704700000000002000100240205E0008E3
:101E500010B58AB014222A4904A8FEF773F9284B5A
:101E60006C4614330FCB0FC4264A906804AB80062F
:101E7000400F18D090688006400F012823D090684A
:101E80008006400F022820D090688006410F012074
:101E9000C003042905D091688906490F032900D0A1
:101EA00000200AB010BD106801218004400F81405D
:101EB00050680004400F042800D900208000185802
:101EC000FEF716F9EDE71048EBE7D0688107D06818
:101ED000890F0C2420406C462058022906D0032983
:101EE00001D008990AE008494843DAE75168090433
:101EF000490F042900D90021890059584843D0E7E7
:101F0000705E00080010024000366E01F0B504005B
:101F1000F94887B006C80292019103C80491039062
:101F200079D020783827C007F44D002851D0A86810
:101F3000E96838408907890F102802D0082817D08F
:101F400001E0032914D00122920461689010002955
:101F50001DD0A1680029E3D02B699B089B000B438F
:101F60002B61616881420AD129680143296014E02C
:101F7000286880032DD560680028D1D029E005238A
:101F80001B04994203D1296811432960ECE72968B1
:101F900081432960286890432860606800280CD03D
:101FA000FFF74AFC064604E0FFF746FC801BC82802
:101FB00076D828688003F7D50BE0FFF73DFC06468E
:101FC00004E0FFF739FC801BC828F1D8286880039B
:101FD000F7D42078800775D5AE68E8683E40800762
:101FE000800F102E02D0002E16D001E0022813D050
:101FF0006069002855D028680721C9028843A16973
:10200000084328602868FF21013108432860FFF752
:1020100013FC06463AE0A9E02868400502D560694D
:10202000002898D06868E169000C000408436860E3
:10203000FFF702FC074604E0FFF7FEFBC01B022887
:10204000B6D828684005F7D5002E13D12868072197
:10205000C9028843A16908432860FFF7F9FEA9680F
:102060003C2289091140A64A515CC906C90EC840E4
:10207000A4490860A4480068FFF7FAFB002875D15E
:1020800020E0FFF7D9FB801B022891D82868400583
:10209000F7D56868E169000C00040843686011E046
:1020A000B0E02968FF20013081432960FFF7C4FBBD
:1020B000064604E0FFF7C0FB801B022885D828688D
:1020C0004005F7D42078914E00072ED5A8688006E9
:1020D000400F03280AD0206A0028306A16D0012158
:1020E00008433062FFF7A8FB07460BE0306A800721
:1020F0001BD5206A002894D017E0FFF79DFBC01B7A
:1021000002289DD8306A8007F7D50EE040084000CD
:102110003062FFF791FB074604E0FFF78DFBC01B21
:1021200002286FD8306A8007F7D4207840077FD51F
:10213000A86800278006400F042818D0E86BC0006C
:1021400008D4E96B012000070143E963E96B014012
:10215000012700916E480168C90519D401688215EC
:1021600011430160FFF768FB05900DE077E0F0692F
:1021700080075DD5E068002871D059E0FFF75CFB6F
:102180000599401A02283DD861480068C005F5D578
:10219000E068042300280DD022699003810F5D4878
:1021A000296915D0814311432961E068012815D0C0
:1021B000052818D0F06940084000F061F1699943A2
:1021C000F161E06800281ED0FFF736FB059015E0AE
:1021D00081430120400408182861E6E7F0690121E5
:1021E0000843F061EDE7F0691843F061F6E7FFF7A7
:1021F00023FB0599411A484881427AD8F069800743
:10220000F5D50EE075E0FFF717FB059006E0FFF748
:1022100013FB0599411A404881426AD8F06980074A
:10222000F5D4002F04D0E96B012000078143E96356
:10223000606A002857D0A9688906490F022976D01C
:1022400001263606022828680AD0B0432860E868CC
:1022500080088000E860FFF7EFFA044663E06EE074
:10226000B0432860FFF7E8FA074604E0FFF7E4FA16
:10227000C01B02283DD828688001F7D4E06AA16A13
:10228000820801AB032902D0022908D011E0900096
:102290001B58224A934252D803AB185807E068688B
:1022A0001F4F0004400F8000920038589A58904207
:1022B00045D3E868800880000843E860E8680C219E
:1022C0008843E16A0843E860286830432860FFF7E4
:1022D000B3FA044604E0FFF7AFFA001B022808D85F
:1022E00028688001F7D52CE0FFF7A6FA001B02282A
:1022F00019D9032007B0F0BD605E0008001002404D
:10230000E05D0008000000200400002040100240B2
:1023100000700040000003008813000000366E01CA
:10232000405E000803E028688001DDD409E0012850
:10233000E0D0E868A16A8007800F884201D00120C0
:10234000D8E70020D6E710B5044600680168C90741
:1023500016D04168C90713D040684007204607D50A
:10236000FEF74BFC04202168C0434860042002E0D3
:10237000FEF742FC0120607401202168C0434860E0
:1023800020680168890709D54068800706D520467E
:1023900000F005F802202168C043486010BD704776
:1023A000094910B5401E884201D9012010BD074CD3
:1023B00060610321081F00F067FD0020A061072075
:1023C0002061002010BD0000FFFFFF0000E000E0E2
:1023D0007047704730B5034620331A7F012A26D054
:1023E00001221A770325CA682D02AA438D680024AA
:1023F0002A430125AD02AA434D6800682A430125FE
:10240000ED02AA430D682A4301252D03AA430D6955
:102410002A4301256D03AA434D69C9692A43012551
:10242000AD03AA430A4342641C77002030BD02205A
:1024300030BD0000F0B502462032137F012B1BD0C7
:10244000012616770223537705686B68AC687027FE
:10245000BB430F681F436F600068084B984202D06F
:10246000074B984204D1802349689C4321438160F3
:10247000567700201077F0BD0220F0BD002C0140FF
:102480000004004010B504460068042200F0F1FE8C
:102490002068416C0122D2031143416420688168A5
:1024A0004907490F062903D0016801221143016041
:1024B000002010BD70B504460068002200F0D9FE6F
:1024C0002068036A0C490D4A0B4207D1036A134284
:1024D00004D1436C0125ED03AB4343642068036AD8
:1024E0000B4206D1016A114203D101684908490033
:1024F0000160002070BD00001111000044040000C4
:1025000010B504460068042200F0B3FE2068416C58
:102510000122D20311434164206881684907490FB1
:10252000062903D00168012211430160002010BD7B
:1025300070B5040005D025462035687F002802D0FC
:1025400006E0012070BD00202877204600F00AF840
:1025500002206877211D206800F040FE0120687786
:10256000002070BDF0B54F4887B00268C1140A431F
:10257000026002680A400592026849010A4302604B
:1025800002680A400592026849000A430260026834
:102590000A404449059240394A6B01252A434A635F
:1025A0004A6B2A4005924A6B022422434A634A6BD3
:1025B000224005924B6B042213434B634B6B134039
:1025C00005934B6B202213434B63496B11400591DC
:1025D0000268E1040A430260006808400590142183
:1025E0006846FDF7C8FD802601940294039469466D
:1025F0002D4800960494FFF781F80B2004902003E7
:10260000009069462848FFF779F860030090694612
:1026100004952548FFF772F8E70105206946000791
:1026200000970494FFF76AF80520694600070096B2
:102630000494FFF763F80B20049069460097029515
:102640001948FFF75BF8E0020090694604941648C9
:10265000FFF754F8242000900320019000200290FE
:102660000520039469460007FFF748F80720049007
:10267000402000900520019469460007FFF73EF8CE
:102680000C20FFF72FF9012211460C20FFF734F937
:10269000002211460D20FFF72FF90D20FFF722F938
:1026A00007B0F0BD40100240000400500222014675
:1026B00020314A770068826801235207520F062AA8
:1026C00002D002681A4302604B7700207047000076
:1026D00002210246203251770168086A074B1842EE
:1026E00007D1086A9B10184203D1086840084000CF
:1026F0000860012050770020704700001111000091
:1027000010B504460068002911D0042904D0012224
:10271000002100F0A1FD20680122042100F09CFDB1
:1027200020680168012211430160002010BD0122D0
:102730000021F3E7704770B5044600680169002581
:10274000C9438907002915DBC168C943890711D42A
:10275000E91E0161012020772068806980072046FA
:1027600002D0FFF7E7FF04E000F096F8204600F003
:1027700072FA257720680169C943490717D4C168EF
:10278000C943490713D40421C943016102202077BA
:10279000206880698005800F204602D0FFF7CAFFBD
:1027A00004E000F079F8204600F055FA257720681B
:1027B0000169C943090716D4C168C943090712D47E
:1027C0000821C9430161042020772068C06980077F
:1027D000204602D0FFF7AEFF04E000F05DF820468F
:1027E00000F039FA257720680169C943C90617D472
:1027F000C168C943C90613D41021C9430161082027
:1028000020772068C0698005800F204602D0FFF73E
:1028100091FF04E000F040F8204600F01CFA257714
:1028200020680169C943C90708D1C168C943C907FC
:1028300004D1891E0161204600F03AFA206801693E
:10284000C943090609D4C168C943090605D48021D2
:10285000C94301612046FFF7BBFD20680169C943F8
:10286000490609D4C168C943490605D44021C94372
:102870000161204600F043FA20680169C9438906D6
:1028800009D4C168C943890605D42021C94301611F
:102890002046FFF79EFD70BD704770B5040005D05F
:1028A00025462035687F002802D006E0012070BD53
:1028B00000202877204600F00AF802206877211DC2
:1028C000206800F08BFC01206877002070BD704705
:1028D00010B504460068012200F0BEFC0E482168D5
:1028E000814208D00D48814205D00D48814202D076
:1028F0000C48814204D1486C0122D2031043486441
:10290000206881684907490F062903D00168012220
:1029100011430160002010BD002C01400040014027
:10292000004401400048014030B5044600680022E0
:1029300000F092FC144A134821689310814208D099
:102940001248814205D01248814202D0114881428A
:102950000AD1086A104207D1086A184204D1486CAB
:102960000125ED03A84348642068016A114206D19D
:10297000016A194203D10168490849000160002039
:1029800030BD0000002C014011110000004001404A
:102990000044014000480140F0B51F4687B00D4695
:1029A0000446BA4261D026462036307F012814D032
:1029B00001203077022070772868009068680190C5
:1029C000A8680290E86803902869059068690690F5
:1029D000002A05D0042A0CD107E0022007B0F0BD80
:1029E0006946206800F05EFC03E06946206800F05C
:1029F0009BFC38467027002802D0042830D111E013
:102A000018350ECD206800F09BFD206881690C22EE
:102A10009143816120688168B94381602068816841
:102A2000502211E018350ECD206800F0BEFD206860
:102A30008169032292029143816120688168B943D0
:102A4000816020688168602211438160206881680C
:102A5000C908C9008160206881680622114381602D
:102A60000120707700203077B8E70120B6E770B515
:102A70000E46040005D025462035687F002802D088
:102A800006E0012070BD00202877204600F014F8F1
:102A900002206877211D206800F0A0FB20680168F3
:102AA00008229143016020680168314301600120E0
:102AB0006877002070BD000000B587B0142168461B
:102AC000FDF759FB0C49CA6B02200243CA63CA6B6B
:102AD000024005924A6B02434A63496B01900140F0
:102AE00002900390059101200490009069460348EC
:102AF000FEF704FE07B000BD0010024000040050C5
:102B000010B5044600680122002100F0A5FB012257
:102B10000421206800F0A0FB09492068884208D001
:102B20000849884205D00849884202D007498842AE
:102B300004D1416C0122D20311434164002010BD35
:102B4000002C014000400140004401400048014089
:102B5000F8B5064604462036307F0D4601280DD0D4
:102B600001203077022070770427002A08D0042A39
:102B700016D0082A2AD00C2A4DD137E00220F8BD01
:102B8000206800F08FFB2068816908221143816171
:102B900020688169B9438161206881692A6912E0EE
:102BA000206800F0C1FB206882690121C9020A4344
:102BB00082612068816901229202914381612068CB
:102BC00081692A6912021143816124E0206800F0C2
:102BD000EBFB2068C26908210A43C2612068C16911
:102BE000B943C1612068C1692A6912E0206800F018
:102BF0001DFC2068C1690122D2021143C161206815
:102C0000C269012189028A43C2612068C1692A69B7
:102C100012021143C1610120707700203077F8BDA6
:102C200070B5040005D025462035687F002802D005
:102C300006E0012070BD00202877204600F00AF849
:102C400002206877211D206800F0C8FA012068770B
:102C5000002070BD7047704710B50446006801221F
:102C600000F0FAFA0E482168814208D00D488142EE
:102C700005D00D48814202D00C48814204D1486CF5
:102C80000122D20310434864206881684907490F34
:102C9000062903D00168012211430160002010BD04
:102CA000002C014000400140004401400048014028
:102CB000704770B5044605462034207F01280ED0A9
:102CC0000126267702206077284600F0E5FB0146C2
:102CD0000020002905D066772077012070BD0220F2
:102CE00070BD2968CA6840239A43CA602968CA68C7
:102CF0001B029A43CA6066772077002070BD704738
:102D0000FEE710B50024012000F098F805E0641CEF
:102D1000A4B2052C01D9012010BD00F021F8002833
:102D2000F5D100F08BF8002010BD000010B5074C65
:102D3000012311221021204601F006FE0123112259
:102D40002021204601F000FE10BD000000040050CC
:102D500010B520210148FEF763FD10BD00040050AE
:102D600010B5012000F07CF8FFF7F2FF10BD70B540
:102D70000025012000F074F800248026012000F0D6
:102D80005DF8FFF7E5FF012802D13046E04005433A
:102D9000002000F053F8641CE4B2082CEED328465F
:102DA00070BD10B500F05CF8012000F047F8282055
:102DB000FDF761FD002000F041F810BD70B506463A
:102DC000002000F03BF8002480252846E0403040F9
:102DD00000F046F8012000F031F8002000F02EF855
:102DE000641CE4B2082CF0D370BD10B5012000F0D3
:102DF00037F8012000F022F80420FDF73CFD002008
:102E000000F02EF8002000F019F82820FDF733FD1F
:102E100010BD10B5002000F023F8002000F00EF8DF
:102E20000420FDF728FD012000F008F8012000F043
:102E300017F82820FDF71FFD10BD000010B5074B47
:102E4000002808D0012210211846FEF7EEFC0A20C7
:102E5000FDF711FD10BD0022F5E700000004005051
:102E600010B5074B002808D0012220211846FEF794
:102E7000DCFC0A20FDF7FFFC10BD0022F5E7000096
:102E800000040050704700008307FF22DB0E9A40C9
:102E90008907090E994000280BDA0007000F08384F
:102EA000830808489B001818C36993430B43C36108
:102EB0007047830804489B001B1818689043084318
:102EC0001860704700ED00E000E400E0BFF34F8FB2
:102ED00004490348C860BFF34F8F00BFFDE70000FF
:102EE0000400FA0500ED00E07047000010B504484A
:102EF000FFF729FA03A1002000F074F810BD0000CC
:102F0000080600205254435F49525148616E646C78
:102F100065722020200D0A0010B50021192002F052
:102F200027FF09491B2002F023FF08491C2002F05B
:102F30001FFF07491D2002F01BFF0121C9031E20AE
:102F400002F016FF10BD0000030400002F0F000068
:102F500002030000F8B507460A48154600780E46F9
:102F6000002801D100F0FAFBEFF31084012080F378
:102F700010882A463146384600F006F8E1B281F35F
:102F80001088F8BD2004002070B50E461821484373
:102F9000134914464518E86A1835002804D001285A
:102FA0000FD0022805D113E0284600F00FFCA04204
:102FB00001D2002411E022463146284600F031FDBE
:102FC0000BE0284600F002FCA042F4D20446F2E7EF
:102FD0003146284600F0F5FC0446204670BD00004E
:102FE000200400200FB408B504A900916A46039993
:102FF00000F004F801B008BC04B01847F7B598B069
:1030000007A80290402000250495039018980C46CC
:10301000059506902178641C002977D0252907D0D2
:1030200002A800F0AFFC05980028F3DA1BB0F0BD51
:1030300001220021022713460826207823281BD0CE
:103040002B2816D02D2802D0302806D101E01943B4
:1030500000E03943641C002AEFD1002220780346A7
:10306000303B0A2B0AD20A235A431218303A641C06
:10307000F4E704200143EDE73143EBE70023C7B257
:103080002E2F0AD1641C20780746303F0A2F04D225
:103090000A277B431B18303BF4E76C280DD06828C7
:1030A0000BD0702852D00BDC25285AD058282ED0AF
:1030B00063280CD0642858D110E06078641CECE7D9
:1030C000732832D0752817D078284ED11FE01A986F
:1030D0001A9A0068011D1160017843E01A981A9F3E
:1030E0000068061D3E6000680191009201460A22B8
:1030F00002A800F076FB38E01A981A9F0068061DB7
:103100003E600068009201910A2209E02FE01A98BF
:103110001A9F0068061D3E6000680092019110220F
:10312000014602A800F0C2FB1FE01A981A9A006834
:10313000011D116006683178761C002915D002A89F
:1031400000F020FC05980028F5DA0EE01A981A9A8B
:1031500000680823011D1160016810220096019586
:10316000DFE7252102A800F00DFC641C5BE7059851
:10317000002800DC5AE70498002804D0024607A97A
:103180001898FFF7E7FE04990598401805904DE759
:10319000704710B5FEF756FB10BD000007484168A8
:1031A000074A490E1289490612041143054A9268DA
:1031B000114341600449C003886070470010024019
:1031C0004033FF1F0032FF1F00ED00E010B5024842
:1031D000FFF7B1FA10BD00001C06002030B50268F0
:1031E000184B194C984201D0A04203D17025AA4334
:1031F0004D682A4398420AD0A04208D0134DA842F5
:1032000005D0134DA84202D0124DA84204D1032587
:103210002D02AA43CD682A438025AA434D692A433B
:1032200002608A68C2620A688262984205D00122FE
:103230009207904201D0A04201D1096901630121A6
:10324000416130BD002C01400004004000200040DE
:10325000004401400048014010B5CB06DB0E0121BF
:10326000046A99408C430462016A9A4011430162E6
:1032700010BD10B5CB06DB0E0421046A99408C43C7
:103280000462016A9A401143016210BD30B584683E
:10329000FF252D021B021343AC430B4323438360E2
:1032A00030BD0000F0B5026A520852000262056AA1
:1032B000436882697024A24392080C689200144308
:1032C000022295438A68154E2A43134DA84204D022
:1032D000B04202D0124FB84206D10827BA43CF6895
:1032E0001743042297433A46A84207D00D4DA842FF
:1032F00004D0B04202D00A4DA84206D103252D02C7
:10330000AB434D691D438B692B434360846149681E
:1033100041630262F0BD0000002C01400044014006
:10332000004801400040014070B5026A10239A43F2
:103330000262056A4268836973242402A3430C680D
:1033400024021C4320239D438B681B012B43124DF9
:10335000A84208D11D46CB688026B5431B012B43EC
:103360004025AB4308E00D4DA84205D00C4DA842C6
:1033700002D00C4DA84208D10325AD02AA434D69E5
:10338000AD0015438A6992002A434260846149680E
:103390008163036270BD0000002C014000400140C9
:1033A000004401400048014070B5026AFF23013328
:1033B0009A430262056A4368C2697024A243920874
:1033C0000C68920014430122520295438A6812024B
:1033D0002A43124DA84208D11546CA68C614B543FF
:1033E00012022A430515AA4308E00D4DA84205D054
:1033F0000C4DA84202D00C4DA84208D103252D0344
:10340000AB434D692D011D438B691B012B43436069
:10341000C4614968C163026270BD0000002C0140B4
:1034200000400140004401400048014030B5026ABC
:1034300001231B039A430262046A4268C36973252D
:103440002D02AB430D682D021D4301235B039C43FA
:103450008B681B0323430C4CA04208D00B4CA042AA
:1034600005D00B4CA04202D00A4CA04205D1012449
:10347000A403A2434C69A40122434260C561496888
:103480000164036230BD0000002C01400040014097
:10349000004401400048014070B50468A2687023F0
:1034A0009A434B681343DB080A68DB001A43A260A7
:1034B0004A6813071B0F30D11211130000F0E6FA0F
:1034C000082D2D2D2D0C2228052D0B698A68C96821
:1034D0000068FFF7DBFE20E00A68052A10D00268CA
:1034E000136A146A6408640014620468A2690969B2
:1034F000F025AA4309011143A161006803620CE0B1
:10350000012070BD0A698968006800F008F804E0CD
:103510000A698968006800F035F8002070BD30B590
:10352000036A046A6408640004628469F025AC4399
:10353000120122430A24A3430B438261036230BD7C
:1035400070B5046A6408640004628469056A0B4EFD
:10355000B04202D00A4EB04202D1A408A40000E05A
:1035600001221443F02294431A07120E0A23224325
:103570009D43194029438261016270BD002C0140C6
:103580000004004030B5036A1024A3430362846939
:10359000036A0F252D031203AC432243A024A34347
:1035A000090119438261016230BD70B5046A1025BA
:1035B000AC4304628569046A03263602B5431202ED
:1035C0002A430F252D031B071B0CAA431343A022DC
:1035D00009019443114021438361016270BD0000E1
:1035E000F0B5594C89B02079A57961790291A17B18
:1035F000400701260891002811DAFF218131534844
:10360000FCF7B9FD51494020486002F079F9A672F3
:10361000002060724E490870012001F0A7FDA77AD2
:103620002F40F80705D00020A07300F04BFA7F0868
:103630007F0001252CE03046A8403842079025D075
:10364000A573607D400703D5607DFB210840607550
:103650001420294641433D480818028D436B016BF5
:1036600093421CD989188C460163816B8918816348
:103670009B1A43631AD0934200D21A4692B2614613
:10368000284600F0B3FC6675079887436D1CEDB2C1
:10369000002FD0D1677A0298074001254EE0C91863
:1036A0000163816BC918816300214163816B2846E6
:1036B0008022104302F0BEF8E6E73046A8403842C8
:1036C000019039D0A573607EC00733D0A08B0390E2
:1036D0002946142041431D48039A0818059080305C
:1036E0000690016D284600F071FC607E40084000A5
:1036F00060760698016D039809180698016506988A
:10370000816D03980918069881650698426D0398A3
:10371000121A069842650598C030038903988342BF
:1037200001D8002A06D1607A019A90436072284637
:1037300002F0B2F8019887436D1CEDB2002FBCD1A6
:103740000898A07309B0F0BD005C0040A002002002
:103750002000002010B5FFF743FF10BD10B5124C3C
:1037600003202061606111A0A0611348E061012085
:10377000800220620020A0620CA222660121E16288
:1037800060620E4A626610222067A266E066616788
:103790000BA1E01DFCF7FAFC0AA12046FCF7F6FCA1
:1037A0002020A07110BD0000200400205465726D1F
:1037B000696E616C0000000020070020200B0020D3
:1037C0005254540053454747455200000269C168AE
:1037D0008A4203D88068401A801800E0501A401EC0
:1037E0007047FFB583B00E4670420D9F0C9C009051
:1037F000002900DB0846012502E0FCF78FFC6D1C68
:1038000005998842F9DA0698A84200D90546002CA5
:1038100004D0002E01DB780700D5641EB80702D55E
:103820000698002810D0F8070ED1002C0CD0A54225
:103830000AD22021641E039800F0A4F80398C068FF
:103840000028F2DA07B0F0BD0398C0680028F9DB61
:10385000002E02DA2D21009E02E0780707D52B21E9
:10386000039800F08FF80398C0680028EADBB807D7
:10387000800F022810D1069800280DD1002C0BD003
:10388000A54209D23021641E039800F07BF803980A
:10389000C0680028F2DAD5E7019700943146069B0C
:1038A000059A039800F002F8CCE70000FFB581B05C
:1038B00001261F4634460A9D029802E0FCF718FCD8
:1038C000641C03998842F9D2A74200D93C460B9860
:1038D000C00718D1002D16D00B98800701D5002FF6
:1038E00002D0202000900CE03020FBE76D1E0099F4
:1038F000019800F047F80198C06800283DDB002DD2
:1039000001D0AC42F2D30198C068002835DB012F0A
:1039100001D97F1E06E031460298FCF7E9FB0399C6
:10392000884202D303984643F1E7154F3146029887
:10393000FCF7DEFB0146029A7143511A0291395C91
:10394000019800F01FF80198C068002805DB304698
:103950000399FCF7CDFB0600E8D10B98C0070CD00B
:10396000002D0AD0AC4208D220216D1E019800F033
:1039700009F80198C0680028F2DA05B0F0BD00002F
:10398000C85E000810B5044680686368421C934214
:1039900005D323681954A260E068401CE060A26867
:1039A0006068824209D121682069FFF7D3FAA168D3
:1039B000884203D00020C043E06010BD0020A0601A
:1039C00010BDF7B5064682B000200090F468174697
:1039D0003069A04201D9051B02E0B168201A0D1A16
:1039E000B0686D1E001BA84200D80546BD4200D33A
:1039F0003D4670682A4600190399FCF7A3FB00981E
:103A00007F1B401900900398641940190390B06817
:103A1000A04200D10024F460002FD9D1009805B055
:103A2000F0BDF7B50446C7688068E168C51B6068EB
:103A300016464018B54205D90199FCF783FBB81921
:103A4000E060FEBD2A460199FCF77CFB0198761BDD
:103A5000411932466068FCF775FBE660FEBD202127
:103A6000020C01D010211046020A01D0104608397C
:103A7000020901D01046091F820801D01046891E94
:103A8000420801D0881E7047081A704730B4744647
:103A9000641E2578641CAB4200D21D46635D5B004A
:103AA000E31830BC184702E008C8121F08C1002AFA
:103AB000FAD170477047002001E001C1121F002AAF
:103AC000FBD17047F8B5384C207C00214207374EB7
:103AD000002A05DA207CFB22104020743170F8BDEA
:103AE000C20601D580222274314D2A78002A02D0E4
:103AF0002A782270297032781300FFF7C7FF070673
:103B00001E05315105510500E9E7C007E7D0607C8B
:103B10000828E4D12649082220310E46002000F072
:103B200055FAE88C002802D04022227401E0482097
:103B30002074304601F012FEF8BD1D482B8D6A6BD3
:103B4000806B9A4204D9C018A863D01A686302E057
:103B500080186963A863A96B802001F06BFEF8BD33
:103B6000C007FCD0677C124D3A4680350020296D95
:103B700000F02CFA286DC0192865A86DC1192846D7
:103B80004030A9650089B84207D9002001F084FEC1
:103B90004820207404203070F8BD40202074F8BD07
:103BA00031700021D8E70000005C004020000020B8
:103BB000A002002010B51648144901602C210161B3
:103BC00009218901C1600121C9030162002101228B
:103BD0008160C261416031228262642242625F225E
:103BE000120582614161FDF7EBF9002801D0FCF775
:103BF00069FD08A10020FFF7F5F90548FDF7ACFACB
:103C000009A10020FFF7EEF910BD000000020140FD
:103C1000EC06002048414C5F434F4D505F496E69B0
:103C200074200D0A0000000048414C5F434F4D5086
:103C30005F5374617274200D0A00000000B587B0F4
:103C400014216846FCF797FA0D494A6B022002439B
:103C50004A63496B0390014005910A490191012192
:103C60000291009169460848FDF748FD0520FDF7DF
:103C700039FE002211460520FDF73EFE07B000BDCB
:103C800000100240000021100004005010B50FA1E8
:103C90000020FFF7A7F9FFF7D1FF0FA10020FFF7E2
:103CA000A1F900F03FF811A10020FFF79BF9EF20E8
:103CB00000F050FA11A10020FFF794F9FFF77AFF06
:103CC00013A10020FFF78EF910BD0000696E697422
:103CD00050534642200D0A00696E69744578697434
:103CE000494F20656E64200D0A000000696E6974FA
:103CF00054696D20656E64200D0A0000736574536D
:103D0000686970506172736520656E64200D0A00E9
:103D1000696E6974434F4D503120656E64200D0A01
:103D200000000000F8B55F4DFF265D48E036002436
:103D3000EE6011C5AC602C60EC602C615948083D08
:103D4000FEF7F6FB002801D0FCF7BCFC55485649AD
:103D5000403012C004608460466004610838FEF799
:103D60009CFD002801D0FCF7ADFC4E480121090361
:103D7000943001610521C1600121C90201608460A4
:103D80004910446141600901C16101465438FEF7A0
:103D900021FB002801D0FCF795FC424941489431B1
:103DA000FEF718FB002801D0FCF78CFC3D4E60208C
:103DB000B436B460F4603060B461EF27FF20776000
:103DC0000130346131467061084600227438FEF7D4
:103DD000BFFE002801D0FCF775FC32497720B431D2
:103DE0007060084604227438FEF7B2FE002801D045
:103DF000FCF768FC2B490022B4312A487760FEF7B3
:103E0000A7FE002801D0FCF75DFC28684462274823
:103E1000502112C0234825494030FEF70BFB2148B2
:103E20000621803012C00460446001468460083975
:103E30008838FEF73EFF002801D0FCF743FC2868D5
:103E4000C16801221143C160164800214030FEF7CD
:103E50003FFD002801D0FCF735FC00211148FEF79A
:103E6000FBFE002801D0FCF72DFC00210D48FEF7D9
:103E700047FB002801D0FCF725FC0A480021403010
:103E8000FEF7EAFE002801D0FCF71CFC05480021E3
:103E90004030FEF735FB002801D0FCF713FCF8BDDD
:103EA000002C01401C06002000400140D8000020EA
:103EB0000248407F002800D00120704760020020A7
:103EC0000DA10020FFF78EF800F08AF9FCF794FCB2
:103ED000FDF7C0FCFCF722FCFCF75EFC00F080F96B
:103EE0001348026A13A10020FFF77CF800F0A8FD38
:103EF00000F08CFFFCE700000D0A6D61696E202068
:103F00007374617274202031312D323820202D2DB0
:103F10002D2D2D2D2D2D2D2D2D2D2D2D2D2D2D2DD1
:103F20002D2D2D2D2D2D2D2D2D2D0D0A00000000B8
:103F3000401002400D0A2031312D323820415050BE
:103F4000204D4F4445097265736574202072656188
:103F5000736F6E203D2025780D0A2000F8B51D46B0
:103F600016460746002903D00A4609A1FFF73AF88A
:103F7000002405E0325D0AA13846FFF733F8641CDF
:103F8000AC42F7D308A13846FFF72CF8F8BD000083
:103F90000D0A257320204C454E3D25640A00000083
:103FA00020257820000000000D0A000003460120B3
:103FB000C200934201D80A807047401CC0B2082852
:103FC000F6D900200880012070470000064B8000D1
:103FD000C018002A06D003780B70491C521E120428
:103FE000120CF8D170470000205C0040064B8000A6
:103FF000C018002A06D00B78491C521E1204037008
:10400000120CF8D170470000205C0040F8B5014662
:1040100040310124CDB20021C207920F1219491C70
:104020004008C9B2D4B20429F6D3FEF7DEFE1A4E18
:104030003078FEF7C3FEFEF764FE00280FD1284655
:10404000FEF7BCFEFEF75DFEFEF7CFFE30780121E5
:104050000843FEF7B3FEFEF754FE002803D0FEF738
:10406000D8FE0120F8BD00250C4F661E0EE0B542BB
:1040700004D1FEF77CFE7855012003E0FEF777FEC1
:1040800078550020FEF78DFE6D1CEDB2A542EED3F3
:10409000FEF7BFFE3878F8BD3000002098050020FC
:1040A000F8B5502269460A7080004870FEF79DFE00
:1040B000184D2878FEF782FEFEF723FE00246E4698
:1040C000305DFEF77BFEFEF71CFE641CE4B2022CA2
:1040D000F6D3FEF78AFE287801210843FEF76EFE2C
:1040E000FEF70FFEFEF743FE0A4C08342070002056
:1040F000FEF757FEFEF73BFE60700020FEF751FE14
:10410000FEF735FEA0700120FEF74BFEFEF781FEA4
:104110000020F8BD3000002010B50524240786B02B
:1041200040212046FDF7CCF914216846FCF723F81E
:1041300001200221019040200291039100906946E4
:104140002046FDF7DBFA002240212046FDF76DFBFB
:1041500006B010BD10B5044600212048FEF7E4FB70
:104160001E4800214030FEF7DFFB00211B48FEF710
:10417000A1F91A4800214030FEF79CF91748FEF7D4
:10418000A7FA16484030FEF7A3FAFF20E03060435C
:10419000C821FBF7C3FF1149096848620F48403046
:1041A000FEF784FA00210D48FEF792FB0B48002130
:1041B0004030FEF78DFB00210848FEF763F9074801
:1041C00000214030FEF75EF9044800214030FEF740
:1041D0007FFB002801D0FCF775FA10BD1C060020FB
:1041E0000548C1690902090AC1610448016902223E
:1041F000114301617047000004ED00E000E000E0C1
:10420000F0B593B0002400940194242108A80294EE
:10421000FBF7B1FF2B48026841150A4302600068B2
:1042200008401190142103A8FBF7A5FF254840384A
:10423000416B022631434163406B052730401190AA
:10424000032001253F07049003A9039505943846F0
:10425000FDF754FA03A938460396FDF74FFA0022FA
:1042600011460C20FDF748FB0C20FDF73BFBA80393
:104270000890C001109008A8FDF77AFC1249134875
:1042800012C0046044600472C560047407214904CC
:10429000456181610838FCF7D7FD0094042401953D
:1042A00069460A480294FCF7ABFC69460748019648
:1042B00000950294FCF7A4FC0448FCF7B7FB13B08C
:1042C000F0BD00004010024000240140C80400205E
:1042D0000EB500210091019102910121002800D02A
:1042E000009104200191029069460248FCF788FC85
:1042F0000EBD0000C804002070B5054618491748D7
:1043000008607D200024C0000C61C8608C6004221D
:104310008C614A6048610846FEF782FC002801D0A3
:10432000FCF7D0F90E49602080318C600C61CC60C4
:104330008C614C6121C1002208390948FEF708FC54
:10434000002801D0FCF7BEF900210548FEF7D8F897
:10435000002801D0FCF7B6F970BD0000004801400C
:10436000FC040020F8B5FDF767FA7D26F600074645
:104370003146FBF7D3FE204D0C46E86D01F030F8D6
:1043800005282CDD0A213846FBF7C8FE002926D176
:10439000FDF752FAE865286C0300FFF777FB060C7F
:1043A000040404211D20012001F01AF81349884259
:1043B00001DD002011E012493846FBF7AFFE286C02
:1043C000FF22F532401C50438142F2DA1146384652
:1043D000FBF7A4FEFA29ECDB304600F0AFFEF8BD97
:1043E0007D2109013846FBF799FEB14200DB341B01
:1043F00020460A30F1E700004400002010270000AA
:1044000088130000F8B500F0BBF940490126F60317
:10441000B7103F4CCD06884229DA3EA10020FEF7B6
:10442000E1FD0122114620460EE0FDF705FA7D214F
:10443000C900FBF75DFE0E4600F09EFEFF20F53042
:1044400086420ADA012209E0FDF7EFF939463848D9
:10445000FDF7E6F90028E8D12FE0002240212046B0
:10446000FDF7E3F900220121C9032846ECE7012109
:104470002046FDF7D5F9002833D1012189022846CD
:10448000FDF7CEF900282CD039462A48FDF7C8F9A7
:10449000002808D0012240212046FDF7C6F900225D
:1044A0003146284607E0012231462846FDF7BDF98E
:1044B000002240212046FDF7B8F901212046FDF7F2
:1044C000AFF900280CD11C4C206900F089FF7D2138
:1044D000090188420CDDFDF7AFF9206100F0ACFC6A
:1044E000F8BD012231462846FDF79FF90122E0E799
:1044F000012189022846FDF793F90028F0D12069AF
:1045000000F06EFF0528E6DCF8BD0000EA0B0000B5
:10451000001400506C6F77204261747465727909E1
:10452000736764456E74657253746F700D0A000092
:1045300000080050000400504400002038B5364800
:104540000268012109050A43026002680A400092DC
:104550000168C214114301600168114000910368B1
:1045600051010B43036003680B400093036849004B
:104570000B43036003680B402749009340394B6BA2
:10458000012423434B634B6B234000934C6B02236A
:104590001C434C634C6B1C4000944D6B042425431E
:1045A0004D634D6B254000954D6B202425434D6395
:1045B0004D6B254000958D6B841525438D638D6B68
:1045C00025400095CC6B1C43CC63C96B194000910E
:1045D000016811430160016811400091026899036C
:1045E0000A43026002680A4000920268C9000A4356
:1045F000026002680A400092026881140A43026065
:1046000002680A400092026841150A43026000688D
:104610000840009038BD0000401002400B4B10B520
:104620000C330A48196E094980310C6894430C60B8
:104630004C6894434C600168914301604168914328
:104640004160186E00090001186610BD0018024094
:1046500000B585B014216846FBF78DFD022003905C
:1046600005480190012002902020009069460348EF
:10467000FDF744F805B000BD000011100014005013
:1046800070B5244C08212046FDF7CAF800283FD118
:10469000650129462046FDF7C3F8002838D1FDF70B
:1046A000CBF802461CA10020FEF79CFC052636072D
:1046B0000DE0FDF7C1F8C821FBF71AFD642901DD03
:1046C000012200E0002229463046FDF7AEF808211D
:1046D0002046FDF7A5F8002805D129462046FDF71C
:1046E0009FF80028E5D0FDF7A7F8134988420FD9B5
:1046F00000F000FD002229463046FDF796F8FDF750
:104700009BF802460DA10020FEF76CFC00F048FE6D
:1047100070BD000000040050736764466163746FED
:104720007279496E69742020207469636B20203D82
:104730002025640D0A000000B80B00007367645266
:10474000657365745A65726F416E676C65202020D1
:104750007469636B20203D2025640D0A0000000071
:1047600000487047DC0500007D20400170470000D4
:1047700010B502480069FBF7FFFD10BD30000020B6
:1047800000487047D80E0000F0B5544C8BB0606CF8
:1047900000F026FE32287DDDFDF74EF8606400F063
:1047A0006BFCFFF7E1FF00F07DFCFFF7DDFF4C49FC
:1047B0000025884203DDFDF73FF86562A061A0692E
:1047C00000F00EFE7D2149010126884200DD66626F
:1047D000666000F08DF86070012149034148FDF7E3
:1047E0001FF8002800D001202062002800D1E561D8
:1047F0000121052089020007FDF712F83A4F002831
:104800005FD079013846FDF70BF800285BD0032014
:1048100020706178206D884207D1A16D206A88429E
:1048200003D12078616D884255D0012149033E466D
:104830003846FCF7F5FF03900121052089020007A7
:10484000FCF7EEFF01210290C9033046FCF7E8FFB8
:104850000190E06800F0C4FD0646FFF781FF0746BF
:10486000FFF782FFE36902460399029808930691D5
:1048700005900795216C0198029104900197039689
:1048800000920123627819490020FEF7ABFBFCF788
:10489000D3FF00E01FE0E06060782065216AA16539
:1048A00021786165072810D2642148430621FBF76F
:1048B0001FFCFFF74FFC60780849800070310858F2
:1048C00007E02670A5E70220A2E70020FFF742FCE0
:1048D000642000F097FB0BB0F0BD00004400002006
:1048E000E40C00000008005000040050385F00088D
:1048F00070B50D4DE868FBF729FD04460B492869A2
:10490000FBF74DFC2146FBF79BFC0949FBF747FCF5
:10491000FBF732FDFF216931FBF700FC0846172148
:10492000FBF7FCFB70BD0000300000200000B4432A
:10493000000030410148C06870470000300000208E
:1049400010B5FEF7F3F910BD00B585B00091022156
:104950000391029301926946FCF7D0FE05B000BDB9
:10496000F8B501230525DC032D071A462146284604
:10497000FFF7EAFF2D4E01231A4640213046FFF78C
:10498000E3FF0223002240212948FFF7DDFF012336
:10499000002220213046FFF7D7FF012300225903D0
:1049A0002448FFF7D1FF0123002208212048FFF708
:1049B000CBFF01235F02002239463046FFF7C4FFD8
:1049C0000123002259031B48FFF7BEFF01230022E9
:1049D00039461748FFF7B8FF012300222146144843
:1049E000FFF7B2FF01239C02002221462846FFF771
:1049F000ABFF0123002259030D48FFF7A5FF0EA1CD
:104A00000020FEF7EFFA01231A4699030848FFF742
:104A10009BFF01231A4621462846FFF795FF0123F5
:104A20001A4619463046FFF78FFFF8BD00140050B4
:104A3000000400500008005020200D0A0000000073
:104A400010B538A10020FEF7CDFAFFF777FD3BA1A6
:104A50000020FEF7C7FAFFF783FF6420FBF7FEFE96
:104A60003BA10020FEF7BEFA19204001FFF744FCED
:104A70003FA10020FEF7B6FAFFF7C2FB42A10020DB
:104A8000FEF7B0FA00F056F944A10020FEF7AAFAAA
:104A9000FFF756FF0A20FBF7E1FE002243A1104674
:104AA000FEF7A0FA49A10020FEF79CFA00F0DAFA1E
:104AB0004DA10020FEF796FA00F02EFC51A1002037
:104AC000FEF790FA00F074F954A10020FEF78AFA7C
:104AD000594800F097FA59A10020FEF783FAFFF732
:104AE000CFFD5DA10020FEF77DFA00F0BDF90A20A0
:104AF000FBF7B4FE00F0A0F900F0D0F801231A464D
:104B000099035C48FFF720FF5B496420C860FFF70A
:104B1000BDF85AA10020FEF765FA5CA10020FEF75F
:104B200061FA10BD736764496E69742020313132B7
:104B30003320202073746172740D0A007367644916
:104B40004F496E697420202073746172740D0A00DD
:104B5000736764426174746572794C6564436F6E07
:104B60006669676520202073746172740D0A000005
:104B7000736764414443496E6974202020737461F3
:104B800072740D0A00000000353330364B65792011
:104B9000202073746172740D0A00000049324320B2
:104BA000202073746172740D0A00000049535F483D
:104BB0004947485F5357495443485F444543203D64
:104BC000202564202020200D0A0000007367644F18
:104BD00070656E3556506F77657220202073746152
:104BE00072740D0A000000007367645761697435C0
:104BF00056526561647920202073746172740D0AC5
:104C0000000000007367644B5435373633496E69D2
:104C10007420202073746172740D0A007367644FEE
:104C20006E6550756C7365436F6E666967202020F2
:104C300073746172740D0A00B80B000073676446E8
:104C40006163746F7279496E697420202073746196
:104C500072740D0A000000007367644E6F416E6746
:104C60006C65496E666F20202073746172740D0A42
:104C700000000000000400504400002073676449F5
:104C80006E697420656E64200D0A000073676449C4
:104C90006E6974202020656E640D0A0070B586B0C0
:104CA00014216846FBF767FA1D48416B0224214333
:104CB0004163406B1C4E204005901A48019008202B
:104CC000012500900295039469463046FCF716FDD5
:104CD0002002009069461548FCF710FD1020009056
:104CE000052069460007FCF709FD11480190694657
:104CF000009502943046FCF701FD0720FCF7F2FD19
:104D0000002211460720FCF7F7FD0620FCF7EAFD1C
:104D1000002211460620FCF7EFFD06B070BD000032
:104D20000010024000002110000400500014005048
:104D30000000111010B51A49012008601A481949DD
:104D400001601A49C1600024046149018460416026
:104D50007D21C90084614161FDF762FF002801D017
:104D6000FBF7B0FC10486021403084600461C460EF
:104D7000846144610160C8214160014600224038DD
:104D8000FDF7E6FE002801D0FBF79CFC0021064859
:104D9000FDF762FF002801D0FBF794FC10BD000076
:104DA0002C000020002000403C050020DC05000015
:104DB00010B500F0F5FAFDF7B9FF0A20FBF74EFD3C
:104DC000FBF7A4FD0A20FBF749FD0D20FFF768F96A
:104DD0000A48417880780902081882B2074808A179
:104DE0000838C2800020FEF7FDF8FEF795F806208F
:104DF000FBF748FD0A20FBF731FD10BD380000200D
:104E00000A20444944202578090A000010B5FFF71C
:104E1000BBFC012291030648FCF707FD002201219B
:104E20000448FCF702FDFFF7EDFAFFF79BFA10BD0F
:104E3000000400500014005070B5FFF709FCFCF7A7
:104E4000FBFC0849012448610525A4022D07002226
:104E500021462846FCF7E9FC012221462846FCF7BA
:104E6000E4FC70BD44000020F0B587B001260027A7
:104E700000F096FAFFF75EFD401C7DD1564CFCF722
:104E8000DBFCC821FBF734F9642901DD012200E0D5
:104E9000002240215148FCF7C8FC304600F0A0FA3F
:104EA0006428ECDDFCF7C8FC064600F0FBF8FFF7D1
:104EB0005FFC0146FF3967392DD000282BD0FFF762
:104EC00057FCFF216931FBF729F90D46FCF7B4FCCB
:104ED000E26E616E0696531AFF33693304930392B0
:104EE0000590236EA06E0291C21A019200902A468C
:104EF0003B490020FEF776F8A06E854200DDA566EE
:104F0000206E854200DA2566DC2D0CDD606E854260
:104F10000FDA65660DE0FCF78FFC024631A1002038
:104F2000FEF760F8ABE7DC2D03DAE06E854200DDCA
:104F3000E566A16E206E091A8B390B291FD2014636
:104F4000FF396A391BD00127FCF776FCE26E616EEF
:104F50000696531AFF336933049303920590236E28
:104F6000A06E0291C21A019200902A4623490020A5
:104F7000FEF738F8206E00E028E000F0C1F8626E1D
:104F8000E16E881AFF306930962821DA00291FD097
:104F90008A281DDD1046FF386A3819D0FCF74CFC12
:104FA000626EE16E06968B1AFF33693304930391A8
:104FB0000590236EA06E6F46C11A07C72A46104996
:104FC0000020FEF70FF8606E00F09AF807B0F0BD11
:104FD000002FA7D0FAE70000440000200014005082
:104FE00094600008636F6E74696E75652074696300
:104FF0006B203D2025640D0A00000000D45F0008EE
:105000003460000810B51649144A0A60C8600024CC
:105010000C618C604C612F208C6148600821104825
:10502000FDF725FD002801D0FBF74CFB0C48702153
:105030004030846001600121416084610462C46089
:1050400004614461C1610146042300224038FDF738
:10505000A3FC002801D0FBF735FB10BD0004004085
:10506000A405002010B5002201210248FCF7DDFB59
:1050700010BD00000014005010B508484168002918
:1050800008D0002141600846FFF722F90448FBF7E9
:105090004BFD10BD012141600846F5E724000020CA
:1050A000C804002070B5104C002060800620FEF778
:1050B000ADFF0E4E757865802846FBF74FF900224C
:1050C0000B4BFBF7C5F80722D243FBF729F9FBF797
:1050D0006CF92061F078317900024018A080FF2D32
:1050E00001D1FFF765FE70BD30000020980500205B
:1050F0000080764010B50020C04300F001F810BDDC
:1051000010B50C49C860FCF7C7F90B4C01212046CB
:10511000FBF7DAFA074A21460C320120FCF736F990
:105120000446FBF74FFD002C01D0002010BD0120EC
:1051300010BD00003000002000F0000810B50A4942
:105140000022486008468038FDF702FD002801D0A3
:10515000FBF7B8FA044800218038FDF7D1F90028A0
:1051600001D0FBF7AFFA10BD7C0500200149C861F2
:10517000704700004400002010B501214903094890
:10518000FCF74EFB00280CD00748C06800F028F957
:105190000649884205DD06A10020FDF723FFFCF744
:1051A000AFFB10BD0008005044000020A0BB0D0064
:1051B000757365724F7065726174655469636B20B5
:1051C00020736764456E74657253746F700D0A00C6
:1051D00010B5FCF731FB094CE060FCF72DFBA06239
:1051E00000F00EF8FCF728FB2061012105200022C9
:1051F00089020007FCF719FB10BD000044000020E5
:1052000010B500210848FDF77BFC002801D0FBF712
:1052100059FA054805A1C2680020FDF7E3FE002108
:105220000148FDF76DFA10BDA405002073676453B3
:10523000746172744F6E65506C7573652050657241
:10524000696F64203D25640D0A20000038B5FCF725
:10525000F3FA124C0090227811A10020A368FDF708
:10526000C1FE2078012802D0022803D012E0FFF707
:10527000AFFF0FE0A06800F0B3F87D21090188427C
:1052800008DAFCF7D9FA034613A10020A268FDF75B
:10529000A9FEECE7FCF7D0FAA06038BD440000207E
:1052A000736764537461727453466C6173682D2D17
:1052B0002D2D2D2D2D2D2D2D2D2D2D2D2D2D2D2D1E
:1052C00020734D6F646520203D202520202564201B
:1052D0002025640D0A0000007367645374617274C2
:1052E00053466C617368202A2A2A2A2A2A2A2A2AE3
:1052F0002A2A2A2A2A2A2A2A2A2A2A2A2A2A2A2018
:1053000020666C6173685469636B203D20256420BE
:105310002025640D0A00000070B5114D114E0FE0FC
:10532000FFF7AAFEFCF788FA0446FFF719FA0246CF
:1053300023460DA10020FDF755FE1420FBF78EFA41
:10534000FFF70EFAA842EBDDFFF70AFAB042E7DA00
:10535000FCF772FA02460CA10020FDF743FE70BD77
:1053600014050000A40600007761697420357620DA
:1053700076626174203D202564202069636B3D20A6
:1053800025640D0A0000000035762072656164799D
:10539000207469636B203D2025640D0A0000000025
:1053A00010B504480268044804A1C2600020FDF75B
:1053B00019FE10BD00F00008300000200A73676479
:1053C0005A65726F416E676C65496E6974207A65C3
:1053D000726F416E676C65202564090A0000000049
:1053E00010B50446FCF728FA002C04D0A04204D2E1
:1053F000001B401E10BD002010BD001B10BD000092
:1054000070B5064606480D46046806E02269002A83
:1054100002D02946304690472468002CF6D170BD52
:1054200010000020F0B403789C07174BA40F1B68F2
:10543000012C10D0022C20D021E05C68002C09D077
:105440004479067924021D7F3443E4B2A54201D198
:105450005B680FE01B68002BEFD110E09C68002C0C
:105460000AD04479067924021D7F3443240AA542D8
:1054700002D19B68F0BC18471B68002BEED1F0BC32
:105480000020C043704700001000002010B54022EB
:105490000249022000F0BEF810BD0000E00000202C
:1054A00010B5124942068B7B520E8A730406FB200C
:1054B000002C0ADB002A15D0487E9F221040487637
:1054C000487E80221043487609E0002A0AD0487DB1
:1054D000CF2210404875487D4022104348758B7399
:1054E000002010BD0A7C02400A74F8E7005C00400E
:1054F00000207047FEB5002469460C800178012326
:105500004906490E2E4E2246002903D007290CD900
:10551000981EFEBD2A484021C03001818472037369
:105520003185A0388472037348E0264CA57B019531
:10553000A17305782D061AD4142779438919458853
:10554000C0310D8145788D720B734178012900D1EE
:1055500040222276617EC90701D0902100E080219F
:10556000617640886946FEF721FDA0761FE014258C
:105570004D434788AD192F8547782035AF722B737F
:10558000A57A8B401D43A5724178012900D14022A4
:1055900020210A432275617D890701D5482100E059
:1055A0004021617540886946FEF700FDA07570686E
:1055B00069460988401870600198A0730020FEBDFC
:1055C000A0020020005C004070B5104942068B7BB1
:1055D000520E8A73060607240D4D6020002E06DB4E
:1055E000002A0DD0487E20221043487605E0002A8C
:1055F00006D0087D1022104308758B73002070BD03
:105600002C700A7C02430A74F7E70000005C00403B
:105610002000002070B54006400E002903D1002A6A
:1056200001D0481E70BD1423144C43431D19CC23D4
:105630005B5D002B14D0124B9C7B987380356A65A0
:1056400029650021A9650F4D002A10D0002812D02D
:10565000597A01228240114359729C73002070BD17
:1056600009A10020FDF7BEFC0120C04370BD002849
:10567000F3D12970F1E703202870EEE7A0020020A3
:10568000005C00402000002021675F707975736224
:105690005F7564632E6F75745F65705B65705F69BD
:1056A00064785D2E65705F656E61626C650D0A00E1
:1056B000F8B54606760E002903D1002A01D0481E0F
:1056C000F8BD1420224B7043C0182C24245C002CFD
:1056D00009D0204CA57BA673677DFF0706D0A57374
:1056E0000220C043F8BD0120C043F8BD00278763F6
:1056F00042630163002A0BD0008D904200D802461D
:10570000174692B23046FEF771FC002E15D001E02C
:10571000002E02D0012060750CE0D88C002806D045
:1057200006210D480170007801280DD00EE00421FB
:10573000F7E72074A5730020F8BD07480121017028
:105740000348008DB84201D90A20F2E70220F0E7B1
:10575000A0020020005C004020000020FEB52D4C7F
:10576000014608222046FAF7EDFC6088E288A1880D
:105770006B4607C36378227827490020FDF732FC87
:10578000E288FF270137BA4202D9207800063DD5CA
:10579000204E204D1C36EA600020AE602A6128753C
:1057A000002A07D02078000604D431460020FFF7F5
:1057B00031FFFEBD174A204610321146083900F06D
:1057C00073F9002822D0E2882869904200D202466C
:1057D000EA60A968880705D0BA42EAD83046FAF7E5
:1057E000B1FCAE600DA10020EB68AA68FEF7B6FB25
:1057F0008020EA68A968FFF75BFFE1882869814299
:10580000D7D98006D5D101202875FEBD8020FFF7AD
:10581000DBFEFEBD20010020D85E000875736264C7
:105820005F65705F73746172745F77726974653AF3
:105830000D0A000010B5174B802809D04206D20D82
:10584000D218FF320132D269002A00D0904710BD31
:105850009A68104854189C60DA68521ADA6001D0CD
:10586000214612E0197D01290BD0C1880029EED014
:105870000078C009EBD0002211461046FFF7CAFE9F
:1058800010BD00201875024601468020FFF710FF6A
:1058900010BD00002001002010B5184B002809D0D1
:1058A0004206D20DD218FF320132D26B002A00D04C
:1058B000904710BD11480029FBD09A6854189C608D
:1058C000DA68521ADA6004D021460020FFF7A2FEFF
:1058D00010BD0A491C310A4699600C3A143900F08F
:1058E000E3F8002805D0002211468020FFF7E0FEF3
:1058F00010BD8020FFF768FE10BD000020010020D1
:1059000038B5002000F05EF80A4800240477447798
:10591000402168464180447080210170FFF7EAFD14
:1059200068460470FFF7E6FD00210120FFF768FDDF
:1059300038BD000060020020F0B504460020230AB4
:10594000E6B21E4C8446032B08D00F2B12D0042B3A
:1059500002D0052B00D003D90020F0BDEE2E02D0DE
:10596000174CA46921E060680028F6D003680B603A
:10597000007905E0E0680028EFD003680B6040681C
:1059800010600120F0BD65789D420DD16546B4459B
:1059900008D101200C60022B0BD0072B09D02178F5
:1059A0001160F0BD6D1CAC463C192778002FEAD180
:1059B000F0BDE178A37809021943F1E71000002057
:1059C00020010020002802D1034A00211170034960
:1059D0000870002070470000005C0040A00200201A
:1059E00008B5827869460A70417902790902114343
:1059F0004A05520D69464A80C0788007800F48707A
:105A00006846FFF777FD002801D0002008BD01207F
:105A100008BD0000F3B5234883B084690020FF2748
:105A20003E460546019033E06078042802D0052800
:105A30002CD109E0A6780398E778864226D104980D
:105A4000874223D1019421E0039886421ED1049914
:105A500020468F4217D081786A46117042790379C7
:105A600012021A4353055B0D6A465380E0788007A3
:105A7000800F50700846FFF73BFD002801D000253D
:105A800004E0012502E0FFF7ABFF0546207804198A
:105A900020780028C8D108200199FFF7B1FC2846DA
:105AA00005B0F0BD2001002010B5037860241C4033
:105AB00004D0202C15D0402C1AD115E09B079B0F49
:105AC00004D0012B05D0022B12D105E000F014F810
:105AD00004E000F0B7F801E000F07AF8002807D001
